S01A00002E2E2F506572666F726D616E636554657374322E7331390B
S32D0000C00000000020B9F7000015FB000015FB000015FB000015FB000015FB0000000000000000000000000000F2
S32D0000C0280000000015FB000015FB00000000000015FB000015FB000015FB000015FB000015FB000015FB00006A
S32D0000C05015FB000015FB000015FB000015FB000015FB000015FB000015FB000015FB000015FB000015FB000022
S32D0000C07815FB000015FB000015FB000015FB000015FB000015FB000015FB000015FB000015FB000015FB0000FA
S32D0000C0A015FB000015FB000015FB000015FB000015FB000015FB000015FB000015FB000015FB000015FB0000D2
S32D0000C0C815FB000015FB000015FB000015FB000015FB000015FB000015FB000015FB000015FB000015FB0000AA
S32D0000C0F015FB00002538010015FB000015FB000015FB000015FB000015FB000015FB000015FB000015FB000034
S32D0000C11815FB000015FB000015FB000015FB000015FB000015FB000015FB000015FB000015FB000015FB000059
S32D0000C14015FB000015FB000015FB000015FB00005510010015FB000015FB000015FB000015FB000015FB0000DB
S32D0000C16815FB000015FB000015FB000015FB000015FB000015FB000015FB000015FB000015FB000015FB000009
S32D0000C19015FB000015FB000015FB0000390C01008D0A0100610B010065FB0000110D010015FB000015FB000067
S32D0000C1B815FB000015FB000015FB000015FB000015FB000015FB000015FB000015FB000015FB000015FB0000B9
S32D0000C41081F0004102E000BF83F0004330B54FEA41044FEA430594EA050F08BF90EA020F1FBF54EA000C55EAC6
S32D0000C438020C7FEA645C7FEA655C00F0E2804FEA5454D4EB5555B8BF6D420CDD2C4480EA020281EA030382EA0F
S32D0000C460000083EA010180EA020281EA0303362D88BF30BD11F0004F4FEA01314FF4801C4CEA113102D0404263
S32D0000C48861EB410113F0004F4FEA03334CEA133302D0524263EB430394EA050F00F0A780A4F10104D5F1200E8A
S32D0000C4B00DDB02FA0EFC22FA05F2801841F1000103FA0EF2801843FA05F359410EE0A5F120050EF1200E012A2D
S32D0000C4D803FA0EFC28BF4CF0020C43FA05F3C01851EBE37101F0004507D54FF0000EDCF1000C7EEB00006EEB67
S32D0000C5000101B1F5801F1BD3B1F5001F0CD349085FEA30004FEA3C0C04F101044FEA445212F5800F80F09A8000
S32D0000C528BCF1004F08BF5FEA500C50F1000041EB045141EA050130BD5FEA4C0C404141EB010111F4801FA4F114
S32D0000C5500104E9D191F0000F04BF01460020B1FA81F308BF2033A3F10B03B3F120020CDA0C3208DD02F1140C87
S32D0000C578C2F10C0201FA0CF021FA02F10CE002F11402D8BFC2F1200C01FA02F120FA0CFCDCBF41EA0C019040B1
S32D0000C5A0E41AA2BF01EB0451294330BD6FEA04041F3C1CDA0C340EDC04F11404C4F1200220FA04F001FA02F3B6
S32D0000C5C840EA030021FA04F345EA030130BDC4F10C04C4F1200220FA02F001FA04F340EA0300294630BD21FAA8
S32D0000C5F004F0294630BD94F0000F83F4801306BF81F480110134013D4EE77FEA645C18BF7FEA655C29D094EA1C
S32D0000C618050F08BF90EA020F05D054EA000C04BF1946104630BD91EA030F1EBF0021002030BD5FEA545C05D1A3
S32D0000C6404000494128BF41F0004130BD14F580043CBF01F5801130BD01F0004545F0FE4141F470014FF0000031
S32D0000C66830BD7FEA645C1ABF194610467FEA655C1CBF0B46024650EA013406BF52EA033591EA030F41F40021D7
S32D0000C69030BD00BF90F0000F04BF0021704730B54FF4806404F132044FF000054FF0000150E700BF90F0000F66
S32D0000C6B804BF0021704730B54FF4806404F1320410F0004548BF40424FF000013EE700BF42004FEAE2014FEAF9
S32D0000C6E031014FEA02701FBF12F07F4393F07F4F81F06051704792F0000F14BF93F07F4F704730B54FF460741B
S32D0000C70801F0004521F0004120E700BF50EA010208BF704730B54FF000050AE050EA010208BF704730B511F046
S32D0000C730004502D5404261EB41014FF4806404F132045FEA915C3FF4DCAE4FF003025FEADC0C18BF03325FEAA0
S32D0000C758DC0C18BF033202EBDC02C2F1200300FA03FC20FA02F001FA03FE40EA0E0021FA02F11444C1E600BF19
S32D0000C78070B54FF0FF0C4CF4E06C1CEA11541DBF1CEA135594EA0C0F95EA0C0F00F0DEF82C4481EA030621EAF3
S32D0000C7A84C5123EA4C5350EA013518BF52EA033541F4801143F4801338D0A0FB02CE4FF00005E1FB02E506F05F
S32D0000C7D00042E0FB03E54FF00006E1FB03569CF0000F18BF4EF0010EA4F1FF04B6F5007F64F5407404D25FEA0F
S32D0000C7F84E0E6D4146EB060642EAC62141EA55514FEAC52040EA5E504FEACE2EB4F1FD0C88BFBCF5E06F1ED8D2
S32D0000C820BEF1004F08BF5FEA500E50F1000041EB045170BD06F0004646EA010140EA020081EA0301B4EB5C0487
S32D0000C848C2BFD4EB0C0541EA045170BD41F480114FF0000E013C00F3AB8014F1360FDEBF002001F0004170BDF0
S32D0000C870C4F10004203C35DA0C341BDC04F11404C4F1200500FA05F320FA04F001FA05F240EA020001F0004207
S32D0000C89821F0004110EBD37021FA04F642EB06015EEA430E08BF20EAD37070BDC4F10C04C4F1200500FA04F32F
S32D0000C8C020FA05F001FA04F240EA020001F0004110EBD37041F100015EEA430E08BF20EAD37070BDC4F12005C7
S32D0000C8E800FA05F24EEA020E20FA04F301FA05F243EA020321FA04F001F0004121FA04F220EA020000EBD37028
S32D0000C9105EEA430E08BF20EAD37070BD94F0000F0FD101F00046400041EB010111F4801F08BF013CF7D041EA6D
S32D0000C938060195F0000F18BF704703F00046520043EB030313F4801F08BF013DF7D043EA0603704794EA0C0FF1
S32D0000C9600CEA135518BF95EA0C0F0CD050EA410618BF52EA4306D1D181EA030101F000414FF0000070BD50EA38
S32D0000C988410606BF1046194652EA430619D094EA0C0F02D150EA013613D195EA0C0F05D152EA03361CBF10467B
S32D0000C9B019460AD181EA030101F0004141F0FE4141F470014FF0000070BD41F0FE4141F4780170BD70B54FF04D
S32D0000C9D8FF0C4CF4E06C1CEA11541DBF1CEA135594EA0C0F95EA0C0F00F0A7F8A4EB050481EA030E52EA03359B
S32D0000CA004FEA013100F088804FEA03334FF0805545EA131343EA12634FEA022245EA111545EA10654FEA002676
S32D0000CA280EF000419D4208BF964244F1FD0404F5407402D25B084FEA3202B61A65EB03055B084FEA32024FF461
S32D0000CA5080104FF4002CB6EB020E75EB030E22BFB61A754640EA0C005B084FEA3202B6EB020E75EB030E22BF22
S32D0000CA78B61A754640EA5C005B084FEA3202B6EB020E75EB030E22BFB61A754640EA9C005B084FEA3202B6EBEA
S32D0000CAA0020E75EB030E22BFB61A754640EADC0055EA060E18D04FEA051545EA16754FEA06164FEAC30343EAAC
S32D0000CAC852734FEAC2025FEA1C1CC0D111F4801F0BD141EA00014FF000004FF0004CB6E711F4801F04BF0143AE
S32D0000CAF00020B4F1FD0C88BFBCF5E06F3FF6AFAEB5EB030C04BFB6EB020C5FEA500C50F1000041EB045170BDBC
S32D0000CB180EF0004E4EEA113114EB5C04C2BFD4EB0C0541EA045170BD41F480114FF0000E013C90E645EA060EC3
S32D0000CB408DE60CEA135594EA0C0F08BF95EA0C0F3FF43BAF94EA0C0F0AD150EA01347FF434AF95EA0C0F7FF499
S32D0000CB6825AF104619462CE795EA0C0F06D152EA03353FF4FDAE1046194622E750EA410618BF52EA43067FF432
S32D0000CB90C5AE50EA41047FF40DAF52EA43057FF4EBAE12E74FF0FF3C06E000BF4FF0010C02E000BF4FF0010C75
S32D0000CBB84DF804CD4FEA410C7FEA6C5C4FEA430C18BF7FEA6C5C1BD001B050EA410C0CBF52EA430C91EA030FEC
S32D0000CBE002BF90EA020F0020704710F1000F91EA030F58BF994208BF90422CBFD8176FEAE37040F0010070476E
S32D0000CC084FEA410C7FEA6C5C02D150EA013C07D14FEA430C7FEA6C5CD6D152EA033CD3D05DF8040B704700BFCD
S32D0000CC308446104662468C461946634600E000BF01B5FFF7B7FF002848BF10F1000F01BD4DF808EDFFF7F4FF13
S32D0000CC580CBF012000205DF808FB00BF4DF808EDFFF7EAFF34BF012000205DF808FB00BF4DF808EDFFF7E0FF18
S32D0000CC8094BF012000205DF808FB00BF4DF808EDFFF7CEFF94BF012000205DF808FB00BF4DF808EDFFF7C4FF40
S32D0000CCA834BF012000205DF808FB00BF4FEA410212F5001215D211D56FF47873B3EB625212D94FEAC12343F0D6
S32D0000CCD0004343EA505311F0004F23FA02F018BF404270474FF00000704750EA013005D111F0004008BF6FF016
S32D0000CCF8004070474FF00000704700BF80F0004002E000BF81F0004142001FBF5FEA410392EA030F7FEA226C2D
S32D0000CD207FEA236C6AD04FEA1262D2EB1363C1BFD218414048404140B8BF5B42192B88BF704710F0004F40F406
S32D0000CD48000020F07F4018BF404211F0004F41F4000121F07F4118BF494292EA030F3FD0A2F1010241FA03FC6F
S32D0000CD7010EB0C00C3F1200301FA03F100F0004302D5494260EB4000B0F5000F13D3B0F1807F06D340084FEA14
S32D0000CD98310102F10102FE2A51D2B1F1004F40EBC25008BF20F0010040EA03007047490040EB000010F4000F89
S32D0000CDC0A2F10102EDD1B0FA80FCACF1080CB2EB0C0200FA0CF0AABF00EBC25052421843BCBFD0401843704787
S32D0000CDE892F0000F81F4000106BF80F400000132013BB5E74FEA41037FEA226C18BF7FEA236C21D092EA030F10
S32D0000CE1004D092F0000F08BF0846704790EA010F1CBF0020704712F07F4F04D1400028BF40F00040704712F191
S32D0000CE3800723CBF00F50000704700F0004343F0FE4040F4000070477FEA226216BF08467FEA2363014642029A
S32D0000CE6006BF5FEA412390EA010F40F4800070474FF0000304E000BF10F0004348BF40425FEA000C08BF7047B9
S32D0000CE8843F0964301464FF000001CE050EA010208BF70474FF000030AE000BF50EA010208BF704711F0004349
S32D0000CEB002D5404261EB41015FEA010C02BF84460146002043F0B64308BFA3F18053A3F50003BCFA8CF2083ABA
S32D0000CED8A3EBC25310DB01FA02FC634400FA02FCC2F12002BCF1004F20FA02F243EB020008BF20F00100704768
S32D0000CF0002F1200201FA02FCC2F1200250EA4C0021FA02F243EB020008BF20EADC7070474FF0FF0C1CEAD05215
S32D0000CF281EBF1CEAD15392EA0C0F93EA0C0F6FD01A4480EA010C400218BF5FEA41211ED04FF0006343EA5010B0
S32D0000CF5043EA5111A0FB01310CF00040B1F5000F3EBF490041EAD3715B0040EA010062F17F02FD2A1DD8B3F197
S32D0000CF78004F40EBC25008BF20F00100704790F0000F0CF0004C08BF49024CEA502040EA51207F3AC2BFD2F149
S32D0000CFA0FF0340EAC250704740F400004FF00003013A5DDC12F1190FDCBF00F000407047C2F10002410021FAC6
S32D0000CFC802F1C2F1200200FA02FC5FEA310040F1000053EA4C0308BF20EADC70704792F0000F00F0004C02BFE2
S32D0000CFF0400010F4000F013AF9D040EA0C0093F0000F01F0004C02BF490011F4000F013BF9D041EA0C018FE7E6
S32D0000D0180CEAD15392EA0C0F18BF93EA0C0F0AD030F0004C18BF31F0004CD8D180EA010000F00040704790F0C5
S32D0000D040000F17BF90F0004F084691F0000F91F0004F14D092EA0C0F01D142020FD193EA0C0F03D14B0218BF5F
S32D0000D068084608D180EA010000F0004040F0FE4040F40000704740F0FE4040F4400070474FF0FF0C1CEAD05274
S32D0000D0901EBF1CEAD15392EA0C0F93EA0C0F69D0A2EB030280EA010C49024FEA402037D04FF0805343EA1111AE
S32D0000D0B843EA10130CF000408B4238BF5B0042F17D024FF4000C8B4224BF5B1A40EA0C00B3EB510F24BFA3EBD4
S32D0000D0E0510340EA5C00B3EB910F24BFA3EB910340EA9C00B3EBD10F24BFA3EBD10340EADC001B0118BF5FEA3A
S32D0000D1081C1CE0D1FD2A3FF650AF8B4240EBC25008BF20F0010070470CF0004C4CEA50207F32C2BFD2F1FF0337
S32D0000D13040EAC250704740F400004FF00003013A37E792F0000F00F0004C02BF400010F4000F013AF9D040EA00
S32D0000D1580C0093F0000F01F0004C02BF490011F4000F013BF9D041EA0C0195E70CEAD15392EA0C0F08D1420229
S32D0000D1807FF47DAF93EA0C0F7FF470AF084676E793EA0C0F04D14B023FF44CAF08466EE730F0004C18BF31F01E
S32D0000D1A8004CCAD130F000427FF45CAF31F000437FF43CAF5FE700BF4FF0FF3C06E000BF4FF0010C02E000BFBF
S32D0000D1D04FF0010C4DF804CD4FEA40024FEA41037FEA226C18BF7FEA236C11D001B052EA530C18BF90EA010F83
S32D0000D1F858BFB2EB030088BFC81738BF6FEAE17018BF40F0010070477FEA226C02D15FEA402C05D17FEA236C7F
S32D0000D220E4D15FEA412CE1D05DF8040B704700BF844608466146FFE70FB5FFF7C9FF002848BF10F1000F0FBDB8
S32D0000D2484DF808EDFFF7F4FF0CBF012000205DF808FB00BF4DF808EDFFF7EAFF34BF012000205DF808FB00BF0E
S32D0000D2704DF808EDFFF7E0FF94BF012000205DF808FB00BF4DF808EDFFF7D2FF94BF012000205DF808FB00BF2A
S32D0000D2984DF808EDFFF7C8FF34BF012000205DF808FB00BF4FEA4002B2F1FE4F0FD34FF09E03B3EB12620DD901
S32D0000D2C04FEA002343F0004310F0004F23FA02F018BF404270474FF00000704712F1610F01D1420205D110F0AB
S32D0000D2E8004008BF6FF0004070474FF000007047036803B11B181846704700BF03685A004CBF43F0004323F046
S32D0000D3100043C018704700BF2DE9F84F0446914641B301F1FF3BDA46002707EB0A0101EBD1756D1004EBC50613
S32D0000D3383046FFF7E3FF8046681CAB4504EBC0000DD0FFF7DBFF0138C84504D9BD4209D005F1FF3AE5E7484560
S32D0000D36005D26F1CE1E74FF0FF30F1E700263046BDE8F88F0E463046BDE8F88F30B52B4B83B004468D1E002BC3
S32D0000D38849D0284601A9AFF300800346002822D02A4618460199FFF7BBFF054600281DD0FFF7ACFF6B68A064D1
S32D0000D3B0012B10D0281D002B22DBFFF7A3FF0021E06421650368002B0FDBFFF79BFF2061002003B030BD0023DF
S32D0000D3D823610520F9E720610920F6E720610920F3E7C3F3036058B101280CD002280ED0002020610920E8E7CB
S32D0000D4000122E0642265DDE7094B2361E1E7094A00202261DDE7084900202161D9E7074B0749C81AC210019256
S32D0000D428B6E700BF0000000049D9000045D9000041D90000DC760100CC780100036810B50446D80706D49907B5
S32D0000D45004F1480009D500F00DFD23685A0709D518070ED5D90613D510BD00F0FBFC23685A07F5D404F1D000D8
S32D0000D47800F004FD23681807F0D404F5D87000F005FD2368D906EBD404F50C70BDE8104000F040BD2DE9F04727
S32D0000D4A00F1D054691460FCFADF5916D02AC261D0FC60FCF0FC60FCF0FC697E80F00D5F80C80D5F818A00027D3
S32D0000D4C886E80F00216C27602846FFF753FF0646B94514BF4FF00A094FF00909FEB1A16B49F01009616401203C
S32D0000D4F08DE8100449462A462B46C04700282BD1002E2AD1204692A94FF4107207F0E0F9082F28D1216C284660
S32D0000D518FFF730FF06464FF00909002EDFD1206C21464FF41072686192A807F0CDF92F69294692AA4846B847FD
S32D0000D540A09B0746636401208DE8100449462A462B46C0470028D3D00926304622B00DF5806DBDE8F087072FCA
S32D0000D568F6D1201D00F06EFC38B504460D46296C2046FFF7FFFE50B92A6C23696261012021462A4698470828CA
S32D0000D590F1D0072801D009F0C9FA281D00F056FC11B933B10220704704298CBF0220012070470F2A01D902203B
S32D0000D5B8704700EB820118464A68009B1A60704710B50A4684B000210B4603AC0094FFF7E3FF039804B010BD52
S32D0000D5E011B933B10220704704298CBF0220012070470F2A01D902207047009900EB82020968184651607047F9
S32D0000D60810B584B004AB0C4643F8042D0021009322460B46FFF7E0FF04B010BD2DE9F04FCD6C8BB00C4655F863
S32D0000D630041B174600F008021E46039200F003080795002B40F0CF8009020691216D8DF821300323B8F1020F36
S32D0000D6588DF8203008BFA56B11F0010340F0D380019304F158030293D5F80090B9F1000F00F0CB80022E00F086
S32D0000D680AE80B5F80090B5F802A00435A26C0F212AF0010B38469344FFF796FF834518D829F0010CE3440AF046
S32D0000D6A8010A09F00103584543EA4A092CBF00200120B9F1010F12D032D2B8F1000F02D0002840F01D810435AA
S32D0000D6D0CEE70AF0010A09F0010343EA4A090020B9F1010FECD1B8F1000F40F0B680C8B16B68D5F800909A1CE1
S32D0000D6F819D0029A013309920DD0281DFFF7F8FD4FEAD972014609AB204608F075FA002800F0F280099A002A00
S32D0000D72040F0BA800835A3E7B9F1020F03D009200BB0BDE8F08F2B6823F000420092B8F1000F71D1002843D065
S32D0000D7480398002840F0A1800098002800F0A080009BDDF80C90DB0705F1040A40F1B480CDF810800596A8469A
S32D0000D770029E12E000998D4200F0D9800996FFF7BBFD5A46014609AB204608F039FAA946B0B90AF1040A05F178
S32D0000D798010950460996FFF7ABFD09AB01460022204608F029FA0AF1040A834609F101055046BBF1000FD9D01C
S32D0000D7C04546059EDDF81080009A4A4564D02B68002B7BDB0099481C05EB800548E7D5F804A0083552E70B04A0
S32D0000D7E8C1F30740216D06930222B8F1020F05EB800508BFA56B8DF8210011F001038DF820203FF42DAF002028
S32D0000D8100190384606A900F019FC002887D1019A002A43D1082083E70D213846D4F82090FFF7CAFE8145CAD1F5
S32D0000D838A26A9542C7D10098291D00220423A062E26223636163286800286EDB01220192BCE70D213846D4F8BE
S32D0000D8602090FFF7B1FE81457FF45CAFA16A8D427FF458AF2846FFF745FD0F2102463846FFF7C2FE38460021BC
S32D0000D8882246FFF7BDFE07204EE7009900299BD138460D21FFF794FE099B20626362A562062041E70F213846AD
S32D0000D8B0FFF78AFE0E2102463846FFF7A5FE38460F211E4AFFF7A0FE072031E7043581E7029950460991FFF7F3
S32D0000D8D80FFD039A014609AB204608F08DF900287FF46EAFCDF8108005960AF1040A4FF00109A846029E4CE7DF
S32D0000D900CDF824800835B3E62846FFF7FBFC04350646A563204608F0E9F900283FF407AF38460F213246FFF765
S32D0000D9286FFE072000E74546B2E7009B591C05EB81009CE7555E010002236FE601236DE600236BE62DE9F047C8
S32D0000D9500446E8B004290CD8DFE801F0380391930F00150C012B96B200F07881052B00F0C780022068B0BDE8CC
S32D0000D978F087002BF9D1102AF7D82368D90600F1738164A8019200F0CFFA019AA36BD00744BF53F8040B649094
S32D0000D9A0910744BF53F8041B6591500744BF53F8041B6691110748BF53F8042B64A8A36348BF679200F0AAFA64
S32D0000D9C80020D3E7002BD0D1A36BD00791B244BF53F8042B62608A0744BF53F8042BA260480744BF53F8042B48
S32D0000D9F0E2600A0744BF53F8042B2261C80644BF53F8042B62618A0644BF53F8042BA261480644BF53F8042BCD
S32D0000DA18E2610A0644BF53F8042B2262C80544BF53F8042B62628A0544BF53F8042BA262480544BF53F8042BA4
S32D0000DA40E2620A0544BF53F8042B2263C80444BF53F8042B626311F400501CBF53F8042BA2634A0444BF53F80A
S32D0000DA68042BE2630A0444BF53F8042B2264002840D1A3637AE7012078E7032B7FF475AF160C95B2AA19102AC0
S32D0000DA903FF66FAF2368180700F10B8144A800F01BFAA76B4FEA450E3B460DB344A90EF1FF3C01EBC60653F8F4
S32D0000DAB8040B62460CF0010146F8040B92B129B153F8041B013A46F8041B0BD01846314650F8045B41F8045B30
S32D0000DAE05D68031D75600E1D023AF3D107EB8E0344A8A36300F0CEF900203BE7002039E777192022BA42FFF4C4
S32D0000DB0834AF012B00F0A9800F2D40F2A9803746F6B1052B7FF429AF0F2D11D82268D0070ED522F00101052BE4
S32D0000DB302160204600F0DA8022F0030240F8482B019300F093F9019B1FB12268510700F1B880012B00F0BF80F2
S32D0000DB580F2D75D9002F40F0A080D4F83890002EC8462EDD49460DF1080A4FEA46080AEBC50251F8046B08F128
S32D0000DB80FF3000F0010A42F8046BA8F1020CD0B1BAF1000F08D051F8040B0CF1FF3CBCF1FF3F42F8040B0ED048
S32D0000DBA80E46104656F804AB40F804AB4968ACF1020C5160311D021DBCF1FF3FF0D109EB8808A7B3102D2CBF95
S32D0000DBD02E4610260DF5D079414609EBC60CACF5C8724FEA470951F8046B09F1FF3000F0010A42F8046BA9F162
S32D0000DBF8020CD0B1BAF1000F08D051F8040B0CF1FF3CBCF1FF3F42F8040B0ED00E46104656F804AB40F804ABAE
S32D0000DC204968ACF1020C5160311D021DBCF1FF3FF0D108EB8908012B2BD00F2DC4F8388008D9FFB9384695E6C3
S32D0000DC4802A8019300F016F9019B83E702A800F00DF9F2E77719102250E70F2D3FF685AE102F10D9103F54E7A3
S32D0000DC7023F01003236004F50C70019200F058F9019A82E624A800F0FDF8002072E6002746E708F1040302A86A
S32D0000DC98A36300F0E3F8002068E624A80193C5F1100600F0EFF8019B57E723F0080704F5D870276000F00CF963
S32D0000DCC0ECE6204622F0040140F8D01B019300F0DDF8019B3DE702A8019300F0C7F8019B002F3FF43EAFC5F11D
S32D0000DCE810063AE741F0020140F8481B019300F0C1F8019B24E700BF406C7047F0B50D460F1DC96B29640446D3
S32D0000DD100FCFADF5117D01AE0FC60FCF0FC60FCF0FC697E80F0086E80F004FF0FF33009310992046FFF722FBBC
S32D0000DD3858B9266921466A46B04708280646F3D06846FFF77BFB062E03D009200DF5117DF0BD20462946FFF77E
S32D0000DD6007FC00BF10B4DC6BC1608261194600221C6410BCFFF792BB38B54269C3680A6404460D4623B10122EF
S32D0000DD88FFF788FB08F0CEFE0369214602202A469847072803D0082804D008F0C3FE281D00F050F820462946DB
S32D0000DDB0FFF7DEFBC36823B1CA6B0A640022FFF76DBB9FE7704700BF08B5836801460BB10120984708BD00BF69
S32D0000DDD8F0B5D46B171D146405460C460FCFADF5277D01AE0FC60FCF0FC60FCF0FC697E80F0086E80F004FF098
S32D0000DE00FF330093109990A8FFF7B8FA034690AA68460C21BBB9FFF7F7FB21466846A847064690A908206A468B
S32D0000DE286EB9949B98470528064601D00928E5D16846FFF703FB30460DF5277DF0BD0926F6E700BF00F134010A
S32D0000DE5091E838009C46A6464CF8045D90E8FF0FE54600BD90EC210B704700BF80EC210B704700BF90EC200B3F
S32D0000DE78704700BF80EC200B704700BFD0EC200B704700BFC0EC200B704700BFF0EC0201F0EC0211F0EC022182
S32D0000DEA0F0EC0231F0EC0241F0EC0251F0EC0261F0EC0271F0EC0281F0EC0291F0EC02A1F0EC02B1F0EC02C1EE
S32D0000DEC8F0EC02D1F0EC02E1F0EC02F1704700BFE0EC0201E0EC0211E0EC0221E0EC0231E0EC0241E0EC0251AF
S32D0000DEF0E0EC0261E0EC0271E0EC0281E0EC0291E0EC02A1E0EC02B1E0EC02C1E0EC02D1E0EC02E1E0EC02F15E
S32D0000DF18704700BFB0FC0181B0FC0191B0FC01A1B0FC01B1704700BFA0FC0181A0FC0191A0FC01A1A0FC01B1FF
S32D0000DF40704700BFEC4600B52DE900502DE9FF1F4FF000032DE90C0001A9FFF7D3FEDDF840E012B0704700BFBA
S32D0000DF68EC4600B52DE900502DE9FF1F4FF000032DE90C0001A9FFF7FBFEDDF840E012B0704700BFEC4600B5F9
S32D0000DF902DE900502DE9FF1F4FF000032DE90C0001A9FFF707FFDDF840E012B0704700BFEC4600B52DE9005045
S32D0000DFB82DE9FF1F4FF000032DE90C0001ABFFF7CDFEDDF840E012B0704700BFEC4600B52DE900502DE9FF1F88
S32D0000DFE04FF000032DE90C0001AAFFF7F5FEDDF840E012B0704700BF027A03461AB9427A42B9B02070470068B0
S32D0000E008013A01021A72000E196070474168501E587251F8040B0322596001021A72000E1960704710B5002118
S32D0000E03084B00C220DEB02040B460094FFF7B0FA039804B010BD00BFF0E700BF2DE9F043064685B00D464FF010
S32D0000E05800094FF47F672846FFF7CAFFB028044600F0B08010F0800120D000F0F003802B74D0902B37D0A02B29
S32D0000E08045D0B02B56D0C02B00F0858000F0F800D0280BD104F00702511C41F40022304601210523FFF752FCFB
S32D0000E0A80028D8D0092005B0BDE8F0834FEA800203A85FFA82F800900D220B463046FFF76BFA039B600608F16D
S32D0000E0D004084CBFC8EB0303434403AC03930094002130460D220B46FFF77AFAB7E700F00F020D2ADAD00F2AB8
S32D0000E0F8D8D0002103AC009430460B4603ACFFF74BFA0094E8E7C24302F0070C47FA0CF0210700F47F6248BF8F
S32D0000E12042F48042002130460B46FFF70FFC0028BCD194E7B1285DD0B2286ED0B32800F0958000F0FC02B42AF6
S32D0000E14846D000F00702531C43F40022012130460B46FFF7F7FB0028A4D17CE72846FFF747FF210240EA010405
S32D0000E170B4F5004F9AD0230500211A0C30460B462401FFF7E3FB002890D114F4004F18BF4FF0010963E7C628B8
S32D0000E19873D0C72800F0848000F0F802C02A00F09280C82800F0A680C9287FF47BAF2846FFF71EFF00F00F0346
S32D0000E1C000F0F0015A1C42EA013268E7B9F1000F00F0838000206AE700F00301481C022140F480220B463046F7
S32D0000E1E8FFF7B0FB00287FF45DAF34E72846FFF7FFFE024600283FF455AF10F0F0017FF451AF30460B46FFF77D
S32D0000E2109DFB00287FF44AAF21E700210D220B4603AC30460094FFF7BBF92846FFF7E4FE022402060DD5039BB4
S32D0000E23800F07F0000FA04FE03EB0E0128460391FFF7D6FE07340306F1D4039B00F07F0103AA03F5017C01FA50
S32D0000E26004F400920CEB0402039239E72846FFF7C3FE00F00F03591C00F0F00041EA003268E72846FFF7B8FE12
S32D0000E28800F00F03591C00F0F00041EA0032032130460B46FFF756FB00287FF403AFDAE62846FFF7A5FE024626
S32D0000E2B000283FF4FBAE10F0F0037FF4F7AE30460421FFF743FB00287FF4F0AEC7E600F00F01481C40F42022A2
S32D0000E2D8DDE703AC49460E224B4630460094FFF75BF9304649460F224B460094FFF774F94846D8E62846FFF793
S32D0000E3007BFE00F0F00200F00F001032431C43EA0232C4E610B5C26C84B0032054688DF80C00D37924020832A6
S32D0000E328084601A9019402928DF80D30FFF78AFE04B010BD08B5FFF783FE806C08BD00BF08B5FFF77DFEC16CE6
S32D0000E350C87901EB800303F1080008BD08B508F0E5FB00BF08B508F0E1FB00BF80B483B000AF78600B46FB70E0
S32D0000E3787B68FA781A707B68184607F10C07BD4680BC704780B483B000AF78600B46FB707B68FA781A707B68EA
S32D0000E3A0184607F10C07BD4680BC704780B485B000AFF860B9607A603B60FB68BA681A60FB687A685A60FB6891
S32D0000E3C83A689A60FB68BA69DA60FB68184607F11407BD4680BC7047B0B582B000AF786043F20870C1F6FF7010
S32D0000E3F046F6EC41C0F2010103F0AEFD43F20870C1F6FF70796803F06FFE86E043F26470C1F6FF7006F0F2F8BB
S32D0000E41803464FF00102144618467968FEF738FF0346002B02D14FF000031C46E3B2002B2CD043F20870C1F67B
S32D0000E440FF7046F60051C0F2010103F039FE43F24060C1F6FF70534901F0E6FB43F23C60C1F6FF704F4901F0EB
S32D0000E468DFFB4FF0640001F0EFFE43F24060C1F6FF7001F0B5FB43F23C60C1F6FF7001F0AFFB4FF0640001F069
S32D0000E490DFFE42E043F26470C1F6FF7006F0AEF803464FF00102144618467968FEF7D6FE0346002B02D14FF021
S32D0000E4B800031C46E3B2002B2BD043F20870C1F6FF7046F60C51C0F2010103F0F5FD43F24060C1F6FF7032499B
S32D0000E4E001F0A2FB43F23C60C1F6FF702E4901F09BFB4FF0640001F0ABFE43F24060C1F6FF7001F071FB43F2C1
S32D0000E5083C60C1F6FF7001F06BFB4FF0640001F09BFE43F26470C1F6FF7006F06BF8054678682049FEF7EEFBA5
S32D0000E53003464FF00102144628461946FEF78EFE0346002B02D14FF000031C46E3B2002B1BD143F26470C1F633
S32D0000E558FF7006F04FF8054678681249FEF7D4FB03464FF00102144628461946FEF790FE0346002B02D14FF0E4
S32D0000E58000031C46E3B2002B02D04FF0010301E04FF00003002B7FF439AF07F10807BD46B0BD00BF000020C272
S32D0000E5A8000020420000803FB0B582B000AF786043F20870C1F6FF7046F6EC41C0F2010103F0C6FC43F20870B4
S32D0000E5D0C1F6FF70796803F087FD86E043F26470C1F6FF7006F00AF803464FF00102144618467968FEF750FEAB
S32D0000E5F80346002B02D14FF000031C46E3B2002B2CD043F20870C1F6FF7046F60051C0F2010103F051FD43F2C4
S32D0000E6204060C1F6FF70534901F0FEFA43F23C60C1F6FF704F4901F0F7FA4FF0640001F007FE43F24060C1F6EB
S32D0000E648FF7001F0CDFA43F23C60C1F6FF7001F0C7FA4FF0640001F0F7FD42E043F26470C1F6FF7005F0C6FF41
S32D0000E67003464FF00102144618467968FEF7EEFD0346002B02D14FF000031C46E3B2002B2BD043F20870C1F66E
S32D0000E698FF7046F60C51C0F2010103F00DFD43F24060C1F6FF70324901F0BAFA43F23C60C1F6FF702E4901F021
S32D0000E6C0B3FA4FF0640001F0C3FD43F24060C1F6FF7001F089FA43F23C60C1F6FF7001F083FA4FF0640001F0C3
S32D0000E6E8B3FD43F26470C1F6FF7005F083FF054678682049FEF706FB03464FF00102144628461946FEF7A6FDDA
S32D0000E7100346002B02D14FF000031C46E3B2002B1BD143F26470C1F6FF7005F067FF054678681249FEF7ECFA59
S32D0000E73803464FF00102144628461946FEF7A8FD0346002B02D14FF000031C46E3B2002B02D04FF0010301E0C6
S32D0000E7604FF00003002B7FF439AF07F10807BD46B0BD00BF00002042000020C20000803FB0B582B000AF78606C
S32D0000E78843F20870C1F6FF7046F61851C0F2010103F0DEFB43F20870C1F6FF70796803F09FFC86E043F26470BA
S32D0000E7B0C1F6FF7005F032FF03464FF00102144618467968FEF768FD0346002B02D14FF000031C46E3B2002BC6
S32D0000E7D82CD043F20870C1F6FF7046F60051C0F2010103F069FC43F24060C1F6FF70534901F016FA43F23C6042
S32D0000E800C1F6FF704F4901F00FFA4FF0640001F01FFD43F24060C1F6FF7001F0E5F943F23C60C1F6FF7001F0D0
S32D0000E828DFF94FF0640001F00FFD42E043F26470C1F6FF7005F0EEFE03464FF00102144618467968FEF706FDFC
S32D0000E8500346002B02D14FF000031C46E3B2002B2BD043F20870C1F6FF7046F60C51C0F2010103F025FC43F28B
S32D0000E8784060C1F6FF70324901F0D2F943F23C60C1F6FF702E4901F0CBF94FF0640001F0DBFC43F24060C1F65B
S32D0000E8A0FF7001F0A1F943F23C60C1F6FF7001F09BF94FF0640001F0CBFC43F26470C1F6FF7005F0ABFE054661
S32D0000E8C878682049FEF71EFA03464FF00102144628461946FEF7BEFC0346002B02D14FF000031C46E3B2002BC0
S32D0000E8F01BD143F26470C1F6FF7005F08FFE054678681249FEF704FA03464FF00102144628461946FEF7C0FC81
S32D0000E9180346002B02D14FF000031C46E3B2002B02D04FF0010301E04FF00003002B7FF439AF07F10807BD465E
S32D0000E940B0BD00BF00002042000020C20000803FB0B582B000AF786043F20870C1F6FF7046F61851C0F2010130
S32D0000E96803F0F6FA43F20870C1F6FF70796803F0B7FB86E043F26470C1F6FF7005F04AFE03464FF0010214468E
S32D0000E99018467968FEF780FC0346002B02D14FF000031C46E3B2002B2CD043F20870C1F6FF7046F60051C0F2F0
S32D0000E9B8010103F081FB43F24060C1F6FF70534901F02EF943F23C60C1F6FF704F4901F027F94FF0640001F0DD
S32D0000E9E037FC43F24060C1F6FF7001F0FDF843F23C60C1F6FF7001F0F7F84FF0640001F027FC42E043F264703C
S32D0000EA08C1F6FF7005F006FE03464FF00102144618467968FEF71EFC0346002B02D14FF000031C46E3B2002BE3
S32D0000EA302BD043F20870C1F6FF7046F60C51C0F2010103F03DFB43F24060C1F6FF70324901F0EAF843F23C6058
S32D0000EA58C1F6FF702E4901F0E3F84FF0640001F0F3FB43F24060C1F6FF7001F0B9F843F23C60C1F6FF7001F020
S32D0000EA80B3F84FF0640001F0E3FB43F26470C1F6FF7005F0C3FD054678682049FEF736F903464FF001021446CA
S32D0000EAA828461946FEF7D6FB0346002B02D14FF000031C46E3B2002B1BD143F26470C1F6FF7005F0A7FD054603
S32D0000EAD078681249FEF71CF903464FF00102144628461946FEF7D8FB0346002B02D14FF000031C46E3B2002BAE
S32D0000EAF802D04FF0010301E04FF00003002B7FF439AF07F10807BD46B0BD00BF000020C2000020420000803FF9
S32D0000EB20F0B587B000AF7860396043F20870C1F6FF7046F62C51C0F2010103F00DFA43F20870C1F6FF7039681D
S32D0000EB4803F0CEFA38689E49FEF77AFB0346002B35D16BE043F26470C1F6FF7005F06AFD03464FF001021446BE
S32D0000EB7018469649FEF786FB0346002B02D14FF000031C46E3B2002B0ED007F1080318464FF00001FFF7EAFBBF
S32D0000EB987868397A8C4A4FF0030300F051FD0FE007F10C0318464FF00101FFF7DBFB7868397B854A4FF003035A
S32D0000EBC000F042FD00E000BF43F26470C1F6FF7005F034FD03464FF00102144618467D49FEF73CFB0346002B5B
S32D0000EBE802D14FF000031C46E3B2002B16D143F26470C1F6FF7005F01DFD03464FF00102144618467249FEF7B0
S32D0000EC1043FB0346002B02D14FF000031C46E3B2002B02D04FF0010301E04FF00003002B94D163E062E043F26B
S32D0000EC386470C1F6FF7005F0FDFC03464FF00102144618463968FEF723FB0346002B02D14FF000031C46E3B24F
S32D0000EC60002B18D043F20870C1F6FF7046F64051C0F2010103F024FA07F1100318464FF00101FFF773FB786820
S32D0000EC88397C544A4FF0030300F0DAFC2EE043F26470C1F6FF7005F0CDFC03464FF00102144618463968FEF72C
S32D0000ECB0D5FA0346002B02D14FF000031C46E3B2002B17D043F20870C1F6FF7046F65851C0F2010103F0F4F989
S32D0000ECD807F1140318464FF00001FFF743FB7868397D3C4A4FF0030300F0AAFC4FF4FA7001F0AAFA43F26470EB
S32D0000ED00C1F6FF7005F09AFC03461846FDF7E4FC04460D463868FDF7DFFC02460B46104619464FF000024FF0DF
S32D0000ED287E5303F5C003FDF773FB02460B464FF001010E4620462946FDF790FF0346002B02D14FF000031E465C
S32D0000ED50F3B2002B2CD143F26470C1F6FF7005F06DFC03461846FDF7B7FC04460D463868FDF7B2FC02460B4675
S32D0000ED78104619464FF000024FF07E5303F5C003FDF748FB02460B464FF001010E4620462946FDF781FF0346B5
S32D0000EDA0002B02D14FF000031E46F3B2002B02D04FF0010301E04FF00003002B7FF43BAF07F11C07BD46F0BD46
S32D0000EDC8000000000000344300002041000000400000B3430000A04180B500AF43F24060C1F6FF70154900F001
S32D0000EDF01BFF43F23C60C1F6FF70124900F014FF4FF0640001F024FA43F24460C1F6FF700D4900F009FF40F651
S32D0000EE18B83001F019FA43F24460C1F6FF7000F0DFFE43F24060C1F6FF7000F0D9FE43F23C60C1F6FF7000F06B
S32D0000EE40D3FE80BD00000C420000484280B500AF43F24060C1F6FF70154900F0E5FE43F23C60C1F6FF7012495C
S32D0000EE6800F0DEFE4FF0640001F0EEF943F24460C1F6FF700D4900F0D3FE40F6B83001F0E3F943F24460C1F6A4
S32D0000EE90FF7000F0A9FE43F24060C1F6FF7000F0A3FE43F23C60C1F6FF7000F09DFE80BD00000C42000048C2AB
S32D0000EEB880B582B000AF786043F26470C1F6FF7005F020FB0346012B14BF00230123DBB2002B21D043F26470BE
S32D0000EEE0C1F6FF7005F026FB0346022B14BF00230123DBB2002B02D0FFF772FF85E043F26470C1F6FF7005F0BE
S32D0000EF0829FB0346022B14BF00230123DBB2002B77D0FFF797FF74E043F26470C1F6FF7005F004FB0346012BB0
S32D0000EF3014BF00230123DBB2002B2CD07868354900F072FE4FF0FA0001F082F9786800F04BFE43F26470C1F6A9
S32D0000EF58FF7005F0D7FA0346022B14BF00230123DBB2002B02D0FFF737FF4AE043F26470C1F6FF7005F0EEFADA
S32D0000EF800346022B14BF00230123DBB2002B3CD0FFF75CFF39E043F26470C1F6FF7005F0DDFA0346012B14BF62
S32D0000EFA800230123DBB2002B2BD07868184900F037FE4FF0FA0001F047F9786800F010FE43F26470C1F6FF7064
S32D0000EFD005F0B0FA0346022B14BF00230123DBB2002B02D0FFF7FCFE0FE043F26470C1F6FF7005F08BFA034689
S32D0000EFF8022B14BF00230123DBB2002B01D0FFF721FF07F10807BD4680BD00BF00004842000048C290B58FB0E7
S32D0000F02002AF43F20870C1F6FF704FF0000102F0E1FE43F20870C1F6FF704FF0010102F037FF43F20870C1F68D
S32D0000F048FF7046F66851C0F2010103F035F84FF0100006F0CBFC044643F23063C1F6FF730093204643F23C6150
S32D0000F070C1F6FF7143F24062C1F6FF7243F22C63C1F6FF73FFF792F9FC6243F20870C1F6FF7046F67851C0F2F6
S32D0000F098010103F011F800BF43F22860C1F6FF7002F048F9034683F00103DBB2002BF3D143F22860C1F6FF7058
S32D0000F0C002F03CF90346002BF6D143F26470C1F6FF7004F0A5FC3B4618464FF00001FFF755F9F86A3978B84A84
S32D0000F0E8B84B00F085FA43F20870C1F6FF7046F68C51C0F2010102F02BFF43F26470C1F6FF7005F097FA0346CE
S32D0000F11043F20870C1F6FF70194602F0E5FF4FF47A7001F095F8AA48FFF72AFB07F1040318464FF00001FFF77E
S32D0000F13819F9F86A3979A24A00F0FCFA43F20870C1F6FF7046F68C51C0F2010102F000FF43F26470C1F6FF70F1
S32D0000F16005F06CFA034643F20870C1F6FF70194602F0BAFF4FF47A7001F06AF8F86A9549FFF7CEFC07F108037D
S32D0000F18818464FF00001FFF7FDF8F86A397A8C4A8F4B00F02DFA43F20870C1F6FF7046F68C51C0F2010102F062
S32D0000F1B0D3FE43F26470C1F6FF7005F03FFA034643F20870C1F6FF70194602F08DFF4FF47A7001F03DF88148EE
S32D0000F1D8FFF702F907F10C0318464FF00001FFF7C1F8F86A397B764A00F0A4FA43F20870C1F6FF7046F68C5174
S32D0000F200C0F2010102F0A8FE43F26470C1F6FF7005F014FA034643F20870C1F6FF70194602F062FF4FF47A7067
S32D0000F22801F012F8F86A6C49FFF776FC07F1100318464FF00001FFF7A5F8F86A397C604A664B00F0D5F943F29D
S32D0000F2500870C1F6FF7046F68C51C0F2010102F07BFE43F26470C1F6FF7005F0E7F9034643F20870C1F6FF709A
S32D0000F278194602F035FF4FF47A7000F0E5FFF86A5749FFF749FC07F1140318464FF00001FFF778F8F86A397D7A
S32D0000F2A0524A534B00F0A8F94FF47A7000F0D0FFF86A5049FFF734FC4F48FFF749FB4FF47A7000F0C5FF07F1BE
S32D0000F2C8180318464FF00001FFF74CF8F86A397E3B4A00F02FFAF86A4649FFF71DFC4FF47A7000F0B1FF07F1A9
S32D0000F2F01C0318464FF00001FFF748F8F86A397F314A3F4B00F078F93E48FFF751F94FF47A7000F09DFF07F106
S32D0000F318200318464FF00101FFF724F8F86A97F82010274A4FF0370300F08AF9F86A3449FFF7F2FB4FF47A7086
S32D0000F34000F086FF07F1240318464FF00001FFF71DF8F86A97F824102C4A2D4B00F04CF9F86A2949FFF7DCFB79
S32D0000F3684FF47A7000F070FF07F1280318464FF00001FFF707F8F86A97F82810214A234B00F036F9F86A1E494B
S32D0000F390FFF7C6FB43F24460C1F6FF70FFF78CFD43F20870C1F6FF7046F69851C0F2010102F086FEF86A06F0A0
S32D0000F3B843FB4FF00003184607F13407BD4690BD00002042000060411B2F7B410000B442000020410000024222
S32D0000F3E0000033430000804000003243000070420000A041000034430000604200008743000040410000A84174
S32D0000F40800006643000048420000A0400000803F80B582B000AF786039607B68012B44D13A684FF6FF739A4224
S32D0000F4303FD143F22860C1F6FF704FF0030101F0E5FE43F22C60C1F6FF704FF0000101F00FF943F23060C1F608
S32D0000F458FF704FF0010101F007F943F23460C1F6FF704FF0020101F0DFFC43F23860C1F6FF704FF0030100F0C2
S32D0000F48023FF43F23C60C1F6FF704FF0000100F097FB43F24060C1F6FF704FF0010100F08FFB43F24460C1F63D
S32D0000F4A8FF704FF0020100F087FB07F10807BD4680BD00BF80B500AF4FF001004FF6FF71FFF7A6FF80BD00BF9D
S32D0000F4D080B483B000AF78607B681B78184607F10C07BD4680BC704780B483B000AF78607B681B78184607F191
S32D0000F4F80C07BD4680BC7047F0B585B000AFF86039727A603B60F86800F026F907F108031846FFF7E5FF0346E9
S32D0000F520002B02D0012B0DD01FE0FB681B681846796800F079FBFB685B681846796800F073FB13E0FB681A6894
S32D0000F5487B6883F000431046194600F069FBFB685A687B6883F000431046194600F060FB00E000BF00BFFB6874
S32D0000F5709B68184601F034FC0446FB68DB68184601F02EFC0346E3181846FDF793F802460B46104619464FF0D4
S32D0000F59800024FF07E5303F5C003FDF7EDF802460B4614461D463868FDF780F802460B464FF001010E462046A9
S32D0000F5C02946FDF74FFB0346002B02D14FF000031E46F3B2002BCAD1FB681B68184600F003FBFB685B68184662
S32D0000F5E800F0FEFA07F11407BD46F0BD0000000080B584B000AFF86039727A603B603868FDF766F802460B462F
S32D0000F610104619460AA3D3E90023FDF7B1F802460B4610461946FDF745FB0346F868397A7A68FFF765FF07F1DC
S32D0000F6381007BD4680BD00BF1F85EB51B8DE4040F0B585B000AFF86039727A603B60F86800F082F807F10803CA
S32D0000F6601846FFF735FF0346002B02D0012B10D01FE0FB681A687B6883F000431046194600F0D2FAFB685B688E
S32D0000F6881846796800F0CCFA10E0FB681B681846796800F0C5FAFB685A687B6883F000431046194600F0BCFA82
S32D0000F6B000E000BF00BFFB689B68184601F090FB0446FB68DB68184601F08AFB0346E3181846FCF7EFFF0246FF
S32D0000F6D80B46104619464FF000024FF07E5303F5C003FDF749F802460B4614461D463868FCF7DCFF02460B4660
S32D0000F7004FF001010E4620462946FDF7ABFA0346002B02D14FF000031E46F3B2002BCAD1FB681B68184600F04C
S32D0000F7285FFAFB685B68184600F05AFA07F11407BD46F0BD80B584B000AFF86039727A60F868397A7A684FF0A6
S32D0000F750CC03FFF779FF07F11007BD4680BD00BF80B582B000AF78607B689B68184601F04BFB7B68DB68184653
S32D0000F77801F046FB07F10807BD4680BD80B500AF43F6D872C1F6FF7243F22863C1F6FF73D31A194643F2286366
S32D0000F7A0C1F6FF731A460B4610464FF000011A4605F097F880BD00BF06F000F900F0B0F9FFF7E0FF06F0D2F8CE
S32D0000F7C806F06EF806F006F900F00CF84FF0000043F24861C1F6FF71FFF71CFC0346184605F056F880B500AFAE
S32D0000F7F04FF4E043C4F204034FF4E042C4F2040202F5805202F13802126842F4785203F5805303F138031A60C3
S32D0000F81800F02EF900F094F843F25463C1F6FF734FF058021A6043F25463C1F6FF731B684FF47A7202FB03F24E
S32D0000F84043F25063C1F6FF731A6043F25063C1F6FF731B681A464FF4E043C4F2040303F5825303F104031B68AD
S32D0000F86803F070634FEA136303F10103B2FBF3F31A4643F25863C1F6FF731A604FF4E043C4F204034FF4E042F7
S32D0000F890C4F2040202F5805202F13C02126842F0225203F5805303F13C031A604FF4E043C4F204034FF4E04274
S32D0000F8B8C4F2040202F5805202F13002126842F0006203F5805303F130031A604FF45043C4F203034FF4807237
S32D0000F8E01A614FF0640000F047FB4FF45043C4F203034FF45042C4F20302526922F010025A614FF45043C4F262
S32D0000F90803034FF000021A604FF45043C4F203034FF010025A6101F009FB01F0B1FB43F24C60C1F6FF7000F0E9
S32D0000F930A7FB43F20870C1F6FF7002F043F941F2883000F085FC80BD80B400AF4FF48043C4F206034FF0000284
S32D0000F9585A704FF48043C4F206034FF098021A704FF48043C4F206039B79DBB203F01003002B0CBF00230123E6
S32D0000F980DBB2002BF0D14FF48043C4F206039B79DBB203F00C034FEA9303022B0CBF00230123DBB2002BEED1F3
S32D0000F9A84FF48043C4F206034FF018021A714FF48043C4F206034FF000025A714FF4E043C4F2040303F58253C7
S32D0000F9D003F104034FF00002C0F213121A604FF48043C4F206034FF054025A7100BF4FF48043C4F206039B79BF
S32D0000F9F8DBB203F02003002B14BF00230123DBB2002BF0D100BF4FF48043C4F206039B79DBB203F04003002BFA
S32D0000FA2014BF00230123DBB2002BF0D14FF48043C4F206034FF48042C4F206021278D2B202F03F02D2B21A704E
S32D0000FA484FF48043C4F206039B79DBB203F00C034FEA9303032B0CBF00230123DBB2002BEED14FF00003184602
S32D0000FA70BD4680BC704700BF80B400AF4FF44043C4F204034FF480725A634FF2C003C4F20F034FF2C002C4F2D6
S32D0000FA980F02526942F400525A614FF2C003C4F20F034FF2C002C4F20F02126842F400521A604FF44043C4F2A3
S32D0000FAC0040340F20312C0F20A021A634FF46143CEF200034FF46142CEF20002D2F8882142F08062C3F8882152
S32D0000FAE84FF46143CEF200034FF46142CEF20002926842F080629A60BD4680BC704700BF80B483B000AF7860F3
S32D0000FB10FEE700BF80B400AF00BEBD4680BC704780B400AF4FF0E0224CF20003C0F20003C2F8083D4FF40053DD
S32D0000FB38C4F205034CF22052DA814FF40053C4F205034DF62812DA814FF40053C4F205034FF0D2021A80BD46A6
S32D0000FB6080BC704780B400AF4FF44043C4F20403D3F8A03003F48053002B0CBF00230123DBB2002B19D04FF498
S32D0000FB884043C4F204034FF44042C4F20402D2F8A02022F48052C3F8A0204FF2C003C4F20F034FF2C002C4F21C
S32D0000FBB00F02126822F400521A60BD4680BC704780B483B000AF78600B46FB707B68FA781A707B684FF0000217
S32D0000FBD85A707B68184607F10C07BD4680BC704780B582B000AF78607B685B78002B10D07B684FF000025A7056
S32D0000FC007B681B7843F24C60C1F6FF7019464FF000024FF01E0300F07DFA07F10807BD4680BD00BF00000000EC
S32D0000FC2890B585B000AF786039604FF001031C4638682F49FDF70EFB0346002B02D14FF000031C46E3B2002BAF
S32D0000FC5002D0294B3B6011E04FF001031C4638682649FDF719FB0346002B02D14FF000031C46E3B2002B01D07C
S32D0000FC78204B3B603868FCF72BFD02460B46104619464FF000024FF0804303F5B203FCF79DFE02460B461046E2
S32D0000FCA0194613A3D3E90023FCF76AFD02460B4610461946FCF7FEFF0346FB737B685B78FA7B9A420FD07B682A
S32D0000FCC8FA7B5A707B681A78FB7B43F24C60C1F6FF7011461A464FF01E0300F017FA07F11407BD4690BD00BFA3
S32D0000FCF00000000000C05F400000C8C20000C84290B486B000AFF860B9607A60FA684FF42043C4F206039A42DC
S32D0000FD1814D14FF4E043C4F204034FF4E042C4F2040202F5805202F13402126842F4806203F5805303F134031A
S32D0000FD401A6083E0FA684FF43043C4F206039A4214D14FF4E043C4F204034FF4E042C4F2040202F5805202F120
S32D0000FD683402126842F4006203F5805303F134031A6067E0FA684FF44043C4F206039A4214D14FF4E043C4F2AA
S32D0000FD9004034FF4E042C4F2040202F5805202F13402126842F4805203F5805303F134031A604BE0FA684FF469
S32D0000FDB85043C4F206039A4214D14FF4E043C4F204034FF4E042C4F2040202F5805202F13402126842F40052D2
S32D0000FDE003F5805303F134031A602FE0FA684FF42043C4F20E039A4214D14FF4E043C4F204034FF4E042C4F2A8
S32D0000FE08040202F5805202F12802126842F4806203F5805303F128031A6013E04FF4E043C4F204034FF4E0426F
S32D0000FE30C4F2040202F5805202F12802126842F4006203F5805303F128031A60FB68DB78DBB223F00C03DAB29B
S32D0000FE58FB68DA70FB684FF000029A70BB684FF47A7202FB03F27B684FEA031392FBF3F39CB2FB681B78DBB267
S32D0000FE8023F01F03FB75234603F4F8534FEA2323DBB203F01F03DAB2FB7D1343DAB2FB681A70E2B2FB685A704F
S32D0000FEA8BB684FF4FA4202FB03F27B684FEA031392FBF3F39AB2234619464FEAC121CB1A4FEA43139BB2D31818
S32D0000FED09CB2FB689B7ADBB223F01F03FB75E3B203F01F03DAB2FB7D1343DAB2FB689A72FB68DB78DBB243F097
S32D0000FEF80C03DAB2FB68DA7007F11807BD4690BC704700BF80B483B000AF786000BF7B681B79DBB203F02003F1
S32D0000FF20002B14BF00230123DBB2002BF3D17B68DB79DBB2184607F10C07BD4680BC704780B483B000AF7860E1
S32D0000FF480B46FB7000BF7B681B79DBB2DBB26FEA0303DBB24FEAD313DBB2002BF3D17B68FA78DA7107F10C074D
S32D0000FF70BD4680BC704700BF80B483B000AF78604FF4E043C4F204034FF4E042C4F2040202F5805202F1380286
S32D0000FF98126842F0010203F5805303F138031A604FF00003C4F204037A689A604FF00003C4F204034FF00502F8
S32D0000FFC05A604FF00003C4F204034FF00002C4F20402126842F001021A6000BF4FF00003C4F204031B6803F000
S32D0000FFE88003002B14BF00230123DBB2002BF1D14FF00003C4F204034FF00002C4F20402126822F001021A60A4
S32D0001001007F10C07BD4680BC704700BF80B582B000AF786039607B68012B0AD13A684FF6FF739A4205D143F250
S32D000100384C60C1F6FF7000F00FF807F10807BD4680BD00BF80B500AF4FF001004FF6FF71FFF7E0FF80BD00BF20
S32D0001006080B483B000AF78607B684FF000021A707B68184607F10C07BD4680BC704700BF80B582B000AF7860E6
S32D000100887B681B7883F00103DBB2002B36D04FF4E043C4F2040303F5805303F128034FF400621A604FF450439C
S32D000100B0C4F204034FF440721A624FF45043C4F204034FF440725A6243F25063C1F6FF731B684FEAD372D318B2
S32D000100D84FEA63034FF43040C4F20E0019464FF46142FFF709FE4FF0640000F0ADF87B684FF001021A704FF07B
S32D00010100010301E04FF00003184607F10807BD4680BD00BF80B582B000AF7860F970BA707B704FF43040C4F270
S32D000101280E004FF07F01FFF707FF4FF43040C4F20E004FF00801FFF7FFFEFB784FF43040C4F20E001946FFF7EE
S32D00010150F7FEBB784FF43040C4F20E001946FFF7EFFE7B784FF43040C4F20E001946FFF7E7FE4FF43040C4F292
S32D000101780E004FF0FF01FFF7DFFE07F10807BD4680BD00BF80B487B000AFF860B9607A60FA6844F6D353C1F258
S32D000101A06203A3FB02134FEA9312BB68D3187B61FA6844F6D353C1F26203A3FB02134FEA93134FF47A7101FBBA
S32D000101C803F3D31AFB60FB684FEAC33244F6D353C1F26203A3FB02134FEA93127B68D3183B613B694FEAD333E3
S32D000101F07A69D3187B613B694FEA43434FEA53433B614FF45043C4F203031B681A467B699A4211D34FF4504379
S32D00010218C4F203031B681A467B699A420BD14FF45043C4F203035B681A463B699A4202D24FF0010301E04FF010
S32D000102400003002BDDD107F11C07BD4680BC704780B584B000AF78604FF45043C4F203031B68FB604FF450436C
S32D00010268C4F203035B68BB607B681846F968BA68FFF788FF07F11007BD4680BD80B483B000AF4FF45043C4F29B
S32D0001029003031B684FF47A7202FB03F37B604FF45043C4F203035B684FF47A7202FB03F34FEAD3337A68D31836
S32D000102B87B607B68184607F10C07BD4680BC704780B582B000AF78600B46FB70FB787868194600F013F87B68C0
S32D000102E0184607F10807BD4680BD00BF80B483B000AF78607B68184607F10C07BD4680BC704700BF80B483B035
S32D0001030800AF78600B46FB707B68FA781A707B681B781A4646F6E473C0F201039B5C042B00F2F98001A252F807
S32D0001033023F000BF49030100A70301000504010063040100C10401004FF41043C4F204037A681278114647F24D
S32D000103582802C0F2010252F8212040F2031143F822104FF47043C4F20F034FF47042C4F20F02526911467A68EB
S32D000103801278104647F22802C0F2010252F8202002F01F024FF0010000FA02F26FEA02020A405A61BBE04FF44B
S32D000103A82043C4F204037A681278114647F22802C0F2010252F8212040F2031143F822104FF24003C4F20F03A1
S32D000103D04FF24002C4F20F02526911467A681278104647F22802C0F2010252F8202002F01F024FF0010000FAF1
S32D000103F802F26FEA02020A405A618CE04FF43043C4F204037A681278114647F22802C0F2010252F8212040F209
S32D00010420031143F822104FF28003C4F20F034FF28002C4F20F02526911467A681278104647F22802C0F201022A
S32D0001044852F8202002F01F024FF0010000FA02F26FEA02020A405A615DE04FF44043C4F204037A6812781146D5
S32D0001047047F22802C0F2010252F8212040F2031143F822104FF2C003C4F20F034FF2C002C4F20F02526911465F
S32D000104987A681278104647F22802C0F2010252F8202002F01F024FF0010000FA02F26FEA02020A405A612EE020
S32D000104C04FF45043C4F204037A681278114647F22802C0F2010252F8212040F2031143F822104FF47143C4F2B4
S32D000104E80F034FF47142C4F20F02526911467A681278104647F22802C0F2010252F8202002F01F024FF001004D
S32D0001051000FA02F26FEA02020A405A6100BF07F10C07BD4680BC704780B485B000AF78604FF00003FB607B683C
S32D000105381B781A4646F6E473C0F201039B5C042B00F2868001A252F823F000BF6905010099050100C90501009E
S32D00010560F9050100290601004FF47043C4F20F031B691A467B681B78194647F22803C0F2010353F8213003F01D
S32D000105881F034FF0010101FA03F31340FB605FE04FF24003C4F20F031B691A467B681B78194647F22803C0F2E8
S32D000105B0010353F8213003F01F034FF0010101FA03F31340FB6047E04FF28003C4F20F031B691A467B681B787A
S32D000105D8194647F22803C0F2010353F8213003F01F034FF0010101FA03F31340FB602FE04FF2C003C4F20F030F
S32D000106001B691A467B681B78194647F22803C0F2010353F8213003F01F034FF0010101FA03F31340FB6017E070
S32D000106284FF47143C4F20F031B691A467B681B78194647F22803C0F2010353F8213003F01F034FF0010101FA24
S32D0001065003F31340FB6000BFFB68002B0CBF00230123DBB2184607F11407BD4680BC704780B584B000AF786094
S32D000106780B46FB704FF00B03FB73FA78FB7B786811461A4600F0ECF87B68184607F11007BD4680BD80B485B090
S32D000106A000AF78607B68A3F11003002B01DA03F11F034FEA6313FB60FB68012B48D0022B00F08980002B40F0CC
S32D000106C8C9804FF46142CEF200024FF46143CEF20003D3F8803119467B68A3F110004FF01F03C8F200030340A5
S32D000106F0002B05DA03F1FF3363F01F0303F101034FF0010000FA03F30B43C2F880314FF46142CEF200024FF46A
S32D000107186143CEF200031B6819467B68A3F110004FF01F03C8F200030340002B05DA03F1FF3363F01F0303F1E8
S32D0001074001034FF0010000FA03F30B43136085E04FF46142CEF200024FF46143CEF20003D3F8843119467B681C
S32D00010768A3F110004FF01F03C8F200030340002B05DA03F1FF3363F01F0303F101034FF0010000FA03F30B4342
S32D00010790C2F884314FF46142CEF200024FF46143CEF200035B6819467B68A3F110004FF01F03C8F2000303406F
S32D000107B8002B05DA03F1FF3363F01F0303F101034FF0010000FA03F30B43536042E04FF46142CEF200024FF437
S32D000107E06143CEF20003D3F8883119467B68A3F110004FF01F03C8F200030340002B05DA03F1FF3363F01F0313
S32D0001080803F101034FF0010000FA03F30B43C2F888314FF46142CEF200024FF46143CEF200039B6819467B6841
S32D00010830A3F110004FF01F03C8F200030340002B05DA03F1FF3363F01F0303F101034FF0010000FA03F30B4379
S32D00010858936000BF07F11407BD4680BC704700BF80B584B000AF786013460A46FA70BB707B68FA781A70BB78B7
S32D00010880FB737B681B781A4646F6E473C0F201039B5C042B00F2F68001A252F823F000BFB5080100290901007E
S32D000108A89D090100850A0100110A01004FF41043C4F204037A681278114647F22802C0F2010252F82110FA7BB0
S32D000108D04FEA024202F4702242F4887242F0030243F821204FF47043C4F20F034FF47042C4F20F025269114685
S32D000108F87A681278104647F22802C0F2010252F8202002F01F024FF0010000FA02F26FEA02020A405A614FF08B
S32D000109206700FFF7BBFEADE04FF42043C4F204037A681278114647F22802C0F2010252F82110FA7B4FEA02425A
S32D0001094802F4702242F4887242F0030243F821204FF24003C4F20F034FF24002C4F20F02526911467A68127801
S32D00010970104647F22802C0F2010252F8202002F01F024FF0010000FA02F26FEA02020A405A614FF06800FFF720
S32D0001099881FE73E04FF43043C4F204037A681278114647F22802C0F2010252F82110FA7B4FEA024202F470221B
S32D000109C042F4887242F0030243F821204FF28003C4F20F034FF28002C4F20F02526911467A681278104647F202
S32D000109E82802C0F2010252F8202002F01F024FF0010000FA02F26FEA02020A405A614FF06900FFF747FE39E0D8
S32D00010A104FF45043C4F204037A681278114647F22802C0F2010252F82110FA7B4FEA024202F4702242F4887224
S32D00010A3842F0030243F821204FF47143C4F20F034FF47142C4F20F02526911467A681278104647F22802C0F277
S32D00010A60010252F8202002F01F024FF0010000FA02F26FEA02020A405A614FF06B00FFF70DFE00BF07F11007BE
S32D00010A88BD4680BDB0B48BB000AF46F6A053C0F2010307F104041D460FCD0FC495E80F0084E80F004FF0000371
S32D00010AB07B6248E04FF42043C4F20403D3F8A0301A467B6A4FEA830307F12800C31853F8243C4FF0010101FA2E
S32D00010AD803F31340002B0CBF00230123DBB2002B29D043F27C63C1F6FF737A6A53F8223003F1010143F27C63F0
S32D00010B00C1F6FF737A6A43F822104FF42043C4F204034FF42042C4F20402D2F8A02011467A6A4FEA820207F10E
S32D00010B282800821852F8242C4FF0010000FA02F20A40C3F8A0207B6A03F101037B627B6A072BCCBF00230123AC
S32D00010B50DBB2002BAED107F12C07BD46B0BC7047B0B489B000AF46F6C053C0F2010307F104041D460FCD0FC48B
S32D00010B7895E8030084E803004FF00003FB6149E04FF43043C4F20403D3F8A0301A46FB694FEA830307F12000EF
S32D00010BA0C31853F81C3C4FF0010101FA03F31340002B0CBF00230123DBB2002B2AD0FB6903F1080243F27C63BE
S32D00010BC8C1F6FF7353F8223003F1010143F27C63C1F6FF7343F822104FF43043C4F204034FF43042C4F20402B4
S32D00010BF0D2F8A0201146FA694FEA820207F12000821852F81C2C4FF0010000FA02F20A40C3F8A020FB6903F146
S32D00010C180103FB61FB69052BCCBF00230123DBB2002BADD107F12407BD46B0BC704700BFB0B48DB000AF46F61D
S32D00010C40D853C0F201033C461D460FCD0FC40FCD0FC495E8070084E807004FF00003FB6249E04FF41043C4F256
S32D00010C680403D3F8A0301A46FB6A4FEA830307F13000C31853F8303C4FF0010101FA03F31340002B0CBF0023DF
S32D00010C900123DBB2002B2AD0FB6A03F10E0243F27C63C1F6FF7353F8223003F1010143F27C63C1F6FF7343F8AE
S32D00010CB822104FF41043C4F204034FF41042C4F20402D2F8A0201146FA6A4FEA820207F13000821852F8302CCD
S32D00010CE04FF0010000FA02F20A40C3F8A020FB6A03F10103FB62FB6A092BCCBF00230123DBB2002BADD107F19F
S32D00010D083407BD46B0BC7047B0B487B000AF46F60463C0F201033C461D460FCD0FC42B6823604FF000037B61F0
S32D00010D3049E04FF45043C4F20403D3F8A0301A467B694FEA830307F11800C31853F8183C4FF0010101FA03F37E
S32D00010D581340002B0CBF00230123DBB2002B2AD07B6903F1180243F27C63C1F6FF7353F8223003F1010143F233
S32D00010D807C63C1F6FF7343F822104FF45043C4F204034FF45042C4F20402D2F8A02011467A694FEA820207F132
S32D00010DA81800821852F8182C4FF0010000FA02F20A40C3F8A0207B6903F101037B617B69042BCCBF002301234C
S32D00010DD0DBB2002BADD107F11C07BD46B0BC704780B483B000AF78607B681B781A4643F27C63C1F6FF7353F831
S32D00010DF82230184607F10C07BD4680BC704700BF80B483B000AF78607B681B781A4643F27C63C1F6FF734FF01C
S32D00010E20000143F8221007F10C07BD4680BC704780B483B000AF78600B46FB707B68FA781A707B68184607F172
S32D00010E480C07BD4680BC704780B586B000AF78607B681B781A4647F2A803C0F2010353F822303B617B681B7861
S32D00010E701A4647F20403C0F201039B5CFB733B69DBB203F01F03DAB243F26C63C1F6FF731A723B69DBB203F0E9
S32D00010E981F03DAB243F26C63C1F6FF735A72FB7B002B1ED14FF43040C4F2030043F26C61C1F6FF7100F00CFB68
S32D00010EC04FF43043C4F203031B6803F08003002B14BF00230123DBB2002BF1D14FF43043C4F203031B697B6107
S32D00010EE81DE04FF43040C4F20B0043F26C61C1F6FF7100F0EDFA4FF43043C4F20B031B6803F08003002B14BFF9
S32D00010F1000230123DBB2002BF1D14FF43043C4F20B031B697B617B69184607F11807BD4680BD00BF98B500AFC3
S32D00010F3843F25C63C1F6FF734FF05C021A7043F25C63C1F6FF734FF010025A7043F25C63C1F6FF7341F2342268
S32D00010F605A8043F25C63C1F6FF7345F278629A8043F25C63C1F6FF734FF010029A7143F25C63C1F6FF734FF06B
S32D00010F880702DA7143F25C63C1F6FF734FF4C022DA6043F25C63C1F6FF734FF01F021A7243F25C63C1F6FF7344
S32D00010FB04FF01F025A724FF43040C4F2030043F25C61C1F6FF7100F087FA4FF43040C4F20B0043F25C61C1F6D3
S32D00010FD8FF7100F07DFA4FF43040C4F20B0000F0D1F94FF43040C4F2030000F0CBF94FF43040C4F20B0043F21C
S32D000110005C61C1F6FF7100F067FA4FF43040C4F2030043F25C61C1F6FF7100F05DFA43F26C62C1F6FF7243F260
S32D000110285C63C1F6FF7314460FCB84E80F0043F26C63C1F6FF734FF05C021A7043F26C63C1F6FF734FF004023C
S32D00011050DA7198BD80B500AF43F20073C1F6FF731B6803F1010243F20073C1F6FF731A6000F04CF84FF4E043BD
S32D00011078C4F203034FF00102C3F80C2180BD00BF80B500AF4FF4E043C4F203034FF001021A6048F2A060C0F2B9
S32D000110A0010000F023F84FF4E043C4F203034FF00302C3F808214FF46143CEF200034FF46142CEF20002D2F8AF
S32D000110C8882142F01002C3F888214FF46143CEF200034FF46142CEF20002926842F010029A6080BD80B483B07A
S32D000110F000AF78604FF4E043C4F203037A68C3F8002107F10C07BD4680BC704780B584B000AF43F2FC63C1F606
S32D00011118FF731B68FB6029E0FB685B78FB71FB689B68184600F02EF80346BB71BB79002B19D0FB685B68012BC4
S32D0001114015DDFB689B681B69BB6008E0BB685B6803F10102BB685A60BB681B69BB60BB68002B0CBF00230123C5
S32D00011168DBB2002BEED1FB68DB68FB60FB68002B0CBF00230123DBB2002BCDD107F11007BD4680BD80B584B032
S32D0001119000AF78607868FFF75BFE0346FB607B689B695B78FB72FB7A002B12D17B68DA68FB689A420DDA7B68FE
S32D000111B89B694FF001025A707B685B6803F101027B685A604FF0010317E0FB7A012B12D17B689A68FB689A42DC
S32D000111E00DDD7B689B694FF000025A707B685B6803F101027B685A604FF0010301E04FF00003184607F11007F7
S32D00011208BD4680BD80B582B000AF78600B46FB707B681846FFF766F87B6803F101031846FFF760F87B6803F1DA
S32D0001123002031846FFF75AF8FB78032B66D801A252F823F05512010083120100B1120100DF1201007B68184610
S32D000112584FF00001FFF752F87B6803F1010318464FF00101FFF74AF87B6803F1020318464FF00201FFF742F889
S32D0001128044E07B6818464FF00801FFF73BF87B6803F1010318464FF00901FFF733F87B6803F1020318464FF04D
S32D000112A80A01FFF72BF82DE07B6818464FF01001FFF724F87B6803F1010318464FF01101FFF71CF87B6803F1D8
S32D000112D0020318464FF01201FFF714F816E07B6818464FF01801FFF70DF87B6803F1010318464FF01901FFF726
S32D000112F805F87B6803F1020318464FF01A01FEF7FDFF00BF7B68184607F10807BD4680BD80B582B000AF786010
S32D000113207B681846FFF700F9034683F00103DBB2184607F10807BD4680BD00BF80B582B000AF78607B6803F1F8
S32D0001134801031846FFF7ECF8034683F00103DBB2184607F10807BD4680BD00BF80B582B000AF78607B6803F1C4
S32D0001137002031846FFF7D8F8034683F00103DBB2184607F10807BD4680BD00BF80B485B000AF78607B681B6A1C
S32D0001139823F040027B681A627B685B6A23F00B027B685A627B685B6A43F007027B685A627B685B6A43F080022B
S32D000113C07B685A627B681B6803F08003002B14BF00230123DBB2002BF4D17B685B6A03F04003002B0CBF0023CA
S32D000113E80123DBB2002B02D04FF0010369E04FF00003FB817B68DB6CFB817B689B6C9AB2FB89D318FB817B6834
S32D000114105B6C9AB2FB89D318FB817B681B6C9AB2FB89D318FB817B68DB6B9AB2FB89D318FB817B689B6B9AB279
S32D00011438FB89D318FB81FB894FEA5303FB81FB896FEA43436FEA5343FB81FA897B68DA624FF00003FB817B68FA
S32D00011460DB6EFB817B689B6E9AB2FB89D318FB817B685B6E9AB2FB89D318FB817B681B6E9AB2FB89D318FB81EF
S32D000114887B68DB6D9AB2FB89D318FB817B689B6D9AB2FB89D318FB81FB894FEA5303FB81FB896FEA43436FEA66
S32D000114B05343FB81FA897B681A637B685B6A23F080027B685A624FF00003184607F11407BD4680BC704700BFD4
S32D000114D880B483B000AF786039603B681B781A467B689A603B685B781A467B68DA603B685B881A467B689A6134
S32D000115003B689B881A467B68DA613B689B791A467B681A623B68DB791A467B685A623B68DA687B681A653B6822
S32D000115281B7A1A467B681A603B685B7A1A467B685A6007F10C07BD4680BC704780B483B000AF78607B6818469D
S32D0001155007F10C07BD4680BC704700BF80B582B000AF786039607B68012B0AD13A684FF6FF739A4205D143F2FB
S32D000115780470C1F6FF70FFF7E1FF07F10807BD4680BD00BF80B500AF4FF001004FF6FF71FFF7E0FF80BD00BF24
S32D000115A080B582B000AF78604FF43043C4F204034FF48072DA604FF42043C4F204034FF480729A644FF4204310
S32D000115C8C4F204034FF480721A644FF42043C4F204034FF480725A644FF42043C4F204034FF48072DA604FF21B
S32D000115F08003C4F20F034FF28002C4F20F02526942F008025A614FF24003C4F20F034FF24002C4F20F025269F4
S32D0001161842F480225A614FF24003C4F20F034FF24002C4F20F02526942F480325A614FF24003C4F20F034FF28F
S32D000116404002C4F20F02526942F400325A614FF24003C4F20F034FF24002C4F20F02126842F008021A604FF28D
S32D000116684003C4F20F034FF24002C4F20F02526942F008025A614FF28003C4F20F034FF28002C4F20F021268BC
S32D0001169042F008021A604FF42043C4F204034FF480725A624FF42043C4F204034FF480721A624FF43043C4F2A1
S32D000116B804034FF480721A614FF43043C4F204034FF480725A614FF43043C4F204034FF480729A614FF4304390
S32D000116E0C4F204034FF48072DA614FF43043C4F204034FF480721A634FF43043C4F204034FF480725A634FF4E1
S32D000117083043C4F204034FF480729A634FF43043C4F204034FF48072DA634FF43043C4F204034FF480721A6445
S32D000117304FF43043C4F204034FF480725A644FF43043C4F204034FF480729A644FF43043C4F204034FF48072D6
S32D00011758DA644FF44043C4F204034FF480721A604FF44043C4F204034FF480729A604FF44043C4F204034FF47A
S32D000117808072DA604FF44043C4F204034FF480721A614FF24003C4F20F034FF24002C4F20F02526942F44072A2
S32D000117A85A614FF28002C4F20F024FF28003C4F20F035B6919464FF2F003C0F20F030B4353614FF2C003C4F26A
S32D000117D00F034FF2C002C4F20F02526942F01D025A6178684FF0E20100F0A8FC78684FF01D0100F0E7FD7868C0
S32D000117F84FF0020100F0E2FD78684FF0040100F0DDFD78684FF0E00100F094FC78684FF0010100F0D3FD4FF023
S32D000118206400FEF715FD78684FF0E00100F086FC78684FF0030100F0C5FD78684FF0010100F07CFC4FF001001E
S32D00011848FEF702FD78684FF0E60100F073FC78684FF0010100F0B2FD78684FF0A00100F0ADFD78684FF0FF01DF
S32D0001187000F0A8FD78684FF0B00100F05FFC78684FF01C0100F09EFD78684FF00F0100F099FD78684FF00101FC
S32D0001189800F094FD78684FF03F0100F08FFD78684FF0000100F08AFD78684FF0EF0100F085FD78684FF000018D
S32D000118C000F080FD78684FF0B40100F037FC78684FF0010100F076FD78684FF0990100F071FD78684FF00001DA
S32D000118E800F06CFD78684FF0450100F067FD78684FF0020100F062FD78684FF0000100F05DFD78684FF00001C4
S32D0001191000F058FD78684FF0000100F053FD78684FF0B60100F00AFC78684FF0010100F049FD78684FF00901B7
S32D0001193800F044FD78684FF0000100F03FFD78684FF00E0100F03AFD78684FF0020100F035FD78684FF000014A
S32D0001196000F030FD78684FF0000100F02BFD78684FF0BA0100F0E2FB78684FF00F0100F021FD4FF06400FEF787
S32D0001198863FC78684FF03A0100F0D4FB78684FF0600100F013FD78684FF02A0100F0CAFB78684FF0000100F029
S32D000119B009FD78684FF0000100F004FD78684FF0010100F0FFFC78684FF03F0100F0FAFC78684FF02B0100F065
S32D000119D8B1FB78684FF0000100F0F0FC78684FF0000100F0EBFC78684FF0000100F0E6FC78684FF0EF0100F050
S32D00011A00E1FC78684FF0360100F098FB78684FF0000100F0D7FC78684FF0F00100F08EFB78684FF0040100F081
S32D00011A28CDFC78684FF0B80100F084FB78684FF00F0100F0C3FC78684FF0010100F0BEFC4FF24003C4F20F038A
S32D00011A504FF24002C4F20F02126842F008021A604FF06400FEF7F4FB78684FF0360100F065FB78684FF00001A0
S32D00011A7800F0A4FC78684FF0F00100F05BFB78684FF0040100F09AFC43F20870C1F6FF704FF0010100F0AAF908
S32D00011AA043F20870C1F6FF704FF06F014FF01E0200F0A4F843F20870C1F6FF704FF0000100F0F6F943F208700B
S32D00011AC8C1F6FF7046F61861C0F201014FF05A024FF0AF0300F010FA78684FF0290100F029FB4FF06400FEF7E5
S32D00011AF0AFFB78684FF0BE0100F020FB78684FF00E0100F05FFC78684FF0F00100F05AFC78684FF0010100F054
S32D00011B1855FC78684FF0000100F050FC78684FF0000100F04BFC78684FF00F0100F046FC43F20870C1F6FF7066
S32D00011B404FF0010100F0B4F943F20870C1F6FF704FF0000100F084F907F10807BD4680BD80B582B000AF7860E3
S32D00011B687B684FF00002DA617B684FF001021A627B684FF00E025A607B684FF01A029A607B684FF000025A614B
S32D00011B907B684FF000029A617B684FF4A072DA607B684FF0F0021A617B684FF000021A70786801F02DFA7B687D
S32D00011BB8184607F10807BD4680BD00BF80B582B000AF786043F24473C1F6FF731B7883F00103DBB2002B09D0FC
S32D00011BE043F24473C1F6FF734FF001021A707868FFF7D6FC07F10807BD4680BD80B58AB002AFF860B9607A609B
S32D00011C084FF07E030093F868B9687A684FF0620300F05AFE4FF00003FB614FF00003BB6155E04FF000037B61BC
S32D00011C3045E040F20043C1F6FF73FA699B181B78002B09D14FF0FF03FB744FF0FF03BB744FF0FF037B741BE0C9
S32D00011C5840F20043C1F6FF73FA699B181B78012B09D14FF0D403FB744FF00003BB744FF026037B7408E04FF09C
S32D00011C80B503FB744FF0BA03BB744FF0B0037B74F97CBA7C7B7CF86800F08AF80246FB68DA61F86801F0B4F9AA
S32D00011CA8F86801F051F8FB6903F10103FB617B6903F101037B617B69612BCCBF00230123DBB2002BB1D1BB6963
S32D00011CD003F10103BB61BB697D2BCCBF00230123DBB2002BA1D107F12007BD4680BD00BF80B485B000AF7860FB
S32D00011CF80B46FB70FB78062B2ED801A252F823F02D1D0100251D0100351D01003D1D0100451D01004D1D01004D
S32D00011D20551D01006FF07F43FB6019E04FF00003FB6015E04FF47F03FB6011E04FF47F43FB600DE04FF0FF037B
S32D00011D48FB6009E04FF41903FB6005E049F69913C0F29903FB6000BFFB68184607F11407BD4680BC704700BFAD
S32D00011D7080B584B000AF786039603B6803F47F034FEA1343FB733B6803F47F434FEA1323BB733B687B73F97BA4
S32D00011D98BA7B7B7B786800F007F80346184607F11007BD4680BD00BF80B487B000AF7860F970BA707B70FB788A
S32D00011DC04FEAA3037B61BB784FEAA3033B617B784FEAA303FB607B694FEA03323B694FEA83131A43FB68134383
S32D00011DE8184607F11C07BD4680BC704780B582B000AF78600B46FB70FB7878681946FFF773FF03467868194611
S32D00011E1000F004F807F10807BD4680BD80B582B000AF7860396078683968FFF7A1FF02467B681A62786801F05A
S32D00011E38EBF8786800F0ECFB07F10807BD4680BD80B582B000AF7860786800F0E1FB07F10807BD4680BD00BFFA
S32D00011E6080B582B000AF78600B46FB70FB7878681946FFF73DFF03467868194600F004F807F10807BD4680BD0A
S32D00011E8880B582B000AF7860396078683968FFF76BFF02467B681A62786801F0B5F807F10807BD4680BD00BF98
S32D00011EB080B582B000AF78600B46FB70FB7878681946FFF715FF03467868194600F004F807F10807BD4680BDE2
S32D00011ED880B582B000AF7860396078683968FFF743FF02467B68DA61786801F08DF807F10807BD4680BD00BFD9
S32D00011F0080B586B000AFF860B9607A603B604FF000037B6110E07B69BA68D3181B78F86879683A6800F07AFDD6
S32D00011F287B6803F10C037B607B6903F101037B617B69BA68D3181B78002B0CBF00230123DBB2002BE3D107F1EC
S32D00011F501807BD4680BD00BF80B584B000AF786039604FF00003FB60786800F081FC11E07B6859697B689A6955
S32D00011F78FB683868C3181B78786800F02BFD786800F088FCFB6803F10103FB60FB683A68D3181B78002B0CBF4E
S32D00011FA000230123DBB2002BE2D107F11007BD4680BD00BF90B593B000AF786039604FF001031C4638683049EC
S32D00011FC8FBF75CF90346002B02D14FF000031C46E3B2002B23D03868FBF764F903467B64786CFAF745FF03468C
S32D00011FF038681946FAF78AFE034618462349FAF78FFF03461846FBF751F903463B6407F10C03184646F63461B7
S32D00012018C0F201017A6C3B6C02F0FEFB26E03B6883F000433B603868FBF73CF903467B64786CFAF71DFF03464A
S32D0001204038681946FAF762FE034618460F49FAF767FF03461846FBF729F903463B6407F10C03184646F62861FE
S32D00012068C0F201017A6C3B6C02F0D6FB07F10C0378681946FFF76CFF07F14C07BD4690BD0000000000007A4445
S32D0001209080B582B000AF78600B46FB70786800F0E7FB7B6859697B689A69FB78786800F095FC786800F0F2FBA9
S32D000120B807F10807BD4680BD80B582B000AF78603960786800F0D0FB78683968FFF740FF786800F0B1FB07F166
S32D000120E00807BD4680BD00BF80B582B000AF78603960786800F0BCFB78683968FFF75AFF786800F09DFB07F185
S32D000121080807BD4680BD00BF80B582B000AF78600B46FB70786800F0A7FBFB7878681946FFF7B2FF786800F055
S32D0001213087FB07F10807BD4680BD00BF80B483B000AF78600B46FB704FF28003C4F20F034FF28002C4F20F0238
S32D00012158126822F008021A604FF24003C4F20F034FF24002C4F20F02126822F480221A604FF24003C4F20F03BA
S32D000121804FF24002C4F20F02126842F480321A604FF24003C4F20F034FF24002C4F20F02126822F440721A60B8
S32D000121A84FF28003C4F20F034FF28002C4F20F02126822F4425222F070021A604FF24003C4F20F034FF2400201
S32D000121D0C4F20F0212681146FA7802F00102D2B2002A02D04FF4007201E04FF000020A431A604FF24003C4F289
S32D000121F80F034FF24002C4F20F0212681146FA7802F00202002A02D04FF4807201E04FF000020A431A604FF2C8
S32D000122208003C4F20F034FF28002C4F20F0212681146FA7802F00402002A02D04FF0100201E04FF000020A43C3
S32D000122481A604FF28003C4F20F034FF28002C4F20F0212681146FA7802F00802002A02D04FF0200201E04FF01B
S32D0001227000020A431A604FF28003C4F20F034FF28002C4F20F0212681146FA7802F01002002A02D04FF040029C
S32D0001229801E04FF000020A431A604FF28003C4F20F034FF28002C4F20F0212681146FA7802F02002002A02D0C5
S32D000122C04FF0800201E04FF000020A431A604FF28003C4F20F034FF28002C4F20F0212681146FA7802F04002B8
S32D000122E8002A02D04FF4805201E04FF000020A431A604FF28003C4F20F034FF28002C4F20F0212681146FA7874
S32D0001231052B2002A02DA4FF4005201E04FF000020A431A604FF24003C4F20F034FF24002C4F20F02126822F4F0
S32D0001233800321A604FF24003C4F20F034FF24002C4F20F02126842F400321A604FF28003C4F20F034FF2800289
S32D00012360C4F20F02126842F008021A604FF24003C4F20F034FF24002C4F20F02126842F440721A604FF2800321
S32D00012388C4F20F034FF28002C4F20F02126842F4425242F070021A604FF24003C4F20F034FF24002C4F20F02DC
S32D000123B0126842F480221A6007F10C07BD4680BC704700BF80B483B000AF78600B46FB704FF28003C4F20F033C
S32D000123D84FF28002C4F20F02126822F008021A604FF24003C4F20F034FF24002C4F20F02126842F480321A60CA
S32D000124004FF24003C4F20F034FF24002C4F20F02126842F480221A604FF24003C4F20F034FF24002C4F20F02B5
S32D00012428126822F440721A604FF28003C4F20F034FF28002C4F20F02126822F4425222F070021A604FF240030D
S32D00012450C4F20F034FF24002C4F20F0212681146FA7802F00102D2B2002A02D04FF4007201E04FF000020A436F
S32D000124781A604FF24003C4F20F034FF24002C4F20F0212681146FA7802F00202002A02D04FF4807201E04FF09B
S32D000124A000020A431A604FF28003C4F20F034FF28002C4F20F0212681146FA7802F00402002A02D04FF01002A6
S32D000124C801E04FF000020A431A604FF28003C4F20F034FF28002C4F20F0212681146FA7802F00802002A02D0AB
S32D000124F04FF0200201E04FF000020A431A604FF28003C4F20F034FF28002C4F20F0212681146FA7802F0100216
S32D00012518002A02D04FF0400201E04FF000020A431A604FF28003C4F20F034FF28002C4F20F0212681146FA78D5
S32D0001254002F02002002A02D04FF0800201E04FF000020A431A604FF28003C4F20F034FF28002C4F20F02126822
S32D000125681146FA7802F04002002A02D04FF4805201E04FF000020A431A604FF28003C4F20F034FF28002C4F248
S32D000125900F0212681146FA7852B2002A02DA4FF4005201E04FF000020A431A604FF24003C4F20F034FF2400271
S32D000125B8C4F20F02126822F400321A604FF24003C4F20F034FF24002C4F20F02126842F400321A604FF280033B
S32D000125E0C4F20F034FF28002C4F20F02126842F008021A604FF24003C4F20F034FF24002C4F20F02126822F424
S32D0001260880221A6007F10C07BD4680BC704700BF80B586B000AF78607B684FF000025A617B684FF000029A61D7
S32D000126307B681B6AFB60FB68FB72FB684FEA1323BB72FB684FEA1343DBB203F003037B7278684FF02A01FFF744
S32D0001265871FD78684FF00001FFF7B0FE78684FF00001FFF7ABFE78684FF00101FFF7A6FE78684FF03F01FFF752
S32D00012680A1FE78684FF02B01FFF758FD78684FF00001FFF797FE78684FF00001FFF792FE78684FF00001FFF78F
S32D000126A88DFE78684FF0EF01FFF788FE78684FF02C01FFF73FFD4FF24003C4F20F034FF24002C4F20F0212685F
S32D000126D022F440721A604FF28002C4F20F024FF28003C4F20F031B68194640F60F73CFF6F0730B4013604FF2C2
S32D000126F8C003C4F20F034FF2C002C4F20F02126822F01D021A604FF24003C4F20F034FF24002C4F20F02126829
S32D0001272011467A68126B0A431A604FF28003C4F20F034FF28002C4F20F02126811467A68526B0A431A604FF27F
S32D00012748C003C4F20F034FF2C002C4F20F02126811467A68926B0A431A604FF28003C4F20F034FF28002C4F291
S32D000127700F02126822F008021A604FF24003C4F20F034FF24002C4F20F02126842F480221A604FF000037B6199
S32D000127982DE04FF000033B611BE04FF24003C4F20F034FF24002C4F20F02126822F400321A604FF24003C4F220
S32D000127C00F034FF24002C4F20F02126842F400321A603B6903F101033B613A6940F23F139A428CBF0023012365
S32D000127E8DBB2002BD9D17B6903F101037B617B69EF2B8CBF00230123DBB2002BC9D14FF28003C4F20F034FF2F9
S32D000128108002C4F20F02126842F008021A604FF24003C4F20F034FF24002C4F20F02126822F480221A6007F1E6
S32D000128381807BD4680BD00BF80B483B000AF78607B689B69002B09DD7B685B6903F101027B685A617B684FF00F
S32D0001286000029A6107F10C07BD4680BC704700BF80B582B000AF78607B685A697B685B689A4206DB7B684FF073
S32D0001288800025A617868FFF7C3FE07F10807BD4680BD00BF80B582B000AF78607B689B6903F101027B689A611D
S32D000128B07B689A697B689B689A4205D17868FFF7BFFF7868FFF7D4FF07F10807BD4680BD80B588B000AFF86083
S32D000128D8B9607A603B60FB681B78022B03D0FB681B78032B13D17B68FB61BA6AFB69D31803F1FF33BB61FB68EE
S32D00012900DA68BB68D31A3B613B683A69D31A03F101037B610FE0BB68FB613A68FB69D31803F1FF33BB617B682F
S32D000129287B61BA6A7B69D31803F1FF333B61F8684FF02A01FFF7FEFBFB6903F470634FEA1323DBB2F86819464D
S32D00012950FFF738FDFB69DBB2F8681946FFF732FDBB6903F470634FEA1323DBB2F8681946FFF728FDBB69DBB2E3
S32D00012978F8681946FFF722FDF8684FF02B01FFF7D9FB7B6903F470634FEA1323DBB2F8681946FFF713FD7B6974
S32D000129A0DBB2F8681946FFF70DFD3B6903F470634FEA1323DBB2F8681946FFF703FD3B69DBB2F8681946FFF7B7
S32D000129C8FDFCF8684FF02C01FFF7B4FB07F12007BD4680BD80B584B000AFF860B9607A60FB707A6813464FEAD5
S32D000129F043039B184FEA830303F10201BA6813464FEA03139B1803F10302FB78F86800F005F807F11007BD46C1
S32D00012A1880BD00BF80B58EB002AFF860B9607A60FB70FB780A2B06D1F868FFF71DFFF868FFF702FF25E1FB78F8
S32D00012A407D2B02D8FB781F2B02D84FF02003FB70FB78A3F12003FB704FF011030093F868B9687A684FF00C0355
S32D00012A68FFF732FFFA7813464FEA83039A1843F23C43C1F6FF739B5C3B75FA7813464FEA83039B1803F1010224
S32D00012A9043F23C43C1F6FF739B5C7B75FA7813464FEA83039B1803F1020243F23C43C1F6FF739B5CBB75FA78A8
S32D00012AB813464FEA83039B1803F1030243F23C43C1F6FF739B5CFB75FA7813464FEA83039B1803F1040243F27B
S32D00012AE03C43C1F6FF739B5C3B764FF00003BB62A8E0F86800F0DCF9F86800F0CBF84FF0000387F82F304FF0F9
S32D00012B0800037B6231E007F114027B6AD3181B7803F00103FB76FB7E002B11D097F82F3083F00103DBB2002B32
S32D00012B3003D0F86800F00CF902E0F86800F0AAF8F86800F0A7F80DE097F82F30002B03D0F86800F0ADF902E0DA
