S01A00002E2E2F506572666F726D616E636554657374342E73313909
S32D0000C00000000020A1F80000FDFB0000FDFB0000FDFB0000FDFB0000FDFB000000000000000000000000000081
S32D0000C02800000000FDFB0000FDFB000000000000FDFB0000FDFB0000FDFB0000FDFB0000FDFB0000FDFB00002A
S32D0000C050FDFB0000FDFB0000FDFB0000FDFB0000FDFB0000FDFB0000FDFB0000FDFB0000FDFB0000FDFB000012
S32D0000C078FDFB0000FDFB0000FDFB0000FDFB0000FDFB0000FDFB0000FDFB0000FDFB0000FDFB0000FDFB0000EA
S32D0000C0A0FDFB0000FDFB0000FDFB0000FDFB0000FDFB0000FDFB0000FDFB0000FDFB0000FDFB0000FDFB0000C2
S32D0000C0C8FDFB0000FDFB0000FDFB0000FDFB0000FDFB0000FDFB0000FDFB0000FDFB0000FDFB0000FDFB00009A
S32D0000C0F0FDFB0000F53A0100FDFB0000FDFB0000FDFB0000FDFB0000FDFB0000FDFB0000FDFB0000FDFB00003A
S32D0000C118FDFB0000FDFB0000FDFB0000FDFB0000FDFB0000FDFB0000FDFB0000FDFB0000FDFB0000FDFB000049
S32D0000C140FDFB0000FDFB0000FDFB0000FDFB000025130100FDFB0000FDFB0000FDFB0000FDFB0000FDFB0000E0
S32D0000C168FDFB0000FDFB0000FDFB0000FDFB0000FDFB0000FDFB0000FDFB0000FDFB0000FDFB0000FDFB0000F9
S32D0000C190FDFB0000FDFB0000FDFB0000850D0100D90B0100AD0C01004DFC00005D0E0100FDFB0000FDFB0000C2
S32D0000C1B8FDFB0000FDFB0000FDFB0000FDFB0000FDFB0000FDFB0000FDFB0000FDFB0000FDFB0000FDFB0000A9
S32D0000C41081F0004102E000BF83F0004330B54FEA41044FEA430594EA050F08BF90EA020F1FBF54EA000C55EAC6
S32D0000C438020C7FEA645C7FEA655C00F0E2804FEA5454D4EB5555B8BF6D420CDD2C4480EA020281EA030382EA0F
S32D0000C460000083EA010180EA020281EA0303362D88BF30BD11F0004F4FEA01314FF4801C4CEA113102D0404263
S32D0000C48861EB410113F0004F4FEA03334CEA133302D0524263EB430394EA050F00F0A780A4F10104D5F1200E8A
S32D0000C4B00DDB02FA0EFC22FA05F2801841F1000103FA0EF2801843FA05F359410EE0A5F120050EF1200E012A2D
S32D0000C4D803FA0EFC28BF4CF0020C43FA05F3C01851EBE37101F0004507D54FF0000EDCF1000C7EEB00006EEB67
S32D0000C5000101B1F5801F1BD3B1F5001F0CD349085FEA30004FEA3C0C04F101044FEA445212F5800F80F09A8000
S32D0000C528BCF1004F08BF5FEA500C50F1000041EB045141EA050130BD5FEA4C0C404141EB010111F4801FA4F114
S32D0000C5500104E9D191F0000F04BF01460020B1FA81F308BF2033A3F10B03B3F120020CDA0C3208DD02F1140C87
S32D0000C578C2F10C0201FA0CF021FA02F10CE002F11402D8BFC2F1200C01FA02F120FA0CFCDCBF41EA0C019040B1
S32D0000C5A0E41AA2BF01EB0451294330BD6FEA04041F3C1CDA0C340EDC04F11404C4F1200220FA04F001FA02F3B6
S32D0000C5C840EA030021FA04F345EA030130BDC4F10C04C4F1200220FA02F001FA04F340EA0300294630BD21FAA8
S32D0000C5F004F0294630BD94F0000F83F4801306BF81F480110134013D4EE77FEA645C18BF7FEA655C29D094EA1C
S32D0000C618050F08BF90EA020F05D054EA000C04BF1946104630BD91EA030F1EBF0021002030BD5FEA545C05D1A3
S32D0000C6404000494128BF41F0004130BD14F580043CBF01F5801130BD01F0004545F0FE4141F470014FF0000031
S32D0000C66830BD7FEA645C1ABF194610467FEA655C1CBF0B46024650EA013406BF52EA033591EA030F41F40021D7
S32D0000C69030BD00BF90F0000F04BF0021704730B54FF4806404F132044FF000054FF0000150E700BF90F0000F66
S32D0000C6B804BF0021704730B54FF4806404F1320410F0004548BF40424FF000013EE700BF42004FEAE2014FEAF9
S32D0000C6E031014FEA02701FBF12F07F4393F07F4F81F06051704792F0000F14BF93F07F4F704730B54FF460741B
S32D0000C70801F0004521F0004120E700BF50EA010208BF704730B54FF000050AE050EA010208BF704730B511F046
S32D0000C730004502D5404261EB41014FF4806404F132045FEA915C3FF4DCAE4FF003025FEADC0C18BF03325FEAA0
S32D0000C758DC0C18BF033202EBDC02C2F1200300FA03FC20FA02F001FA03FE40EA0E0021FA02F11444C1E600BF19
S32D0000C78070B54FF0FF0C4CF4E06C1CEA11541DBF1CEA135594EA0C0F95EA0C0F00F0DEF82C4481EA030621EAF3
S32D0000C7A84C5123EA4C5350EA013518BF52EA033541F4801143F4801338D0A0FB02CE4FF00005E1FB02E506F05F
S32D0000C7D00042E0FB03E54FF00006E1FB03569CF0000F18BF4EF0010EA4F1FF04B6F5007F64F5407404D25FEA0F
S32D0000C7F84E0E6D4146EB060642EAC62141EA55514FEAC52040EA5E504FEACE2EB4F1FD0C88BFBCF5E06F1ED8D2
S32D0000C820BEF1004F08BF5FEA500E50F1000041EB045170BD06F0004646EA010140EA020081EA0301B4EB5C0487
S32D0000C848C2BFD4EB0C0541EA045170BD41F480114FF0000E013C00F3AB8014F1360FDEBF002001F0004170BDF0
S32D0000C870C4F10004203C35DA0C341BDC04F11404C4F1200500FA05F320FA04F001FA05F240EA020001F0004207
S32D0000C89821F0004110EBD37021FA04F642EB06015EEA430E08BF20EAD37070BDC4F10C04C4F1200500FA04F32F
S32D0000C8C020FA05F001FA04F240EA020001F0004110EBD37041F100015EEA430E08BF20EAD37070BDC4F12005C7
S32D0000C8E800FA05F24EEA020E20FA04F301FA05F243EA020321FA04F001F0004121FA04F220EA020000EBD37028
S32D0000C9105EEA430E08BF20EAD37070BD94F0000F0FD101F00046400041EB010111F4801F08BF013CF7D041EA6D
S32D0000C938060195F0000F18BF704703F00046520043EB030313F4801F08BF013DF7D043EA0603704794EA0C0FF1
S32D0000C9600CEA135518BF95EA0C0F0CD050EA410618BF52EA4306D1D181EA030101F000414FF0000070BD50EA38
S32D0000C988410606BF1046194652EA430619D094EA0C0F02D150EA013613D195EA0C0F05D152EA03361CBF10467B
S32D0000C9B019460AD181EA030101F0004141F0FE4141F470014FF0000070BD41F0FE4141F4780170BD70B54FF04D
S32D0000C9D8FF0C4CF4E06C1CEA11541DBF1CEA135594EA0C0F95EA0C0F00F0A7F8A4EB050481EA030E52EA03359B
S32D0000CA004FEA013100F088804FEA03334FF0805545EA131343EA12634FEA022245EA111545EA10654FEA002676
S32D0000CA280EF000419D4208BF964244F1FD0404F5407402D25B084FEA3202B61A65EB03055B084FEA32024FF461
S32D0000CA5080104FF4002CB6EB020E75EB030E22BFB61A754640EA0C005B084FEA3202B6EB020E75EB030E22BF22
S32D0000CA78B61A754640EA5C005B084FEA3202B6EB020E75EB030E22BFB61A754640EA9C005B084FEA3202B6EBEA
S32D0000CAA0020E75EB030E22BFB61A754640EADC0055EA060E18D04FEA051545EA16754FEA06164FEAC30343EAAC
S32D0000CAC852734FEAC2025FEA1C1CC0D111F4801F0BD141EA00014FF000004FF0004CB6E711F4801F04BF0143AE
S32D0000CAF00020B4F1FD0C88BFBCF5E06F3FF6AFAEB5EB030C04BFB6EB020C5FEA500C50F1000041EB045170BDBC
S32D0000CB180EF0004E4EEA113114EB5C04C2BFD4EB0C0541EA045170BD41F480114FF0000E013C90E645EA060EC3
S32D0000CB408DE60CEA135594EA0C0F08BF95EA0C0F3FF43BAF94EA0C0F0AD150EA01347FF434AF95EA0C0F7FF499
S32D0000CB6825AF104619462CE795EA0C0F06D152EA03353FF4FDAE1046194622E750EA410618BF52EA43067FF432
S32D0000CB90C5AE50EA41047FF40DAF52EA43057FF4EBAE12E74FF0FF3C06E000BF4FF0010C02E000BF4FF0010C75
S32D0000CBB84DF804CD4FEA410C7FEA6C5C4FEA430C18BF7FEA6C5C1BD001B050EA410C0CBF52EA430C91EA030FEC
S32D0000CBE002BF90EA020F0020704710F1000F91EA030F58BF994208BF90422CBFD8176FEAE37040F0010070476E
S32D0000CC084FEA410C7FEA6C5C02D150EA013C07D14FEA430C7FEA6C5CD6D152EA033CD3D05DF8040B704700BFCD
S32D0000CC308446104662468C461946634600E000BF01B5FFF7B7FF002848BF10F1000F01BD4DF808EDFFF7F4FF13
S32D0000CC580CBF012000205DF808FB00BF4DF808EDFFF7EAFF34BF012000205DF808FB00BF4DF808EDFFF7E0FF18
S32D0000CC8094BF012000205DF808FB00BF4DF808EDFFF7CEFF94BF012000205DF808FB00BF4DF808EDFFF7C4FF40
S32D0000CCA834BF012000205DF808FB00BF4FEA410212F5001215D211D56FF47873B3EB625212D94FEAC12343F0D6
S32D0000CCD0004343EA505311F0004F23FA02F018BF404270474FF00000704750EA013005D111F0004008BF6FF016
S32D0000CCF8004070474FF00000704700BF4FEA4102B2F1E04324BFB3F5001CDCF1FE5C0DD901F0004C4FEAC00234
S32D0000CD204CEA5070B2F1004F40EB830008BF20F00100704711F0804F21D113F13872BCBF01F00040704741F4B8
S32D0000CD4880114FEA5252C2F11802C2F1200C10FA0CF320FA02F018BF40F001004FEAC1234FEAD32303FA0CFC35
S32D0000CD7040EA0C0023FA02F34FEA4303CCE77FEA625307D150EA01331EBF4FF0FE4040F44000704701F0004001
S32D0000CD9840F0FE4040F40000704700BF80F0004002E000BF81F0004142001FBF5FEA410392EA030F7FEA226C20
S32D0000CDC07FEA236C6AD04FEA1262D2EB1363C1BFD218414048404140B8BF5B42192B88BF704710F0004F40F466
S32D0000CDE8000020F07F4018BF404211F0004F41F4000121F07F4118BF494292EA030F3FD0A2F1010241FA03FCCF
S32D0000CE1010EB0C00C3F1200301FA03F100F0004302D5494260EB4000B0F5000F13D3B0F1807F06D340084FEA73
S32D0000CE38310102F10102FE2A51D2B1F1004F40EBC25008BF20F0010040EA03007047490040EB000010F4000FE8
S32D0000CE60A2F10102EDD1B0FA80FCACF1080CB2EB0C0200FA0CF0AABF00EBC25052421843BCBFD04018437047E6
S32D0000CE8892F0000F81F4000106BF80F400000132013BB5E74FEA41037FEA226C18BF7FEA236C21D092EA030F6F
S32D0000CEB004D092F0000F08BF0846704790EA010F1CBF0020704712F07F4F04D1400028BF40F00040704712F1F1
S32D0000CED800723CBF00F50000704700F0004343F0FE4040F4000070477FEA226216BF08467FEA236301464202FA
S32D0000CF0006BF5FEA412390EA010F40F4800070474FF0000304E000BF10F0004348BF40425FEA000C08BF704718
S32D0000CF2843F0964301464FF000001CE050EA010208BF70474FF000030AE000BF50EA010208BF704711F00043A8
S32D0000CF5002D5404261EB41015FEA010C02BF84460146002043F0B64308BFA3F18053A3F50003BCFA8CF2083A19
S32D0000CF78A3EBC25310DB01FA02FC634400FA02FCC2F12002BCF1004F20FA02F243EB020008BF20F001007047C7
S32D0000CFA002F1200201FA02FCC2F1200250EA4C0021FA02F243EB020008BF20EADC7070474FF0FF0C1CEAD05275
S32D0000CFC81EBF1CEAD15392EA0C0F93EA0C0F6FD01A4480EA010C400218BF5FEA41211ED04FF0006343EA501010
S32D0000CFF043EA5111A0FB01310CF00040B1F5000F3EBF490041EAD3715B0040EA010062F17F02FD2A1DD8B3F1F7
S32D0000D018004F40EBC25008BF20F00100704790F0000F0CF0004C08BF49024CEA502040EA51207F3AC2BFD2F1A8
S32D0000D040FF0340EAC250704740F400004FF00003013A5DDC12F1190FDCBF00F000407047C2F10002410021FA25
S32D0000D06802F1C2F1200200FA02FC5FEA310040F1000053EA4C0308BF20EADC70704792F0000F00F0004C02BF41
S32D0000D090400010F4000F013AF9D040EA0C0093F0000F01F0004C02BF490011F4000F013BF9D041EA0C018FE745
S32D0000D0B80CEAD15392EA0C0F18BF93EA0C0F0AD030F0004C18BF31F0004CD8D180EA010000F00040704790F025
S32D0000D0E0000F17BF90F0004F084691F0000F91F0004F14D092EA0C0F01D142020FD193EA0C0F03D14B0218BFBF
S32D0000D108084608D180EA010000F0004040F0FE4040F40000704740F0FE4040F4400070474FF0FF0C1CEAD052D3
S32D0000D1301EBF1CEAD15392EA0C0F93EA0C0F69D0A2EB030280EA010C49024FEA402037D04FF0805343EA11110D
S32D0000D15843EA10130CF000408B4238BF5B0042F17D024FF4000C8B4224BF5B1A40EA0C00B3EB510F24BFA3EB33
S32D0000D180510340EA5C00B3EB910F24BFA3EB910340EA9C00B3EBD10F24BFA3EBD10340EADC001B0118BF5FEA99
S32D0000D1A81C1CE0D1FD2A3FF650AF8B4240EBC25008BF20F0010070470CF0004C4CEA50207F32C2BFD2F1FF0397
S32D0000D1D040EAC250704740F400004FF00003013A37E792F0000F00F0004C02BF400010F4000F013AF9D040EA60
S32D0000D1F80C0093F0000F01F0004C02BF490011F4000F013BF9D041EA0C0195E70CEAD15392EA0C0F08D1420289
S32D0000D2207FF47DAF93EA0C0F7FF470AF084676E793EA0C0F04D14B023FF44CAF08466EE730F0004C18BF31F07D
S32D0000D248004CCAD130F000427FF45CAF31F000437FF43CAF5FE700BF4FF0FF3C06E000BF4FF0010C02E000BF1E
S32D0000D2704FF0010C4DF804CD4FEA40024FEA41037FEA226C18BF7FEA236C11D001B052EA530C18BF90EA010FE2
S32D0000D29858BFB2EB030088BFC81738BF6FEAE17018BF40F0010070477FEA226C02D15FEA402C05D17FEA236CDE
S32D0000D2C0E4D15FEA412CE1D05DF8040B704700BF844608466146FFE70FB5FFF7C9FF002848BF10F1000F0FBD18
S32D0000D2E84DF808EDFFF7F4FF0CBF012000205DF808FB00BF4DF808EDFFF7EAFF34BF012000205DF808FB00BF6E
S32D0000D3104DF808EDFFF7E0FF94BF012000205DF808FB00BF4DF808EDFFF7D2FF94BF012000205DF808FB00BF89
S32D0000D3384DF808EDFFF7C8FF34BF012000205DF808FB00BF4FEA4002B2F1FE4F0FD34FF09E03B3EB12620DD960
S32D0000D3604FEA002343F0004310F0004F23FA02F018BF404270474FF00000704712F1610F01D1420205D110F00A
S32D0000D388004008BF6FF0004070474FF000007047036803B11B181846704700BF03685A004CBF43F0004323F0A5
S32D0000D3B00043C018704700BF2DE9F84F0446914641B301F1FF3BDA46002707EB0A0101EBD1756D1004EBC50673
S32D0000D3D83046FFF7E3FF8046681CAB4504EBC0000DD0FFF7DBFF0138C84504D9BD4209D005F1FF3AE5E74845C0
S32D0000D40005D26F1CE1E74FF0FF30F1E700263046BDE8F88F0E463046BDE8F88F30B52B4B83B004468D1E002B22
S32D0000D42849D0284601A9AFF300800346002822D02A4618460199FFF7BBFF054600281DD0FFF7ACFF6B68A06430
S32D0000D450012B10D0281D002B22DBFFF7A3FF0021E06421650368002B0FDBFFF79BFF2061002003B030BD00233E
S32D0000D47823610520F9E720610920F6E720610920F3E7C3F3036058B101280CD002280ED0002020610920E8E72A
S32D0000D4A00122E0642265DDE7094B2361E1E7094A00202261DDE7084900202161D9E7074B0749C81AC2100192B6
S32D0000D4C8B6E700BF00000000E9D90000E5D90000E1D900007C7901006C7B0100036810B50446D80706D49907EF
S32D0000D4F004F1480009D500F00DFD23685A0709D518070ED5D90613D510BD00F0FBFC23685A07F5D404F1D00038
S32D0000D51800F004FD23681807F0D404F5D87000F005FD2368D906EBD404F50C70BDE8104000F040BD2DE9F04786
S32D0000D5400F1D054691460FCFADF5916D02AC261D0FC60FCF0FC60FCF0FC697E80F00D5F80C80D5F818A0002732
S32D0000D56886E80F00216C27602846FFF753FF0646B94514BF4FF00A094FF00909FEB1A16B49F01009616401209B
S32D0000D5908DE8100449462A462B46C04700282BD1002E2AD1204692A94FF4107207F0BCFA082F28D1216C2846E2
S32D0000D5B8FFF730FF06464FF00909002EDFD1206C21464FF41072686192A807F0A9FA2F69294692AA4846B84780
S32D0000D5E0A09B0746636401208DE8100449462A462B46C0470028D3D00926304622B00DF5806DBDE8F087072F2A
S32D0000D608F6D1201D00F06EFC38B504460D46296C2046FFF7FFFE50B92A6C23696261012021462A469847082829
S32D0000D630F1D0072801D009F0A5FB281D00F056FC11B933B10220704704298CBF0220012070470F2A01D90220BD
S32D0000D658704700EB820118464A68009B1A60704710B50A4684B000210B4603AC0094FFF7E3FF039804B010BDB1
S32D0000D68011B933B10220704704298CBF0220012070470F2A01D902207047009900EB8202096818465160704758
S32D0000D6A810B584B004AB0C4643F8042D0021009322460B46FFF7E0FF04B010BD2DE9F04FCD6C8BB00C4655F8C3
S32D0000D6D0041B174600F008021E46039200F003080795002B40F0CF8009020691216D8DF821300323B8F1020F96
S32D0000D6F88DF8203008BFA56B11F0010340F0D380019304F158030293D5F80090B9F1000F00F0CB80022E00F0E6
S32D0000D720AE80B5F80090B5F802A00435A26C0F212AF0010B38469344FFF796FF834518D829F0010CE3440AF0A5
S32D0000D748010A09F00103584543EA4A092CBF00200120B9F1010F12D032D2B8F1000F02D0002840F01D81043509
S32D0000D770CEE70AF0010A09F0010343EA4A090020B9F1010FECD1B8F1000F40F0B680C8B16B68D5F800909A1C40
S32D0000D79819D0029A013309920DD0281DFFF7F8FD4FEAD972014609AB204608F051FB002800F0F280099A002A82
S32D0000D7C040F0BA800835A3E7B9F1020F03D009200BB0BDE8F08F2B6823F000420092B8F1000F71D1002843D0C5
S32D0000D7E80398002840F0A1800098002800F0A080009BDDF80C90DB0705F1040A40F1B480CDF810800596A846FA
S32D0000D810029E12E000998D4200F0D9800996FFF7BBFD5A46014609AB204608F015FBA946B0B90AF1040A05F1FA
S32D0000D838010950460996FFF7ABFD09AB01460022204608F005FB0AF1040A834609F101055046BBF1000FD9D09E
S32D0000D8604546059EDDF81080009A4A4564D02B68002B7BDB0099481C05EB800548E7D5F804A0083552E70B04FF
S32D0000D888C1F30740216D06930222B8F1020F05EB800508BFA56B8DF8210011F001038DF820203FF42DAF002087
S32D0000D8B00190384606A900F019FC002887D1019A002A43D1082083E70D213846D4F82090FFF7CAFE8145CAD155
S32D0000D8D8A26A9542C7D10098291D00220423A062E26223636163286800286EDB01220192BCE70D213846D4F81E
S32D0000D9002090FFF7B1FE81457FF45CAFA16A8D427FF458AF2846FFF745FD0F2102463846FFF7C2FE384600211B
S32D0000D9282246FFF7BDFE07204EE7009900299BD138460D21FFF794FE099B20626362A562062041E70F2138460C
S32D0000D950FFF78AFE0E2102463846FFF7A5FE38460F211E4AFFF7A0FE072031E7043581E7029950460991FFF752
S32D0000D9780FFD039A014609AB204608F069FA00287FF46EAFCDF8108005960AF1040A4FF00109A846029E4CE761
S32D0000D9A0CDF824800835B3E62846FFF7FBFC04350646A563204608F0C5FA00283FF407AF38460F213246FFF7E8
S32D0000D9C86FFE072000E74546B2E7009B591C05EB81009CE7AD60010002236FE601236DE600236BE62DE9F047CE
S32D0000D9F00446E8B004290CD8DFE801F0380391930F00150C012B96B200F07881052B00F0C780022068B0BDE82C
S32D0000DA18F087002BF9D1102AF7D82368D90600F1738164A8019200F0CFFA019AA36BD00744BF53F8040B6490F3
S32D0000DA40910744BF53F8041B6591500744BF53F8041B6691110748BF53F8042B64A8A36348BF679200F0AAFAC3
S32D0000DA680020D3E7002BD0D1A36BD00791B244BF53F8042B62608A0744BF53F8042BA260480744BF53F8042BA7
S32D0000DA90E2600A0744BF53F8042B2261C80644BF53F8042B62618A0644BF53F8042BA261480644BF53F8042B2C
S32D0000DAB8E2610A0644BF53F8042B2262C80544BF53F8042B62628A0544BF53F8042BA262480544BF53F8042B04
S32D0000DAE0E2620A0544BF53F8042B2263C80444BF53F8042B626311F400501CBF53F8042BA2634A0444BF53F86A
S32D0000DB08042BE2630A0444BF53F8042B2264002840D1A3637AE7012078E7032B7FF475AF160C95B2AA19102A1F
S32D0000DB303FF66FAF2368180700F10B8144A800F01BFAA76B4FEA450E3B460DB344A90EF1FF3C01EBC60653F853
S32D0000DB58040B62460CF0010146F8040B92B129B153F8041B013A46F8041B0BD01846314650F8045B41F8045B8F
S32D0000DB805D68031D75600E1D023AF3D107EB8E0344A8A36300F0CEF900203BE7002039E777192022BA42FFF423
S32D0000DBA834AF012B00F0A9800F2D40F2A9803746F6B1052B7FF429AF0F2D11D82268D0070ED522F00101052B44
S32D0000DBD02160204600F0DA8022F0030240F8482B019300F093F9019B1FB12268510700F1B880012B00F0BF8052
S32D0000DBF80F2D75D9002F40F0A080D4F83890002EC8462EDD49460DF1080A4FEA46080AEBC50251F8046B08F188
S32D0000DC20FF3000F0010A42F8046BA8F1020CD0B1BAF1000F08D051F8040B0CF1FF3CBCF1FF3F42F8040B0ED0A7
S32D0000DC480E46104656F804AB40F804AB4968ACF1020C5160311D021DBCF1FF3FF0D109EB8808A7B3102D2CBFF4
S32D0000DC702E4610260DF5D079414609EBC60CACF5C8724FEA470951F8046B09F1FF3000F0010A42F8046BA9F1C1
S32D0000DC98020CD0B1BAF1000F08D051F8040B0CF1FF3CBCF1FF3F42F8040B0ED00E46104656F804AB40F804AB0D
S32D0000DCC04968ACF1020C5160311D021DBCF1FF3FF0D108EB8908012B2BD00F2DC4F8388008D9FFB9384695E623
S32D0000DCE802A8019300F016F9019B83E702A800F00DF9F2E77719102250E70F2D3FF685AE102F10D9103F54E703
S32D0000DD1023F01003236004F50C70019200F058F9019A82E624A800F0FDF8002072E6002746E708F1040302A8C9
S32D0000DD38A36300F0E3F8002068E624A80193C5F1100600F0EFF8019B57E723F0080704F5D870276000F00CF9C2
S32D0000DD60ECE6204622F0040140F8D01B019300F0DDF8019B3DE702A8019300F0C7F8019B002F3FF43EAFC5F17C
S32D0000DD8810063AE741F0020140F8481B019300F0C1F8019B24E700BF406C7047F0B50D460F1DC96B2964044632
S32D0000DDB00FCFADF5117D01AE0FC60FCF0FC60FCF0FC697E80F0086E80F004FF0FF33009310992046FFF722FB1C
S32D0000DDD858B9266921466A46B04708280646F3D06846FFF77BFB062E03D009200DF5117DF0BD20462946FFF7DE
S32D0000DE0007FC00BF10B4DC6BC1608261194600221C6410BCFFF792BB38B54269C3680A6404460D4623B101224E
S32D0000DE28FFF788FB08F0AAFF0369214602202A469847072803D0082804D008F09FFF281D00F050F82046294680
S32D0000DE50FFF7DEFBC36823B1CA6B0A640022FFF76DBB9FE7704700BF08B5836801460BB10120984708BD00BFC8
S32D0000DE78F0B5D46B171D146405460C460FCFADF5277D01AE0FC60FCF0FC60FCF0FC697E80F0086E80F004FF0F7
S32D0000DEA0FF330093109990A8FFF7B8FA034690AA68460C21BBB9FFF7F7FB21466846A847064690A908206A46EB
S32D0000DEC86EB9949B98470528064601D00928E5D16846FFF703FB30460DF5277DF0BD0926F6E700BF00F134016A
S32D0000DEF091E838009C46A6464CF8045D90E8FF0FE54600BD90EC210B704700BF80EC210B704700BF90EC200B9F
S32D0000DF18704700BF80EC200B704700BFD0EC200B704700BFC0EC200B704700BFF0EC0201F0EC0211F0EC0221E1
S32D0000DF40F0EC0231F0EC0241F0EC0251F0EC0261F0EC0271F0EC0281F0EC0291F0EC02A1F0EC02B1F0EC02C14D
S32D0000DF68F0EC02D1F0EC02E1F0EC02F1704700BFE0EC0201E0EC0211E0EC0221E0EC0231E0EC0241E0EC02510E
S32D0000DF90E0EC0261E0EC0271E0EC0281E0EC0291E0EC02A1E0EC02B1E0EC02C1E0EC02D1E0EC02E1E0EC02F1BD
S32D0000DFB8704700BFB0FC0181B0FC0191B0FC01A1B0FC01B1704700BFA0FC0181A0FC0191A0FC01A1A0FC01B15F
S32D0000DFE0704700BFEC4600B52DE900502DE9FF1F4FF000032DE90C0001A9FFF7D3FEDDF840E012B0704700BF1A
S32D0000E008EC4600B52DE900502DE9FF1F4FF000032DE90C0001A9FFF7FBFEDDF840E012B0704700BFEC4600B558
S32D0000E0302DE900502DE9FF1F4FF000032DE90C0001A9FFF707FFDDF840E012B0704700BFEC4600B52DE90050A4
S32D0000E0582DE9FF1F4FF000032DE90C0001ABFFF7CDFEDDF840E012B0704700BFEC4600B52DE900502DE9FF1FE7
S32D0000E0804FF000032DE90C0001AAFFF7F5FEDDF840E012B0704700BF027A03461AB9427A42B9B020704700680F
S32D0000E0A8013A01021A72000E196070474168501E587251F8040B0322596001021A72000E1960704710B5002178
S32D0000E0D084B00C220DEB02040B460094FFF7B0FA039804B010BD00BFF0E700BF2DE9F043064685B00D464FF070
S32D0000E0F800094FF47F672846FFF7CAFFB028044600F0B08010F0800120D000F0F003802B74D0902B37D0A02B89
S32D0000E12045D0B02B56D0C02B00F0858000F0F800D0280BD104F00702511C41F40022304601210523FFF752FC5A
S32D0000E1480028D8D0092005B0BDE8F0834FEA800203A85FFA82F800900D220B463046FFF76BFA039B600608F1CC
S32D0000E17004084CBFC8EB0303434403AC03930094002130460D220B46FFF77AFAB7E700F00F020D2ADAD00F2A17
S32D0000E198D8D0002103AC009430460B4603ACFFF74BFA0094E8E7C24302F0070C47FA0CF0210700F47F6248BFEE
S32D0000E1C042F48042002130460B46FFF70FFC0028BCD194E7B1285DD0B2286ED0B32800F0958000F0FC02B42A56
S32D0000E1E846D000F00702531C43F40022012130460B46FFF7F7FB0028A4D17CE72846FFF747FF210240EA010465
S32D0000E210B4F5004F9AD0230500211A0C30460B462401FFF7E3FB002890D114F4004F18BF4FF0010963E7C62817
S32D0000E23873D0C72800F0848000F0F802C02A00F09280C82800F0A680C9287FF47BAF2846FFF71EFF00F00F03A5
S32D0000E26000F0F0015A1C42EA013268E7B9F1000F00F0838000206AE700F00301481C022140F480220B46304656
S32D0000E288FFF7B0FB00287FF45DAF34E72846FFF7FFFE024600283FF455AF10F0F0017FF451AF30460B46FFF7DC
S32D0000E2B09DFB00287FF44AAF21E700210D220B4603AC30460094FFF7BBF92846FFF7E4FE022402060DD5039B14
S32D0000E2D800F07F0000FA04FE03EB0E0128460391FFF7D6FE07340306F1D4039B00F07F0103AA03F5017C01FAB0
S32D0000E30004F400920CEB0402039239E72846FFF7C3FE00F00F03591C00F0F00041EA003268E72846FFF7B8FE71
S32D0000E32800F00F03591C00F0F00041EA0032032130460B46FFF756FB00287FF403AFDAE62846FFF7A5FE024685
S32D0000E35000283FF4FBAE10F0F0037FF4F7AE30460421FFF743FB00287FF4F0AEC7E600F00F01481C40F4202201
S32D0000E378DDE703AC49460E224B4630460094FFF75BF9304649460F224B460094FFF774F94846D8E62846FFF7F2
S32D0000E3A07BFE00F0F00200F00F001032431C43EA0232C4E610B5C26C84B0032054688DF80C00D3792402083206
S32D0000E3C8084601A9019402928DF80D30FFF78AFE04B010BD08B5FFF783FE806C08BD00BF08B5FFF77DFEC16C46
S32D0000E3F0C87901EB800303F1080008BD08B508F0C1FC00BF08B508F0BDFC00BF80B483B000AF78607B6823F04C
S32D0000E4180043184607F10C07BD4680BC704700BF80B483B000AF78600B46FB707B68FA781A707B68184607F1B3
S32D0000E4400C07BD4680BC704780B483B000AF78600B46FB707B68FA781A707B68184607F10C07BD4680BC7047DA
S32D0000E46880B485B000AFF860B9607A603B60FB68BA681A60FB687A685A60FB683A689A60FB68BA69DA60FB6868
S32D0000E490184607F11407BD4680BC704780B483B000AF78607B681B78184607F10C07BD4680BC704780B483B0CD
S32D0000E4B800AF786039607B683A681A607B68184607F10C07BD4680BC704700BF80B485B000AFF860B9607A60B3
S32D0000E4E0FB68BA681A60FB687A685A60FB68184607F11407BD4680BC704700BF90B591B002AF3B4618464FF032
S32D0000E508030102F0E7FF43F21470C1F6FF704FF0000103F0D3FD43F21470C1F6FF704FF0010103F029FE4FF0AE
S32D0000E530100007F08BFB044643F23063C1F6FF730093204643F24461C1F6FF7143F24862C1F6FF7243F22C6330
S32D0000E558C1F6FF73FFF784FF7C634FF0040007F071FB0446204643F23461C1F6FF71FFF79DFF3C634FF0080055
S32D0000E58007F064FB0446204643F25061C1F6FF7143F23862C1F6FF72FFF79CFFFC6243F21470C1F6FF7046F659
S32D0000E5A84471C0F2010103F0EFFE00BF3B46184603F028F8034683F00103DBB2002BF5D100BF3B46184603F07C
S32D0000E5D01DF80346002BF8D143F21470C1F6FF7046F65871C0F2010103F0D2FE00BF3B46184603F01FF803467F
S32D0000E5F883F00103DBB2002BF5D100BF3B46184603F014F80346002BF8D143F21470C1F6FF7046F68471C0F264
S32D0000E620010103F0B5FE43F27070C1F6FF7005F05FFB43F21470C1F6FF7046F68C71C0F2010103F0A5FE386B95
S32D0000E64801F05CF807F1040318464FF00001FFF7F7FE786B3979D34AD34B00F06DFA786BD2494FF0000200F081
S32D0000E6705FFDF86A01F09AF807F1080318464FF00101FFF7D1FE786B397AC84A00F07CFB786BC94900F030FEB2
S32D0000E69807F10C0318464FF00101FFF7D1FE786B397BC04AC34B00F047FA786BC2494FF0000200F055FC07F1A1
S32D0000E6C0100318464FF00001FFF7AEFE786B397CB64A00F059FB786BBA4900F00DFE07F1140318464FF001016E
S32D0000E6E8FFF7AEFE786B397DAE4AB24B00F024FA786BB3494FF0000200F016FD786BAF4900F0F6FD07F11803D2
S32D0000E71018464FF00101FFF797FEAC4B0093786B397EAB4AAB4B00F041FB786BAA494FF0000200F0FDFC786B93
S32D0000E738A24900F0DDFDF86A01F07AF843F27070C1F6FF7006F082F803464FF00102144618469D49FEF7D8FD9B
S32D0000E7600346002B02D14FF000031C46E3B2002B04D0786B994900F0BFFD2AE043F27070C1F6FF7006F066F802
S32D0000E78803464FF00102144618469349FEF7C6FD0346002B02D14FF000031C46E3B2002B13D0786B8D4900F055
S32D0000E7B0A3FD0EE007F11C0318464FF00101FFF743FE786B397F794A4FF0050300F0A2F900E000BF43F27070DC
S32D0000E7D8C1F6FF7006F03AF8034618468049FEF7E1FA03461846FFF70DFE03464FF00102144618467B49FEF7E1
S32D0000E8009BFD0346002B02D14FF000031C46E3B2002BCFD1786B6B4900F06EFD07F1200318464FF00101FFF765
S32D0000E8280FFE786B97F820105E4A6F4B00F084F943F27070C1F6FF7006F008F803464FF0010214461846604927
S32D0000E850FEF75EFD0346002B02D14FF000031C46E3B2002B04D0786B5C4900F045FD2BE043F27070C1F6FF70CB
S32D0000E87805F0ECFF03464FF00102144618465649FEF74CFD0346002B02D14FF000031C46E3B2002B14D0786B00
S32D0000E8A0504900F029FD0FE007F1240318464FF00101FFF7C9FD786B97F824103B4A4FF0050300F027F900E0D0
S32D0000E8C800BF43F27070C1F6FF7005F0BFFF034618464349FEF766FA03461846FFF792FD03464FF001021446DC
S32D0000E8F018463E49FEF720FD0346002B02D14FF000031C46E3B2002BCED1786B2D4900F0F3FC786B37494FF0DF
S32D0000E918000200F009FC386B00F012FF034687F8283007F128031846FFF7B4FD0346002B14BF00230123DBB2D3
S32D0000E940002B11D043F25060C1F6FF702A4901F0DFF94FF4FA6001F0EFFC43F25060C1F6FF7001F0B5F910E043
S32D0000E96843F25060C1F6FF70174901F0CDF94FF4FA6001F0DDFC43F25060C1F6FF7001F0A3F943F21470C1F6F0
S32D0000E990FF7046F6A471C0F2010103F0F9FC4FF00003184607F13C07BD4690BD000020420000604100009441FA
S32D0000E9B800008743000000410000E441000000000000C0410000C03F0000F0410000824200002C420000AA43B1
S32D0000E9E0000000420000A0410000F8410000803F00008040000064420000F0C180B582B000AF786039607B686D
S32D0000EA08012B5CD13A684FF6FF739A4257D143F22860C1F6FF704FF0030102F05BFD43F22C60C1F6FF704FF094
S32D0000EA30000101F0C3FE43F23060C1F6FF704FF0010101F0BBFE43F23460C1F6FF704FF0080102F093FA43F244
S32D0000EA583860C1F6FF704FF0100101F0D7FC43F23C60C1F6FF704FF0110101F0CFFC43F24060C1F6FF704FF080
S32D0000EA80120101F0C7FC43F24460C1F6FF704FF0000101F009F943F24860C1F6FF704FF0010101F001F943F20B
S32D0000EAA84C60C1F6FF704FF0020101F0F9F843F25060C1F6FF704FF0030101F0F1F807F10807BD4680BD00BF1C
S32D0000EAD080B500AF4FF001004FF6FF71FFF78EFF80BD00BF80B483B000AF78607B681B78184607F10C07BD46F0
S32D0000EAF880BC704780B483B000AF78607B681B78184607F10C07BD4680BC704780B586B002AFF86039727A6041
S32D0000EB203B603B680093F868397A7A687B6800F02FF807F11007BD4680BD00BF0000000080B584B000AFF86089
S32D0000EB4839727A603B603868FDF7C2FD02460B46104619460AA3D3E90023FDF70DFE02460B4610461946FEF710
S32D0000EB70A1F80346F868397A7A68FFF7CBFF07F11007BD4680BD00BF1F85EB51B8DE4040F0B585B000AFF860FB
S32D0000EB9839727A603B60F86800F08EFD07F108031846FFF7A7FF0346002B02D0012B0DD01FE0FB681B681846C5
S32D0000EBC0796801F0A5F8FB685B681846396801F09FF812E0FB681A687B6883F000431046194601F095F8FB6805
S32D0000EBE85A683B6883F000431046194601F08CF800BF00BFFB689B68184602F093F90446FB68DB68184602F0BA
S32D0000EC108DF90346E3181846FDF74CFD02460B46104619464FF000024FF07E5303F5C003FDF7A6FD02460B46E7
S32D0000EC3814461D46B86AFDF739FD02460B464FF001010E4620462946FEF708F80346002B02D14FF000031E46C0
S32D0000EC60F3B2002BCAD1FB681B68184601F030F8FB685B68184601F02BF84FF0640001F05BFB07F11407BD4626
S32D0000EC88F0BD00BFF0B585B000AFF86039727A603B60F86800F010FD07F108031846FFF71DFF0346002B02D0DB
S32D0000ECB0012B10D01FE0FB681A687B6883F000431046194601F024F8FB685B681846796801F01EF80FE0FB682D
S32D0000ECD81B681846796801F017F8FB685A687B6883F000431046194601F00EF800BF00BFFB689B68184602F0AE
S32D0000ED0015F90446FB68DB68184602F00FF90346E3181846FDF7CEFC02460B46104619464FF000024FF07E5390
S32D0000ED2803F5C003FDF728FD02460B4614461D463868FDF7BBFC02460B464FF001010E4620462946FDF78AFFC8
S32D0000ED500346002B02D14FF000031E46F3B2002BCAD1FB681B68184600F0B2FFFB685B68184600F0ADFF4FF0F9
S32D0000ED78640001F0DDFA07F11407BD46F0BD00BF80B584B000AFF86039727A60F868397A7A684FF0CC03FFF7D1
S32D0000EDA075FF07F11007BD4680BD00BFB0B586B000AFF86039727A603B6038687968FDF7F5FF03461846B96ACE
S32D0000EDC8FEF7AEF903461846FEF7BCFA03463B614FF000037B6107F108031846FFF78AFE0346002B14BF0023E3
S32D0000EDF00123DBB2002B0CD0FB681B681846796800F086FFFB685B681846796800F080FF11E0FB681A687B6816
S32D0000EE1883F000431046194600F076FFFB685A687B6883F000431046194600F06DFF01F0C7FA68E001F0A2FAA6
S32D0000EE40024644F6D353C1F26203A3FB02134FEA93134FF47A7101FB03F3D31A002B14BF00230123DBB2002B48
S32D0000EE6851D007F108031846FFF744FE0346002B14BF00230123DBB2002B1ED0FB681C687869FEF745F803464B
S32D0000EE9018467968FDF78CFF03462046194600F037FFFB685C687869FEF736F8034618467968FDF77DFF0346F6
S32D0000EEB82046194600F028FF21E0FB681C687869FEF726F8034618467968FDF76DFF034683F0004320461946C8
S32D0000EEE000F016FFFB685C687869FEF715F8034618467968FDF75CFF034683F000432046194600F005FF7A6983
S32D0000EF083B69D3187B6101F039FA03461846FDF7FBFF0546B86A1149FEF74EF803464FF0010214462846194603
S32D0000EF30FEF7EEF90346002B02D14FF000031C46E3B2002B7FF47AAFFB681B68184600F0BFFEFB685B6818461B
S32D0000EF5800F0BAFE07F11807BD46B0BD00007A4490B585B000AFF860B9601346FB7143F21470C1F6FF7046F624
S32D0000EF80B871C0F2010103F04FF943F21470C1F6FF70B96803F010FA9EE043F27070C1F6FF7005F057FC034604
S32D0000EFA84FF0010214461846B968FEF7C1F90346002B02D14FF000031C46E3B2002B38D043F21470C1F6FF70DF
S32D0000EFD046F6CC71C0F2010103F0DAF9FB79002B0CD0FB685B6818464E4900F091FEFB681B6818464B4900F043
S32D0000EFF88BFE0BE0FB685B681846494900F084FEFB681B681846464900F07EFE4FF0640001F08EF9FB685B686F
S32D0000F020184600F055FEFB681B68184600F050FE4FF0640001F080F94EE043F27070C1F6FF7005F007FC0346E8
S32D0000F0484FF0010214461846B968FEF753F90346002B02D14FF000031C46E3B2002B37D043F21470C1F6FF70AD
S32D0000F07046F6D871C0F2010103F08AF9FB79002B0CD0FB685B681846274900F041FEFB681B681846244900F084
S32D0000F0983BFE0BE0FB685B681846204900F034FEFB681B6818461D4900F02EFE4FF0640001F03EF9FB685B6860
S32D0000F0C0184600F005FEFB681B68184600F000FE4FF0640001F030F943F27070C1F6FF7005F0B8FB0346B86896
S32D0000F0E81946FDF75FFE03461846FFF78BF903464FF00102144618460A49FEF719F90346002B02D14FF0000303
S32D0000F1101C46E3B2002B7FF440AF07F11407BD4690BD00BF0000C8C10000C8410000803F90B585B000AFF86059
S32D0000F138B9601346FB7143F21470C1F6FF7046F6E471C0F2010103F06BF843F21470C1F6FF70B96803F02CF939
S32D0000F1609EE043F27070C1F6FF7005F083FB03464FF0010214461846B968FEF7DDF80346002B02D14FF000039E
S32D0000F1881C46E3B2002B38D043F21470C1F6FF7046F6CC71C0F2010103F0F6F8FB79002B0CD0FB685B68184643
S32D0000F1B04E4900F0ADFDFB681B6818464B4900F0A7FD0BE0FB685B681846494900F0A0FDFB681B681846464933
S32D0000F1D800F09AFD4FF0640001F0AAF8FB685B68184600F071FDFB681B68184600F06CFD4FF0640001F09CF8A5
S32D0000F2004EE043F27070C1F6FF7005F033FB03464FF0010214461846B968FEF76FF80346002B02D14FF000030B
S32D0000F2281C46E3B2002B37D043F21470C1F6FF7046F6D871C0F2010103F0A6F8FB79002B0CD0FB685B681846E7
S32D0000F250274900F05DFDFB681B681846244900F057FD0BE0FB685B681846204900F050FDFB681B6818461D4922
S32D0000F27800F04AFD4FF0640001F05AF8FB685B68184600F021FDFB681B68184600F01CFD4FF0640001F04CF894
S32D0000F2A043F27070C1F6FF7005F0E4FA0346B8681946FDF77BFD03461846FFF7A7F803464FF00102144618467F
S32D0000F2C80A49FEF735F80346002B02D14FF000031C46E3B2002B7FF440AF07F11407BD4690BD00BF0000C8C1EB
S32D0000F2F00000C8410000803FB0B58AB000AF7860396043F21470C1F6FF7046F6F871C0F2010102F089FF43F282
S32D0000F3181470C1F6FF70396803F04AF801F022F803467B623868DF49FDF7DAFF0346002B4DD18BE043F270706F
S32D0000F340C1F6FF7005F0A6FA03464FF0010214461846D749FDF7E6FF0346002B02D14FF000031C46E3B2002BFD
S32D0000F3680ED007F10C0318464FF00001FFF758F87868397BCD4A4FF00103FFF783FC0DE007F1100318464FF0B6
S32D0000F3900101FFF749F87868397CC64A4FF00103FFF774FC43F21470C1F6FF7047F20C01C0F2010102F038FFC6
S32D0000F3B843F27070C1F6FF7005F068FA034643F21470C1F6FF70194602F0F2FF00E000BF43F27070C1F6FF7051
S32D0000F3E005F058FA03464FF0010214461846B249FDF784FF0346002B02D14FF000031C46E3B2002B16D143F23C
S32D0000F4087070C1F6FF7005F041FA03464FF0010214461846A749FDF78BFF0346002B02D14FF000031C46E3B26F
S32D0000F430002B09D000F09AFF02467B6AD31A042B02D84FF0010301E04FF00003002B7FF475AF27E1DFE043F2DA
S32D0000F4587070C1F6FF7005F019FA034618463968FDF7A0FC03461846FEF7CCFF03464FF00102144618468C4921
S32D0000F480FDF750FF0346002B02D14FF000031C46E3B2002B5FD043F27070C1F6FF7005F0F9F903464FF0010294
S32D0000F4A8144618463968FDF743FF0346002B02D14FF000031C46E3B2002B18D043F21470C1F6FF7047F21801E3
S32D0000F4D0C0F2010102F05CFF07F1140318464FF00001FEF7A1FF7868397D724A4FF00103FFF7CCFB8FE043F2D5
S32D0000F4F87070C1F6FF7005F0C9F903464FF00102144618463968FDF7F5FE0346002B02D14FF000031C46E3B2DE
S32D0000F520002B78D043F21470C1F6FF7047F23001C0F2010102F02CFF07F1180318464FF00101FEF771FF786839
S32D0000F548397E5A4A4FF00103FFF79CFB5FE043F27070C1F6FF7005F099F903464FF00102144618463968FDF791
S32D0000F570E3FE0346002B02D14FF000031C46E3B2002B18D043F21470C1F6FF7047F21801C0F2010102F0FCFE28
S32D0000F59807F11C0318464FF00101FEF741FF7868397F424A4FF00103FFF76CFB2FE043F27070C1F6FF7005F057
S32D0000F5C069F903464FF00102144618463968FDF795FE0346002B02D14FF000031C46E3B2002B18D043F2147004
S32D0000F5E8C1F6FF7047F23001C0F2010102F0CCFE07F1200318464FF00001FEF711FF786897F82010294A4FF0E6
S32D0000F6100103FFF73BFB43F27070C1F6FF7005F039F9054638682549FDF7C0FB03464FF0010214462846194680
S32D0000F638FDF760FE0346002B02D14FF000031C46E3B2002B1BD143F27070C1F6FF7005F01DF90546386817492A
S32D0000F660FDF7A6FB03464FF00102144628461946FDF762FE0346002B02D14FF000031C46E3B2002B09D000F06D
S32D0000F68871FE02467B6AD31A042B02D84FF0010301E04FF00003002B7FF4D9AE07F12807BD46B0BD00000000A0
S32D0000F6B0000034430000C8410000B3430000004080B582B000AF78607B689B68184601F041FC7B68DB68184692
S32D0000F6D801F03CFC07F10807BD4680BD80B483B000AF78600B46FB707B68FA781A707B68184607F10C07BD46BC
S32D0000F70080BC704790B583B000AF786000BF7B681B68184601F044FC03464FF00102144618460849FDF708FEA7
S32D0000F7280346002B02D14FF000031C46E3B2002BE9D107F10C07BD4690BD00BF0000803F90B585B000AF786074
S32D0000F7507B681B68184601F023FC03464FF00102144618461049FDF7E7FD0346002B02D14FF000031C46E3B2C3
S32D0000F778002B08D007F1080318464FF00001FFF7ADFF3B7A07E007F10C0318464FF00101FFF7A4FF3B7B18462E
S32D0000F7A007F11407BD4690BD0000003F80B582B000AF78607B685B68184600F05BFF0346002B06D0786800F043
S32D0000F7C819F84FF4FA7000F0B3FD7B681B681846074900F099FA40F2DC5000F0A9FD7B681B68184600F070FA0C
S32D0000F7F007F10807BD4680BD000048C280B582B000AF78607B681B6818460A4900F080FA00BF7B685B68184668
S32D0000F81800F02CFF0346002BF7D17B681B68184600F052FA07F10807BD4680BD0000484280B582B000AF7860AC
S32D0000F8407B681B681846084900F062FA4FF4FA7000F072FD7B681B68184600F039FA07F10807BD4680BD00BF40
S32D0000F8680000484280B500AF43F6E072C1F6FF7243F22863C1F6FF73D31A194643F22863C1F6FF731A460B4682
S32D0000F89010464FF000011A4605F04FF980BD00BF06F0B8F900F0B0F9FFF7E0FF06F08AF906F026F906F0BEF9CB
S32D0000F8B800F00CF84FF0000043F25461C1F6FF71FEF718FE0346184605F00EF980B500AF4FF4E043C4F2040329
S32D0000F8E04FF4E042C4F2040202F5805202F13802126842F4785203F5805303F138031A6000F02EF900F094F862
S32D0000F90843F26063C1F6FF734FF058021A6043F26063C1F6FF731B684FF47A7202FB03F243F25C63C1F6FF73BB
S32D0000F9301A6043F25C63C1F6FF731B681A464FF4E043C4F2040303F5825303F104031B6803F070634FEA13634C
S32D0000F95803F10103B2FBF3F31A4643F26463C1F6FF731A604FF4E043C4F204034FF4E042C4F2040202F58052EA
S32D0000F98002F13C02126842F0225203F5805303F13C031A604FF4E043C4F204034FF4E042C4F2040202F5805283
S32D0000F9A802F13002126842F0006203F5805303F130031A604FF45043C4F203034FF480721A614FF0640000F0BD
S32D0000F9D047FB4FF45043C4F203034FF45042C4F20302526922F010025A614FF45043C4F203034FF000021A60BE
S32D0000F9F84FF45043C4F203034FF010025A6101F0FDFB01F0A5FC43F25860C1F6FF7000F0A7FB43F21470C1F6B3
S32D0000FA20FF7002F037FA41F2883000F085FC80BD80B400AF4FF48043C4F206034FF000025A704FF48043C4F21E
S32D0000FA4806034FF098021A704FF48043C4F206039B79DBB203F01003002B0CBF00230123DBB2002BF0D14FF4BF
S32D0000FA708043C4F206039B79DBB203F00C034FEA9303022B0CBF00230123DBB2002BEED14FF48043C4F20603F9
S32D0000FA984FF018021A714FF48043C4F206034FF000025A714FF4E043C4F2040303F5825303F104034FF000025F
S32D0000FAC0C0F213121A604FF48043C4F206034FF054025A7100BF4FF48043C4F206039B79DBB203F02003002B3C
S32D0000FAE814BF00230123DBB2002BF0D100BF4FF48043C4F206039B79DBB203F04003002B14BF00230123DBB230
S32D0000FB10002BF0D14FF48043C4F206034FF48042C4F206021278D2B202F03F02D2B21A704FF48043C4F206033F
S32D0000FB389B79DBB203F00C034FEA9303032B0CBF00230123DBB2002BEED14FF000031846BD4680BC704700BF21
S32D0000FB6080B400AF4FF44043C4F204034FF480725A634FF2C003C4F20F034FF2C002C4F20F02526942F4005246
S32D0000FB885A614FF2C003C4F20F034FF2C002C4F20F02126842F400521A604FF44043C4F2040340F20312C0F206
S32D0000FBB00A021A634FF46143CEF200034FF46142CEF20002D2F8882142F08062C3F888214FF46143CEF20003B7
S32D0000FBD84FF46142CEF20002926842F080629A60BD4680BC704700BF80B483B000AF7860FEE700BF80B400AF25
S32D0000FC0000BEBD4680BC704780B400AF4FF0E0224CF20003C0F20003C2F8083D4FF40053C4F205034CF2205205
S32D0000FC28DA814FF40053C4F205034DF62812DA814FF40053C4F205034FF0D2021A80BD4680BC704780B400AF4D
S32D0000FC504FF44043C4F20403D3F8A03003F48053002B0CBF00230123DBB2002B19D04FF44043C4F204034FF4FA
S32D0000FC784042C4F20402D2F8A02022F48052C3F8A0204FF2C003C4F20F034FF2C002C4F20F02126822F40052BB
S32D0000FCA01A60BD4680BC704780B483B000AF78600B46FB707B68FA781A707B684FF000025A707B68184607F116
S32D0000FCC80C07BD4680BC704780B582B000AF78607B685B78002B10D07B684FF000025A707B681B7843F2586005
S32D0000FCF0C1F6FF7019464FF000024FF01E0300F07DFA07F10807BD4680BD00BF0000000090B585B000AF786052
S32D0000FD1839604FF001031C4638682F49FDF7EAFA0346002B02D14FF000031C46E3B2002B02D0294B3B6011E012
S32D0000FD404FF001031C4638682649FDF7F5FA0346002B02D14FF000031C46E3B2002B01D0204B3B603868FCF7E9
S32D0000FD68B7FC02460B46104619464FF000024FF0804303F5B203FCF729FE02460B461046194613A3D3E900237F
S32D0000FD90FCF7F6FC02460B4610461946FCF78AFF0346FB737B685B78FA7B9A420FD07B68FA7B5A707B681A7862
S32D0000FDB8FB7B43F25860C1F6FF7011461A464FF01E0300F017FA07F11407BD4690BD00BF0000000000C05F40FB
S32D0000FDE00000C8C20000C84290B486B000AFF860B9607A60FA684FF42043C4F206039A4214D14FF4E043C4F249
S32D0000FE0804034FF4E042C4F2040202F5805202F13402126842F4806203F5805303F134031A6083E0FA684FF4A8
S32D0000FE303043C4F206039A4214D14FF4E043C4F204034FF4E042C4F2040202F5805202F13402126842F4006269
S32D0000FE5803F5805303F134031A6067E0FA684FF44043C4F206039A4214D14FF4E043C4F204034FF4E042C4F2DF
S32D0000FE80040202F5805202F13402126842F4805203F5805303F134031A604BE0FA684FF45043C4F206039A426C
S32D0000FEA814D14FF4E043C4F204034FF4E042C4F2040202F5805202F13402126842F4005203F5805303F1340319
S32D0000FED01A602FE0FA684FF42043C4F20E039A4214D14FF4E043C4F204034FF4E042C4F2040202F5805202F1EB
S32D0000FEF82802126842F4806203F5805303F128031A6013E04FF4E043C4F204034FF4E042C4F2040202F58052BC
S32D0000FF2002F12802126842F4006203F5805303F128031A60FB68DB78DBB223F00C03DAB2FB68DA70FB684FF0E0
S32D0000FF4800029A70BB684FF47A7202FB03F27B684FEA031392FBF3F39CB2FB681B78DBB223F01F03FB752346B7
S32D0000FF7003F4F8534FEA2323DBB203F01F03DAB2FB7D1343DAB2FB681A70E2B2FB685A70BB684FF4FA4202FBCD
S32D0000FF9803F27B684FEA031392FBF3F39AB2234619464FEAC121CB1A4FEA43139BB2D3189CB2FB689B7ADBB273
S32D0000FFC023F01F03FB75E3B203F01F03DAB2FB7D1343DAB2FB689A72FB68DB78DBB243F00C03DAB2FB68DA70B1
S32D0000FFE807F11807BD4690BC704700BF80B483B000AF786000BF7B681B79DBB203F02003002B14BF0023012303
S32D00010010DBB2002BF3D17B68DB79DBB2184607F10C07BD4680BC704780B483B000AF78600B46FB7000BF7B68D6
S32D000100381B79DBB2DBB26FEA0303DBB24FEAD313DBB2002BF3D17B68FA78DA7107F10C07BD4680BC704700BF04
S32D0001006080B483B000AF78604FF4E043C4F204034FF4E042C4F2040202F5805202F13802126842F0010203F5A2
S32D00010088805303F138031A604FF00003C4F204037A689A604FF00003C4F204034FF005025A604FF00003C4F2FB
S32D000100B004034FF00002C4F20402126842F001021A6000BF4FF00003C4F204031B6803F08003002B14BF00231C
S32D000100D80123DBB2002BF1D14FF00003C4F204034FF00002C4F20402126822F001021A6007F10C07BD4680BC0C
S32D00010100704700BF80B582B000AF786039607B68012B0AD13A684FF6FF739A4205D143F25860C1F6FF7000F0DB
S32D000101280FF807F10807BD4680BD00BF80B500AF4FF001004FF6FF71FFF7E0FF80BD00BF80B483B000AF786003
S32D000101507B684FF000021A707B68184607F10C07BD4680BC704700BF80B582B000AF78607B681B7883F00103F6
S32D00010178DBB2002B36D04FF4E043C4F2040303F5805303F128034FF400621A604FF45043C4F204034FF44072E6
S32D000101A01A624FF45043C4F204034FF440725A6243F25C63C1F6FF731B684FEAD372D3184FEA63034FF4304015
S32D000101C8C4F20E0019464FF46142FFF709FE4FF0640000F0ADF87B684FF001021A704FF0010301E04FF00003B5
S32D000101F0184607F10807BD4680BD00BF80B582B000AF7860F970BA707B704FF43040C4F20E004FF07F01FFF7E4
S32D0001021807FF4FF43040C4F20E004FF00801FFF7FFFEFB784FF43040C4F20E001946FFF7F7FEBB784FF43040E5
S32D00010240C4F20E001946FFF7EFFE7B784FF43040C4F20E001946FFF7E7FE4FF43040C4F20E004FF0FF01FFF739
S32D00010268DFFE07F10807BD4680BD00BF80B487B000AFF860B9607A60FA6844F6D353C1F26203A3FB02134FEA59
S32D000102909312BB68D3187B61FA6844F6D353C1F26203A3FB02134FEA93134FF47A7101FB03F3D31AFB60FB6879
S32D000102B84FEAC33244F6D353C1F26203A3FB02134FEA93127B68D3183B613B694FEAD3337A69D3187B613B6945
S32D000102E04FEA43434FEA53433B614FF45043C4F203031B681A467B699A4211D34FF45043C4F203031B681A4637
S32D000103087B699A420BD14FF45043C4F203035B681A463B699A4202D24FF0010301E04FF00003002BDDD107F1EA
S32D000103301C07BD4680BC704780B584B000AF78604FF45043C4F203031B68FB604FF45043C4F203035B68BB60B5
S32D000103587B681846F968BA68FFF788FF07F11007BD4680BD80B400AF4FF45043C4F203031B681846BD4680BC51
S32D00010380704700BF80B483B000AF4FF45043C4F203031B684FF47A7202FB03F37B604FF45043C4F203035B685B
S32D000103A84FF47A7202FB03F34FEAD3337A68D3187B607B68184607F10C07BD4680BC704780B400AF4FF4504322
S32D000103D0C4F203034FF45042C4F20302526922F010025A614FF45043C4F203034FF000021A604FF45043C4F23F
S32D000103F803034FF000025A604FF45043C4F203034FF010025A61BD4680BC704780B582B000AF78600B46FB7097
S32D00010420FB787868194600F013F87B68184607F10807BD4680BD00BF80B483B000AF78607B68184607F10C077F
S32D00010448BD4680BC704700BF80B483B000AF78600B46FB707B68FA781A707B681B781A4647F28423C0F20103DB
S32D000104709B5C042B00F2F98001A252F823F000BF95040100F304010051050100AF0501000D0601004FF41043C5
S32D00010498C4F204037A681278114647F2C822C0F2010252F8212040F2031143F822104FF47043C4F20F034FF49E
S32D000104C07042C4F20F02526911467A681278104647F2C822C0F2010252F8202002F01F024FF0010000FA02F21D
S32D000104E86FEA02020A405A61BBE04FF42043C4F204037A681278114647F2C822C0F2010252F8212040F2031119
S32D0001051043F822104FF24003C4F20F034FF24002C4F20F02526911467A681278104647F2C822C0F2010252F8C3
S32D00010538202002F01F024FF0010000FA02F26FEA02020A405A618CE04FF43043C4F204037A681278114647F2D6
S32D00010560C822C0F2010252F8212040F2031143F822104FF28003C4F20F034FF28002C4F20F02526911467A6885
S32D000105881278104647F2C822C0F2010252F8202002F01F024FF0010000FA02F26FEA02020A405A615DE04FF4DF
S32D000105B04043C4F204037A681278114647F2C822C0F2010252F8212040F2031143F822104FF2C003C4F20F0337
S32D000105D84FF2C002C4F20F02526911467A681278104647F2C822C0F2010252F8202002F01F024FF0010000FAA7
S32D0001060002F26FEA02020A405A612EE04FF45043C4F204037A681278114647F2C822C0F2010252F8212040F27C
S32D00010628031143F822104FF47143C4F20F034FF47142C4F20F02526911467A681278104647F2C822C0F20102FA
S32D0001065052F8202002F01F024FF0010000FA02F26FEA02020A405A6100BF07F10C07BD4680BC704780B485B025
S32D0001067800AF78604FF00003FB607B681B781A4647F28423C0F201039B5C042B00F2868001A252F823F000BFE6
S32D000106A0B5060100E50601001507010045070100750701004FF47043C4F20F031B691A467B681B78194647F2EC
S32D000106C8C823C0F2010353F8213003F01F034FF0010101FA03F31340FB605FE04FF24003C4F20F031B691A4662
S32D000106F07B681B78194647F2C823C0F2010353F8213003F01F034FF0010101FA03F31340FB6047E04FF28003B0
S32D00010718C4F20F031B691A467B681B78194647F2C823C0F2010353F8213003F01F034FF0010101FA03F3134021
S32D00010740FB602FE04FF2C003C4F20F031B691A467B681B78194647F2C823C0F2010353F8213003F01F034FF0D1
S32D00010768010101FA03F31340FB6017E04FF47143C4F20F031B691A467B681B78194647F2C823C0F2010353F82D
S32D00010790213003F01F034FF0010101FA03F31340FB6000BFFB68002B0CBF00230123DBB2184607F11407BD4694
S32D000107B880BC704780B584B000AF78600B46FB704FF00B03FB73FA78FB7B786811461A4600F0ECF87B68184624
S32D000107E007F11007BD4680BD80B485B000AF78607B68A3F11003002B01DA03F11F034FEA6313FB60FB68012B6C
S32D0001080848D0022B00F08980002B40F0C9804FF46142CEF200024FF46143CEF20003D3F8803119467B68A3F13B
S32D0001083010004FF01F03C8F200030340002B05DA03F1FF3363F01F0303F101034FF0010000FA03F30B43C2F853
S32D0001085880314FF46142CEF200024FF46143CEF200031B6819467B68A3F110004FF01F03C8F200030340002B79
S32D0001088005DA03F1FF3363F01F0303F101034FF0010000FA03F30B43136085E04FF46142CEF200024FF46143F2
S32D000108A8CEF20003D3F8843119467B68A3F110004FF01F03C8F200030340002B05DA03F1FF3363F01F0303F1FE
S32D000108D001034FF0010000FA03F30B43C2F884314FF46142CEF200024FF46143CEF200035B6819467B68A3F11D
S32D000108F810004FF01F03C8F200030340002B05DA03F1FF3363F01F0303F101034FF0010000FA03F30B43536092
S32D0001092042E04FF46142CEF200024FF46143CEF20003D3F8883119467B68A3F110004FF01F03C8F20003034069
S32D00010948002B05DA03F1FF3363F01F0303F101034FF0010000FA03F30B43C2F888314FF46142CEF200024FF407
S32D000109706143CEF200039B6819467B68A3F110004FF01F03C8F200030340002B05DA03F1FF3363F01F0303F10E
S32D0001099801034FF0010000FA03F30B43936000BF07F11407BD4680BC704700BF80B584B000AF786013460A469B
S32D000109C0FA70BB707B68FA781A70BB78FB737B681B781A4647F28423C0F201039B5C042B00F2F68001A252F80C
S32D000109E823F000BF010A0100750A0100E90A0100D10B01005D0B01004FF41043C4F204037A681278114647F2F9
S32D00010A10C822C0F2010252F82110FA7B4FEA024202F4702242F4887242F0030243F821204FF47043C4F20F0382
S32D00010A384FF47042C4F20F02526911467A681278104647F2C822C0F2010252F8202002F01F024FF0010000FA50
S32D00010A6002F26FEA02020A405A614FF06700FFF7BBFEADE04FF42043C4F204037A681278114647F2C822C0F234
S32D00010A88010252F82110FA7B4FEA024202F4702242F4887242F0030243F821204FF24003C4F20F034FF2400295
S32D00010AB0C4F20F02526911467A681278104647F2C822C0F2010252F8202002F01F024FF0010000FA02F26FEA80
S32D00010AD802020A405A614FF06800FFF781FE73E04FF43043C4F204037A681278114647F2C822C0F2010252F81F
S32D00010B002110FA7B4FEA024202F4702242F4887242F0030243F821204FF28003C4F20F034FF28002C4F20F0222
S32D00010B28526911467A681278104647F2C822C0F2010252F8202002F01F024FF0010000FA02F26FEA02020A4080
S32D00010B505A614FF06900FFF747FE39E04FF45043C4F204037A681278114647F2C822C0F2010252F82110FA7BA1
S32D00010B784FEA024202F4702242F4887242F0030243F821204FF47143C4F20F034FF47142C4F20F0252691146D8
S32D00010BA07A681278104647F2C822C0F2010252F8202002F01F024FF0010000FA02F26FEA02020A405A614FF020
S32D00010BC86B00FFF70DFE00BF07F11007BD4680BDB0B48BB000AF47F24003C0F2010307F104041D460FCD0FC4F2
S32D00010BF095E80F0084E80F004FF000037B6248E04FF42043C4F20403D3F8A0301A467B6A4FEA830307F1280066
S32D00010C18C31853F8243C4FF0010101FA03F31340002B0CBF00230123DBB2002B29D043F28863C1F6FF737A6A87
S32D00010C4053F8223003F1010143F28863C1F6FF737A6A43F822104FF42043C4F204034FF42042C4F20402D2F8CA
S32D00010C68A02011467A6A4FEA820207F12800821852F8242C4FF0010000FA02F20A40C3F8A0207B6A03F1010381
S32D00010C907B627B6A072BCCBF00230123DBB2002BAED107F12C07BD46B0BC7047B0B489B000AF47F26003C0F24D
S32D00010CB8010307F104041D460FCD0FC495E8030084E803004FF00003FB6149E04FF43043C4F20403D3F8A03033
S32D00010CE01A46FB694FEA830307F12000C31853F81C3C4FF0010101FA03F31340002B0CBF00230123DBB2002B52
S32D00010D082AD0FB6903F1080243F28863C1F6FF7353F8223003F1010143F28863C1F6FF7343F822104FF4304318
S32D00010D30C4F204034FF43042C4F20402D2F8A0201146FA694FEA820207F12000821852F81C2C4FF0010000FAE7
S32D00010D5802F20A40C3F8A020FB6903F10103FB61FB69052BCCBF00230123DBB2002BADD107F12407BD46B0BCCD
S32D00010D80704700BFB0B48DB000AF47F27803C0F201033C461D460FCD0FC40FCD0FC495E8070084E807004FF09B
S32D00010DA80003FB6249E04FF41043C4F20403D3F8A0301A46FB6A4FEA830307F13000C31853F8303C4FF0010126
S32D00010DD001FA03F31340002B0CBF00230123DBB2002B2AD0FB6A03F10E0243F28863C1F6FF7353F8223003F17E
S32D00010DF8010143F28863C1F6FF7343F822104FF41043C4F204034FF41042C4F20402D2F8A0201146FA6A4FEAF2
S32D00010E20820207F13000821852F8302C4FF0010000FA02F20A40C3F8A020FB6A03F10103FB62FB6A092BCCBFE6
S32D00010E4800230123DBB2002BADD107F13407BD46B0BC7047B0B487B000AF47F2A403C0F201033C461D460FCD04
S32D00010E700FC42B6823604FF000037B6149E04FF45043C4F20403D3F8A0301A467B694FEA830307F11800C31807
S32D00010E9853F8183C4FF0010101FA03F31340002B0CBF00230123DBB2002B2AD07B6903F1180243F28863C1F64F
S32D00010EC0FF7353F8223003F1010143F28863C1F6FF7343F822104FF45043C4F204034FF45042C4F20402D2F85A
S32D00010EE8A02011467A694FEA820207F11800821852F8182C4FF0010000FA02F20A40C3F8A0207B6903F101031D
S32D00010F107B617B69042BCCBF00230123DBB2002BADD107F11C07BD46B0BC704780B483B000AF78607B681B7816
S32D00010F381A4643F28863C1F6FF7353F82230184607F10C07BD4680BC704700BF80B483B000AF78607B681B78C2
S32D00010F601A4643F28863C1F6FF734FF0000143F8221007F10C07BD4680BC704780B483B000AF78600B46FB7061
S32D00010F887B68FA781A707B68184607F10C07BD4680BC70470000000080B586B000AF78607B681B781A4647F218
S32D00010FB04833C0F2010353F822303B617B681B781A4647F2A423C0F201039B5CFB733B69DBB203F01F03DAB2E5
S32D00010FD843F26863C1F6FF731A723B69DBB203F01F03DAB243F26863C1F6FF735A724FF46143CEF200034FF085
S32D000110001002C3F88820FB7B002B1ED14FF43040C4F2030043F26861C1F6FF7100F0C4FB4FF43043C4F203030A
S32D000110281B6803F08003002B14BF00230123DBB2002BF1D14FF43043C4F203031B697B611DE04FF43040C4F2A9
S32D000110500B0043F26861C1F6FF7100F0A5FB4FF43043C4F20B031B6803F08003002B14BF00230123DBB2002B41
S32D00011078F1D14FF43043C4F20B031B697B614FF46143CEF200034FF46142CEF20002D2F8882142F01002C3F8E9
S32D000110A088214FF46143CEF200034FF46142CEF20002926842F010029A607B694FEA03434FEA13431846FBF7AC
S32D000110C8E5FA02460B46104619460FA3D3E90023FBF752FB02460B46104619460CA3D3E90023FBF773FC024677
S32D000110F00B4610461946FBF705FE0346BB60BB68184607F11807BD4680BD00BFAFF30080A4703D0AD7A30A409A
S32D0001111800000000E0FFEF4080B586B000AF78607B681B781A4647F24833C0F2010353F822303B617B681B78B9
S32D000111401A4647F2A423C0F201039B5CFB733B69DBB203F01F03DAB243F27863C1F6FF731A723B69DBB203F04A
S32D000111681F03DAB243F27863C1F6FF735A72FB7B002B1ED14FF43040C4F2030043F27861C1F6FF7100F00CFB7D
S32D000111904FF43043C4F203031B6803F08003002B14BF00230123DBB2002BF1D14FF43043C4F203031B697B6134
S32D000111B81DE04FF43040C4F20B0043F27861C1F6FF7100F0EDFA4FF43043C4F20B031B6803F08003002B14BF1A
S32D000111E000230123DBB2002BF1D14FF43043C4F20B031B697B617B69184607F11807BD4680BD00BF98B500AFF1
S32D0001120843F26863C1F6FF734FF05C021A7043F26863C1F6FF734FF010025A7043F26863C1F6FF7341F2342271
S32D000112305A8043F26863C1F6FF7345F278629A8043F26863C1F6FF734FF010029A7143F26863C1F6FF734FF074
S32D000112580702DA7143F26863C1F6FF734FF4C022DA6043F26863C1F6FF734FF01F021A7243F26863C1F6FF734D
S32D000112804FF01F025A724FF43040C4F2030043F26861C1F6FF7100F087FA4FF43040C4F20B0043F26861C1F6E8
S32D000112A8FF7100F07DFA4FF43040C4F20B0000F0D1F94FF43040C4F2030000F0CBF94FF43040C4F20B0043F249
S32D000112D06861C1F6FF7100F067FA4FF43040C4F2030043F26861C1F6FF7100F05DFA43F27862C1F6FF7243F26A
S32D000112F86863C1F6FF7314460FCB84E80F0043F27863C1F6FF734FF05C021A7043F27863C1F6FF734FF0040246
S32D00011320DA7198BD80B500AF43F20C73C1F6FF731B6803F1010243F20C73C1F6FF731A6000F04CF84FF4E043D2
S32D00011348C4F203034FF00102C3F80C2180BD00BF80B500AF4FF4E043C4F203034FF001021A6048F2A060C0F2E6
S32D00011370010000F023F84FF4E043C4F203034FF00302C3F808214FF46143CEF200034FF46142CEF20002D2F8DC
S32D00011398882142F01002C3F888214FF46143CEF200034FF46142CEF20002926842F010029A6080BD80B483B0A7
S32D000113C000AF78604FF4E043C4F203037A68C3F8002107F10C07BD4680BC704780B584B000AF43F20873C1F617
S32D000113E8FF731B68FB6029E0FB685B78FB71FB689B68184600F02EF80346BB71BB79002B19D0FB685B68012BF2
S32D0001141015DDFB689B681B69BB6008E0BB685B6803F10102BB685A60BB681B69BB60BB68002B0CBF00230123F2
S32D00011438DBB2002BEED1FB68DB68FB60FB68002B0CBF00230123DBB2002BCDD107F11007BD4680BD80B584B05F
S32D0001146000AF78607868FFF75BFE0346FB607B689B695B78FB72FB7A002B12D17B68DA68FB689A420DDA7B682B
S32D000114889B694FF001025A707B685B6803F101027B685A604FF0010317E0FB7A012B12D17B689A68FB689A4209
S32D000114B00DDD7B689B694FF000025A707B685B6803F101027B685A604FF0010301E04FF00003184607F1100724
S32D000114D8BD4680BD80B582B000AF78600B46FB707B681846FEF7A4FF7B6803F101031846FEF79EFF7B6803F180
S32D0001150002031846FEF798FFFB78032B66D801A252F823F0251501005315010081150100AF1501007B681846AD
S32D000115284FF00001FEF790FF7B6803F1010318464FF00101FEF788FF7B6803F1020318464FF00201FEF780FFEA
S32D0001155044E07B6818464FF00801FEF779FF7B6803F1010318464FF00901FEF771FF7B6803F1020318464FF0F2
S32D000115780A01FEF769FF2DE07B6818464FF01001FEF762FF7B6803F1010318464FF01101FEF75AFF7B6803F139
S32D000115A0020318464FF01201FEF752FF16E07B6818464FF01801FEF74BFF7B6803F1010318464FF01901FEF7CC
S32D000115C843FF7B6803F1020318464FF01A01FEF73BFF00BF7B68184607F10807BD4680BD80B582B000AF7860BA
S32D000115F07B681846FFF73EF8034683F00103DBB2184607F10807BD4680BD00BF80B582B000AF78607B6803F1E9
S32D0001161801031846FFF72AF8034683F00103DBB2184607F10807BD4680BD00BF80B582B000AF78607B6803F1B3
S32D0001164002031846FFF716F8034683F00103DBB2184607F10807BD4680BD00BF80B485B000AF78607B681B6A0B
S32D0001166823F040027B681A627B685B6A23F00B027B685A627B685B6A43F007027B685A627B685B6A43F0800258
S32D000116907B685A627B681B6803F08003002B14BF00230123DBB2002BF4D17B685B6A03F04003002B0CBF0023F7
S32D000116B80123DBB2002B02D04FF0010369E04FF00003FB817B68DB6CFB817B689B6C9AB2FB89D318FB817B6861
S32D000116E05B6C9AB2FB89D318FB817B681B6C9AB2FB89D318FB817B68DB6B9AB2FB89D318FB817B689B6B9AB2A7
S32D00011708FB89D318FB81FB894FEA5303FB81FB896FEA43436FEA5343FB81FA897B68DA624FF00003FB817B6827
S32D00011730DB6EFB817B689B6E9AB2FB89D318FB817B685B6E9AB2FB89D318FB817B681B6E9AB2FB89D318FB811C
S32D000117587B68DB6D9AB2FB89D318FB817B689B6D9AB2FB89D318FB81FB894FEA5303FB81FB896FEA43436FEA93
S32D000117805343FB81FA897B681A637B685B6A23F080027B685A624FF00003184607F11407BD4680BC704700BF01
S32D000117A880B483B000AF786039603B681B781A467B689A603B685B781A467B68DA603B685B881A467B689A6161
S32D000117D03B689B881A467B68DA613B689B791A467B681A623B68DB791A467B685A623B68DA687B681A653B6850
S32D000117F81B7A1A467B681A603B685B7A1A467B685A6007F10C07BD4680BC704780B483B000AF78607B681846CB
S32D0001182007F10C07BD4680BC704700BF80B582B000AF786039607B68012B0AD13A684FF6FF739A4205D143F228
S32D000118481070C1F6FF70FFF7E1FF07F10807BD4680BD00BF80B500AF4FF001004FF6FF71FFF7E0FF80BD00BF45
S32D0001187080B582B000AF78604FF43043C4F204034FF48072DA604FF42043C4F204034FF480729A644FF420433D
S32D00011898C4F204034FF480721A644FF42043C4F204034FF480725A644FF42043C4F204034FF48072DA604FF248
S32D000118C08003C4F20F034FF28002C4F20F02526942F008025A614FF24003C4F20F034FF24002C4F20F02526921
S32D000118E842F480225A614FF24003C4F20F034FF24002C4F20F02526942F480325A614FF24003C4F20F034FF2BD
S32D000119104002C4F20F02526942F400325A614FF24003C4F20F034FF24002C4F20F02126842F008021A604FF2BA
S32D000119384003C4F20F034FF24002C4F20F02526942F008025A614FF28003C4F20F034FF28002C4F20F021268E9
S32D0001196042F008021A604FF42043C4F204034FF480725A624FF42043C4F204034FF480721A624FF43043C4F2CE
S32D0001198804034FF480721A614FF43043C4F204034FF480725A614FF43043C4F204034FF480729A614FF43043BD
S32D000119B0C4F204034FF48072DA614FF43043C4F204034FF480721A634FF43043C4F204034FF480725A634FF40E
S32D000119D83043C4F204034FF480729A634FF43043C4F204034FF48072DA634FF43043C4F204034FF480721A6473
S32D00011A004FF43043C4F204034FF480725A644FF43043C4F204034FF480729A644FF43043C4F204034FF4807203
S32D00011A28DA644FF44043C4F204034FF480721A604FF44043C4F204034FF480729A604FF44043C4F204034FF4A7
S32D00011A508072DA604FF44043C4F204034FF480721A614FF24003C4F20F034FF24002C4F20F02526942F44072CF
S32D00011A785A614FF28002C4F20F024FF28003C4F20F035B6919464FF2F003C0F20F030B4353614FF2C003C4F297
S32D00011AA00F034FF2C002C4F20F02526942F01D025A6178684FF0E20100F0A8FC78684FF01D0100F0E7FD7868ED
S32D00011AC84FF0020100F0E2FD78684FF0040100F0DDFD78684FF0E00100F094FC78684FF0010100F0D3FD4FF050
S32D00011AF06400FEF721FC78684FF0E00100F086FC78684FF0030100F0C5FD78684FF0010100F07CFC4FF0010041
S32D00011B18FEF70EFC78684FF0E60100F073FC78684FF0010100F0B2FD78684FF0A00100F0ADFD78684FF0FF0101
S32D00011B4000F0A8FD78684FF0B00100F05FFC78684FF01C0100F09EFD78684FF00F0100F099FD78684FF0010129
S32D00011B6800F094FD78684FF03F0100F08FFD78684FF0000100F08AFD78684FF0EF0100F085FD78684FF00001BA
S32D00011B9000F080FD78684FF0B40100F037FC78684FF0010100F076FD78684FF0990100F071FD78684FF0000107
S32D00011BB800F06CFD78684FF0450100F067FD78684FF0020100F062FD78684FF0000100F05DFD78684FF00001F1
S32D00011BE000F058FD78684FF0000100F053FD78684FF0B60100F00AFC78684FF0010100F049FD78684FF00901E5
S32D00011C0800F044FD78684FF0000100F03FFD78684FF00E0100F03AFD78684FF0020100F035FD78684FF0000177
S32D00011C3000F030FD78684FF0000100F02BFD78684FF0BA0100F0E2FB78684FF00F0100F021FD4FF06400FEF7B4
S32D00011C586FFB78684FF03A0100F0D4FB78684FF0600100F013FD78684FF02A0100F0CAFB78684FF0000100F04B
S32D00011C8009FD78684FF0000100F004FD78684FF0010100F0FFFC78684FF03F0100F0FAFC78684FF02B0100F092
S32D00011CA8B1FB78684FF0000100F0F0FC78684FF0000100F0EBFC78684FF0000100F0E6FC78684FF0EF0100F07D
S32D00011CD0E1FC78684FF0360100F098FB78684FF0000100F0D7FC78684FF0F00100F08EFB78684FF0040100F0AF
S32D00011CF8CDFC78684FF0B80100F084FB78684FF00F0100F0C3FC78684FF0010100F0BEFC4FF24003C4F20F03B8
S32D00011D204FF24002C4F20F02126842F008021A604FF06400FEF700FB78684FF0360100F065FB78684FF00001C1
S32D00011D4800F0A4FC78684FF0F00100F05BFB78684FF0040100F09AFC43F21470C1F6FF704FF0010100F0AAF929
S32D00011D7043F21470C1F6FF704FF06F014FF01E0200F0A4F843F21470C1F6FF704FF0000100F0F6F943F2147014
S32D00011D98C1F6FF7047F2B801C0F201014FF05A024FF0AF0300F010FA78684FF0290100F029FB4FF06400FEF7D5
S32D00011DC0BBFA78684FF0BE0100F020FB78684FF00E0100F05FFC78684FF0F00100F05AFC78684FF0010100F076
S32D00011DE855FC78684FF0000100F050FC78684FF0000100F04BFC78684FF00F0100F046FC43F21470C1F6FF7088
S32D00011E104FF0010100F0B4F943F21470C1F6FF704FF0000100F084F907F10807BD4680BD80B582B000AF786004
S32D00011E387B684FF00002DA617B684FF001021A627B684FF00E025A607B684FF01A029A607B684FF000025A6178
S32D00011E607B684FF000029A617B684FF4A072DA607B684FF0F0021A617B684FF000021A70786801F02DFA7B68AA
S32D00011E88184607F10807BD4680BD00BF80B582B000AF786043F25073C1F6FF731B7883F00103DBB2002B09D01D
S32D00011EB043F25073C1F6FF734FF001021A707868FFF7D6FC07F10807BD4680BD80B58AB002AFF860B9607A60BC
S32D00011ED84FF07E030093F868B9687A684FF0620300F05AFE4FF00003FB614FF00003BB6155E04FF000037B61EA
S32D00011F0045E040F20043C1F6FF73FA699B181B78002B09D14FF0FF03FB744FF0FF03BB744FF0FF037B741BE0F6
S32D00011F2840F20043C1F6FF73FA699B181B78012B09D14FF0D403FB744FF00003BB744FF026037B7408E04FF0C9
S32D00011F50B503FB744FF0BA03BB744FF0B0037B74F97CBA7C7B7CF86800F08AF80246FB68DA61F86801F0B4F9D7
S32D00011F78F86801F051F8FB6903F10103FB617B6903F101037B617B69612BCCBF00230123DBB2002BB1D1BB6990
S32D00011FA003F10103BB61BB697D2BCCBF00230123DBB2002BA1D107F12007BD4680BD00BF80B485B000AF786028
S32D00011FC80B46FB70FB78062B2ED801A252F823F0FD1F0100F51F0100052001000D200100152001001D2001008A
S32D00011FF0252001006FF07F43FB6019E04FF00003FB6015E04FF47F03FB6011E04FF47F43FB600DE04FF0FF03D6
S32D00012018FB6009E04FF41903FB6005E049F69913C0F29903FB6000BFFB68184607F11407BD4680BC704700BFDA
S32D0001204080B584B000AF786039603B6803F47F034FEA1343FB733B6803F47F434FEA1323BB733B687B73F97BD1
S32D00012068BA7B7B7B786800F007F80346184607F11007BD4680BD00BF80B487B000AF7860F970BA707B70FB78B7
S32D000120904FEAA3037B61BB784FEAA3033B617B784FEAA303FB607B694FEA03323B694FEA83131A43FB681343B0
S32D000120B8184607F11C07BD4680BC704780B582B000AF78600B46FB70FB7878681946FFF773FF0346786819463E
S32D000120E000F004F807F10807BD4680BD80B582B000AF7860396078683968FFF7A1FF02467B681A62786801F088
S32D00012108EBF8786800F0ECFB07F10807BD4680BD80B582B000AF7860786800F0E1FB07F10807BD4680BD00BF27
S32D0001213080B582B000AF78600B46FB70FB7878681946FFF73DFF03467868194600F004F807F10807BD4680BD37
S32D0001215880B582B000AF7860396078683968FFF76BFF02467B681A62786801F0B5F807F10807BD4680BD00BFC5
S32D0001218080B582B000AF78600B46FB70FB7878681946FFF715FF03467868194600F004F807F10807BD4680BD0F
S32D000121A880B582B000AF7860396078683968FFF743FF02467B68DA61786801F08DF807F10807BD4680BD00BF06
S32D000121D080B586B000AFF860B9607A603B604FF000037B6110E07B69BA68D3181B78F86879683A6800F07AFD04
S32D000121F87B6803F10C037B607B6903F101037B617B69BA68D3181B78002B0CBF00230123DBB2002BE3D107F11A
S32D000122201807BD4680BD00BF80B584B000AF786039604FF00003FB60786800F081FC11E07B6859697B689A6982
S32D00012248FB683868C3181B78786800F02BFD786800F088FCFB6803F10103FB60FB683A68D3181B78002B0CBF7B
S32D0001227000230123DBB2002BE2D107F11007BD4680BD00BF90B593B000AF786039604FF001031C463868304919
S32D00012298FBF744F80346002B02D14FF000031C46E3B2002B23D03868FBF74CF803467B64786CFAF72DFE034604
S32D000122C038681946FAF772FD034618462349FAF777FE03461846FBF739F803463B6407F10C03184647F2D401F2
S32D000122E8C0F201017A6C3B6C02F0C2FB26E03B6883F000433B603868FBF724F803467B64786CFAF705FE0346E6
S32D0001231038681946FAF74AFD034618460F49FAF74FFE03461846FBF711F803463B6407F10C03184647F2C80139
S32D00012338C0F201017A6C3B6C02F09AFB07F10C0378681946FFF76CFF07F14C07BD4690BD0000000000007A44AE
S32D0001236080B582B000AF78600B46FB70786800F0E7FB7B6859697B689A69FB78786800F095FC786800F0F2FBD6
S32D0001238807F10807BD4680BD80B582B000AF78603960786800F0D0FB78683968FFF740FF786800F0B1FB07F193
S32D000123B00807BD4680BD00BF80B582B000AF78603960786800F0BCFB78683968FFF75AFF786800F09DFB07F1B2
S32D000123D80807BD4680BD00BF80B582B000AF78600B46FB70786800F0A7FBFB7878681946FFF7B2FF786800F083
S32D0001240087FB07F10807BD4680BD00BF80B483B000AF78600B46FB704FF28003C4F20F034FF28002C4F20F0265
S32D00012428126822F008021A604FF24003C4F20F034FF24002C4F20F02126822F480221A604FF24003C4F20F03E7
S32D000124504FF24002C4F20F02126842F480321A604FF24003C4F20F034FF24002C4F20F02126822F440721A60E5
S32D000124784FF28003C4F20F034FF28002C4F20F02126822F4425222F070021A604FF24003C4F20F034FF240022E
S32D000124A0C4F20F0212681146FA7802F00102D2B2002A02D04FF4007201E04FF000020A431A604FF24003C4F2B6
S32D000124C80F034FF24002C4F20F0212681146FA7802F00202002A02D04FF4807201E04FF000020A431A604FF2F5
S32D000124F08003C4F20F034FF28002C4F20F0212681146FA7802F00402002A02D04FF0100201E04FF000020A43F1
S32D000125181A604FF28003C4F20F034FF28002C4F20F0212681146FA7802F00802002A02D04FF0200201E04FF048
S32D0001254000020A431A604FF28003C4F20F034FF28002C4F20F0212681146FA7802F01002002A02D04FF04002C9
S32D0001256801E04FF000020A431A604FF28003C4F20F034FF28002C4F20F0212681146FA7802F02002002A02D0F2
S32D000125904FF0800201E04FF000020A431A604FF28003C4F20F034FF28002C4F20F0212681146FA7802F04002E5
S32D000125B8002A02D04FF4805201E04FF000020A431A604FF28003C4F20F034FF28002C4F20F0212681146FA78A1
S32D000125E052B2002A02DA4FF4005201E04FF000020A431A604FF24003C4F20F034FF24002C4F20F02126822F41E
S32D0001260800321A604FF24003C4F20F034FF24002C4F20F02126842F400321A604FF28003C4F20F034FF28002B6
S32D00012630C4F20F02126842F008021A604FF24003C4F20F034FF24002C4F20F02126842F440721A604FF280034E
S32D00012658C4F20F034FF28002C4F20F02126842F4425242F070021A604FF24003C4F20F034FF24002C4F20F0209
S32D00012680126842F480221A6007F10C07BD4680BC704700BF80B483B000AF78600B46FB704FF28003C4F20F0369
S32D000126A84FF28002C4F20F02126822F008021A604FF24003C4F20F034FF24002C4F20F02126842F480321A60F7
S32D000126D04FF24003C4F20F034FF24002C4F20F02126842F480221A604FF24003C4F20F034FF24002C4F20F02E3
S32D000126F8126822F440721A604FF28003C4F20F034FF28002C4F20F02126822F4425222F070021A604FF240033B
S32D00012720C4F20F034FF24002C4F20F0212681146FA7802F00102D2B2002A02D04FF4007201E04FF000020A439C
S32D000127481A604FF24003C4F20F034FF24002C4F20F0212681146FA7802F00202002A02D04FF4807201E04FF0C8
S32D0001277000020A431A604FF28003C4F20F034FF28002C4F20F0212681146FA7802F00402002A02D04FF01002D3
S32D0001279801E04FF000020A431A604FF28003C4F20F034FF28002C4F20F0212681146FA7802F00802002A02D0D8
S32D000127C04FF0200201E04FF000020A431A604FF28003C4F20F034FF28002C4F20F0212681146FA7802F0100243
S32D000127E8002A02D04FF0400201E04FF000020A431A604FF28003C4F20F034FF28002C4F20F0212681146FA7803
S32D0001281002F02002002A02D04FF0800201E04FF000020A431A604FF28003C4F20F034FF28002C4F20F0212684F
S32D000128381146FA7802F04002002A02D04FF4805201E04FF000020A431A604FF28003C4F20F034FF28002C4F275
S32D000128600F0212681146FA7852B2002A02DA4FF4005201E04FF000020A431A604FF24003C4F20F034FF240029E
S32D00012888C4F20F02126822F400321A604FF24003C4F20F034FF24002C4F20F02126842F400321A604FF2800368
S32D000128B0C4F20F034FF28002C4F20F02126842F008021A604FF24003C4F20F034FF24002C4F20F02126822F451
S32D000128D880221A6007F10C07BD4680BC704700BF80B586B000AF78607B684FF000025A617B684FF000029A6105
S32D000129007B681B6AFB60FB68FB72FB684FEA1323BB72FB684FEA1343DBB203F003037B7278684FF02A01FFF771
S32D0001292871FD78684FF00001FFF7B0FE78684FF00001FFF7ABFE78684FF00101FFF7A6FE78684FF03F01FFF77F
S32D00012950A1FE78684FF02B01FFF758FD78684FF00001FFF797FE78684FF00001FFF792FE78684FF00001FFF7BC
S32D000129788DFE78684FF0EF01FFF788FE78684FF02C01FFF73FFD4FF24003C4F20F034FF24002C4F20F0212688C
S32D000129A022F440721A604FF28002C4F20F024FF28003C4F20F031B68194640F60F73CFF6F0730B4013604FF2EF
S32D000129C8C003C4F20F034FF2C002C4F20F02126822F01D021A604FF24003C4F20F034FF24002C4F20F02126856
S32D000129F011467A68126B0A431A604FF28003C4F20F034FF28002C4F20F02126811467A68526B0A431A604FF2AD
S32D00012A18C003C4F20F034FF2C002C4F20F02126811467A68926B0A431A604FF28003C4F20F034FF28002C4F2BE
S32D00012A400F02126822F008021A604FF24003C4F20F034FF24002C4F20F02126842F480221A604FF000037B61C6
S32D00012A682DE04FF000033B611BE04FF24003C4F20F034FF24002C4F20F02126822F400321A604FF24003C4F24D
S32D00012A900F034FF24002C4F20F02126842F400321A603B6903F101033B613A6940F23F139A428CBF0023012392
S32D00012AB8DBB2002BD9D17B6903F101037B617B69EF2B8CBF00230123DBB2002BC9D14FF28003C4F20F034FF226
S32D00012AE08002C4F20F02126842F008021A604FF24003C4F20F034FF24002C4F20F02126822F480221A6007F114
S32D00012B081807BD4680BD00BF80B483B000AF78607B689B69002B09DD7B685B6903F101027B685A617B684FF03C
S32D00012B3000029A6107F10C07BD4680BC704700BF80B582B000AF78607B685A697B685B689A4206DB7B684FF0A0
