S01200002E2E2F526F626F742D43392E733139A8
S32D0000C0000000002015030100710601007106010071060100710601007106010000000000000000000000000081
S32D0000C028000000007106010071060100000000007106010071060100710601007106010071060100710601002A
S32D0000C0507106010071060100710601007106010071060100710601007106010071060100710601007106010012
S32D0000C07871060100710601007106010071060100710601007106010071060100710601007106010071060100EA
S32D0000C0A071060100710601007106010071060100710601007106010071060100710601007106010071060100C2
S32D0000C0C8710601007106010071060100710601007106010071060100710601007106010071060100710601009A
S32D0000C0F07106010051460100710601007106010071060100710601007106010071060100710601007106010052
S32D0000C1187106010071060100710601007106010071060100710601007106010071060100710601007106010049
S32D0000C14071060100710601007106010071060100B51D01007106010071060100710601007106010071060100C6
S32D0000C16871060100710601007106010071060100710601007106010071060100710601007106010071060100F9
S32D0000C190710601007106010071060100191801006D16010041170100C1060100F1180100710601007106010048
S32D0000C1B871060100710601007106010071060100710601007106010071060100710601007106010071060100A9
S32D0000C41081F0004102E000BF83F0004330B54FEA41044FEA430594EA050F08BF90EA020F1FBF54EA000C55EAC6
S32D0000C438020C7FEA645C7FEA655C00F0E2804FEA5454D4EB5555B8BF6D420CDD2C4480EA020281EA030382EA0F
S32D0000C460000083EA010180EA020281EA0303362D88BF30BD11F0004F4FEA01314FF4801C4CEA113102D0404263
S32D0000C48861EB410113F0004F4FEA03334CEA133302D0524263EB430394EA050F00F0A780A4F10104D5F1200E8A
S32D0000C4B00DDB02FA0EFC22FA05F2801841F1000103FA0EF2801843FA05F359410EE0A5F120050EF1200E012A2D
S32D0000C4D803FA0EFC28BF4CF0020C43FA05F3C01851EBE37101F0004507D54FF0000EDCF1000C7EEB00006EEB67
S32D0000C5000101B1F5801F1BD3B1F5001F0CD349085FEA30004FEA3C0C04F101044FEA445212F5800F80F09A8000
S32D0000C528BCF1004F08BF5FEA500C50F1000041EB045141EA050130BD5FEA4C0C404141EB010111F4801FA4F114
S32D0000C5500104E9D191F0000F04BF01460020B1FA81F308BF2033A3F10B03B3F120020CDA0C3208DD02F1140C87
S32D0000C578C2F10C0201FA0CF021FA02F10CE002F11402D8BFC2F1200C01FA02F120FA0CFCDCBF41EA0C019040B1
S32D0000C5A0E41AA2BF01EB0451294330BD6FEA04041F3C1CDA0C340EDC04F11404C4F1200220FA04F001FA02F3B6
S32D0000C5C840EA030021FA04F345EA030130BDC4F10C04C4F1200220FA02F001FA04F340EA0300294630BD21FAA8
S32D0000C5F004F0294630BD94F0000F83F4801306BF81F480110134013D4EE77FEA645C18BF7FEA655C29D094EA1C
S32D0000C618050F08BF90EA020F05D054EA000C04BF1946104630BD91EA030F1EBF0021002030BD5FEA545C05D1A3
S32D0000C6404000494128BF41F0004130BD14F580043CBF01F5801130BD01F0004545F0FE4141F470014FF0000031
S32D0000C66830BD7FEA645C1ABF194610467FEA655C1CBF0B46024650EA013406BF52EA033591EA030F41F40021D7
S32D0000C69030BD00BF90F0000F04BF0021704730B54FF4806404F132044FF000054FF0000150E700BF90F0000F66
S32D0000C6B804BF0021704730B54FF4806404F1320410F0004548BF40424FF000013EE700BF42004FEAE2014FEAF9
S32D0000C6E031014FEA02701FBF12F07F4393F07F4F81F06051704792F0000F14BF93F07F4F704730B54FF460741B
S32D0000C70801F0004521F0004120E700BF50EA010208BF704730B54FF000050AE050EA010208BF704730B511F046
S32D0000C730004502D5404261EB41014FF4806404F132045FEA915C3FF4DCAE4FF003025FEADC0C18BF03325FEAA0
S32D0000C758DC0C18BF033202EBDC02C2F1200300FA03FC20FA02F001FA03FE40EA0E0021FA02F11444C1E600BF19
S32D0000C78070B54FF0FF0C4CF4E06C1CEA11541DBF1CEA135594EA0C0F95EA0C0F00F0DEF82C4481EA030621EAF3
S32D0000C7A84C5123EA4C5350EA013518BF52EA033541F4801143F4801338D0A0FB02CE4FF00005E1FB02E506F05F
S32D0000C7D00042E0FB03E54FF00006E1FB03569CF0000F18BF4EF0010EA4F1FF04B6F5007F64F5407404D25FEA0F
S32D0000C7F84E0E6D4146EB060642EAC62141EA55514FEAC52040EA5E504FEACE2EB4F1FD0C88BFBCF5E06F1ED8D2
S32D0000C820BEF1004F08BF5FEA500E50F1000041EB045170BD06F0004646EA010140EA020081EA0301B4EB5C0487
S32D0000C848C2BFD4EB0C0541EA045170BD41F480114FF0000E013C00F3AB8014F1360FDEBF002001F0004170BDF0
S32D0000C870C4F10004203C35DA0C341BDC04F11404C4F1200500FA05F320FA04F001FA05F240EA020001F0004207
S32D0000C89821F0004110EBD37021FA04F642EB06015EEA430E08BF20EAD37070BDC4F10C04C4F1200500FA04F32F
S32D0000C8C020FA05F001FA04F240EA020001F0004110EBD37041F100015EEA430E08BF20EAD37070BDC4F12005C7
S32D0000C8E800FA05F24EEA020E20FA04F301FA05F243EA020321FA04F001F0004121FA04F220EA020000EBD37028
S32D0000C9105EEA430E08BF20EAD37070BD94F0000F0FD101F00046400041EB010111F4801F08BF013CF7D041EA6D
S32D0000C938060195F0000F18BF704703F00046520043EB030313F4801F08BF013DF7D043EA0603704794EA0C0FF1
S32D0000C9600CEA135518BF95EA0C0F0CD050EA410618BF52EA4306D1D181EA030101F000414FF0000070BD50EA38
S32D0000C988410606BF1046194652EA430619D094EA0C0F02D150EA013613D195EA0C0F05D152EA03361CBF10467B
S32D0000C9B019460AD181EA030101F0004141F0FE4141F470014FF0000070BD41F0FE4141F4780170BD70B54FF04D
S32D0000C9D8FF0C4CF4E06C1CEA11541DBF1CEA135594EA0C0F95EA0C0F00F0A7F8A4EB050481EA030E52EA03359B
S32D0000CA004FEA013100F088804FEA03334FF0805545EA131343EA12634FEA022245EA111545EA10654FEA002676
S32D0000CA280EF000419D4208BF964244F1FD0404F5407402D25B084FEA3202B61A65EB03055B084FEA32024FF461
S32D0000CA5080104FF4002CB6EB020E75EB030E22BFB61A754640EA0C005B084FEA3202B6EB020E75EB030E22BF22
S32D0000CA78B61A754640EA5C005B084FEA3202B6EB020E75EB030E22BFB61A754640EA9C005B084FEA3202B6EBEA
S32D0000CAA0020E75EB030E22BFB61A754640EADC0055EA060E18D04FEA051545EA16754FEA06164FEAC30343EAAC
S32D0000CAC852734FEAC2025FEA1C1CC0D111F4801F0BD141EA00014FF000004FF0004CB6E711F4801F04BF0143AE
S32D0000CAF00020B4F1FD0C88BFBCF5E06F3FF6AFAEB5EB030C04BFB6EB020C5FEA500C50F1000041EB045170BDBC
S32D0000CB180EF0004E4EEA113114EB5C04C2BFD4EB0C0541EA045170BD41F480114FF0000E013C90E645EA060EC3
S32D0000CB408DE60CEA135594EA0C0F08BF95EA0C0F3FF43BAF94EA0C0F0AD150EA01347FF434AF95EA0C0F7FF499
S32D0000CB6825AF104619462CE795EA0C0F06D152EA03353FF4FDAE1046194622E750EA410618BF52EA43067FF432
S32D0000CB90C5AE50EA41047FF40DAF52EA43057FF4EBAE12E74FF0FF3C06E000BF4FF0010C02E000BF4FF0010C75
S32D0000CBB84DF804CD4FEA410C7FEA6C5C4FEA430C18BF7FEA6C5C1BD001B050EA410C0CBF52EA430C91EA030FEC
S32D0000CBE002BF90EA020F0020704710F1000F91EA030F58BF994208BF90422CBFD8176FEAE37040F0010070476E
S32D0000CC084FEA410C7FEA6C5C02D150EA013C07D14FEA430C7FEA6C5CD6D152EA033CD3D05DF8040B704700BFCD
S32D0000CC308446104662468C461946634600E000BF01B5FFF7B7FF002848BF10F1000F01BD4DF808EDFFF7F4FF13
S32D0000CC580CBF012000205DF808FB00BF4DF808EDFFF7EAFF34BF012000205DF808FB00BF4DF808EDFFF7E0FF18
S32D0000CC8094BF012000205DF808FB00BF4DF808EDFFF7CEFF94BF012000205DF808FB00BF4DF808EDFFF7C4FF40
S32D0000CCA834BF012000205DF808FB00BF4FEA410212F5001215D211D56FF47873B3EB625212D94FEAC12343F0D6
S32D0000CCD0004343EA505311F0004F23FA02F018BF404270474FF00000704750EA013005D111F0004008BF6FF016
S32D0000CCF8004070474FF00000704700BF4FEA4102B2F1E04324BFB3F5001CDCF1FE5C0DD901F0004C4FEAC00234
S32D0000CD204CEA5070B2F1004F40EB830008BF20F00100704711F0804F21D113F13872BCBF01F00040704741F4B8
S32D0000CD4880114FEA5252C2F11802C2F1200C10FA0CF320FA02F018BF40F001004FEAC1234FEAD32303FA0CFC35
S32D0000CD7040EA0C0023FA02F34FEA4303CCE77FEA625307D150EA01331EBF4FF0FE4040F44000704701F0004001
S32D0000CD9840F0FE4040F40000704700BF80F0004002E000BF81F0004142001FBF5FEA410392EA030F7FEA226C20
S32D0000CDC07FEA236C6AD04FEA1262D2EB1363C1BFD218414048404140B8BF5B42192B88BF704710F0004F40F466
S32D0000CDE8000020F07F4018BF404211F0004F41F4000121F07F4118BF494292EA030F3FD0A2F1010241FA03FCCF
S32D0000CE1010EB0C00C3F1200301FA03F100F0004302D5494260EB4000B0F5000F13D3B0F1807F06D340084FEA73
S32D0000CE38310102F10102FE2A51D2B1F1004F40EBC25008BF20F0010040EA03007047490040EB000010F4000FE8
S32D0000CE60A2F10102EDD1B0FA80FCACF1080CB2EB0C0200FA0CF0AABF00EBC25052421843BCBFD04018437047E6
S32D0000CE8892F0000F81F4000106BF80F400000132013BB5E74FEA41037FEA226C18BF7FEA236C21D092EA030F6F
S32D0000CEB004D092F0000F08BF0846704790EA010F1CBF0020704712F07F4F04D1400028BF40F00040704712F1F1
S32D0000CED800723CBF00F50000704700F0004343F0FE4040F4000070477FEA226216BF08467FEA236301464202FA
S32D0000CF0006BF5FEA412390EA010F40F4800070474FF0000304E000BF10F0004348BF40425FEA000C08BF704718
S32D0000CF2843F0964301464FF000001CE050EA010208BF70474FF000030AE000BF50EA010208BF704711F00043A8
S32D0000CF5002D5404261EB41015FEA010C02BF84460146002043F0B64308BFA3F18053A3F50003BCFA8CF2083A19
S32D0000CF78A3EBC25310DB01FA02FC634400FA02FCC2F12002BCF1004F20FA02F243EB020008BF20F001007047C7
S32D0000CFA002F1200201FA02FCC2F1200250EA4C0021FA02F243EB020008BF20EADC7070474FF0FF0C1CEAD05275
S32D0000CFC81EBF1CEAD15392EA0C0F93EA0C0F6FD01A4480EA010C400218BF5FEA41211ED04FF0006343EA501010
S32D0000CFF043EA5111A0FB01310CF00040B1F5000F3EBF490041EAD3715B0040EA010062F17F02FD2A1DD8B3F1F7
S32D0000D018004F40EBC25008BF20F00100704790F0000F0CF0004C08BF49024CEA502040EA51207F3AC2BFD2F1A8
S32D0000D040FF0340EAC250704740F400004FF00003013A5DDC12F1190FDCBF00F000407047C2F10002410021FA25
S32D0000D06802F1C2F1200200FA02FC5FEA310040F1000053EA4C0308BF20EADC70704792F0000F00F0004C02BF41
S32D0000D090400010F4000F013AF9D040EA0C0093F0000F01F0004C02BF490011F4000F013BF9D041EA0C018FE745
S32D0000D0B80CEAD15392EA0C0F18BF93EA0C0F0AD030F0004C18BF31F0004CD8D180EA010000F00040704790F025
S32D0000D0E0000F17BF90F0004F084691F0000F91F0004F14D092EA0C0F01D142020FD193EA0C0F03D14B0218BFBF
S32D0000D108084608D180EA010000F0004040F0FE4040F40000704740F0FE4040F4400070474FF0FF0C1CEAD052D3
S32D0000D1301EBF1CEAD15392EA0C0F93EA0C0F69D0A2EB030280EA010C49024FEA402037D04FF0805343EA11110D
S32D0000D15843EA10130CF000408B4238BF5B0042F17D024FF4000C8B4224BF5B1A40EA0C00B3EB510F24BFA3EB33
S32D0000D180510340EA5C00B3EB910F24BFA3EB910340EA9C00B3EBD10F24BFA3EBD10340EADC001B0118BF5FEA99
S32D0000D1A81C1CE0D1FD2A3FF650AF8B4240EBC25008BF20F0010070470CF0004C4CEA50207F32C2BFD2F1FF0397
S32D0000D1D040EAC250704740F400004FF00003013A37E792F0000F00F0004C02BF400010F4000F013AF9D040EA60
S32D0000D1F80C0093F0000F01F0004C02BF490011F4000F013BF9D041EA0C0195E70CEAD15392EA0C0F08D1420289
S32D0000D2207FF47DAF93EA0C0F7FF470AF084676E793EA0C0F04D14B023FF44CAF08466EE730F0004C18BF31F07D
S32D0000D248004CCAD130F000427FF45CAF31F000437FF43CAF5FE700BF4FF0FF3C06E000BF4FF0010C02E000BF1E
S32D0000D2704FF0010C4DF804CD4FEA40024FEA41037FEA226C18BF7FEA236C11D001B052EA530C18BF90EA010FE2
S32D0000D29858BFB2EB030088BFC81738BF6FEAE17018BF40F0010070477FEA226C02D15FEA402C05D17FEA236CDE
S32D0000D2C0E4D15FEA412CE1D05DF8040B704700BF844608466146FFE70FB5FFF7C9FF002848BF10F1000F0FBD18
S32D0000D2E84DF808EDFFF7F4FF0CBF012000205DF808FB00BF4DF808EDFFF7EAFF34BF012000205DF808FB00BF6E
S32D0000D3104DF808EDFFF7E0FF94BF012000205DF808FB00BF4DF808EDFFF7D2FF94BF012000205DF808FB00BF89
S32D0000D3384DF808EDFFF7C8FF34BF012000205DF808FB00BF4FEA4002B2F1FE4F0FD34FF09E03B3EB12620DD960
S32D0000D3604FEA002343F0004310F0004F23FA02F018BF404270474FF00000704712F1610F01D1420205D110F00A
S32D0000D388004008BF6FF0004070474FF000007047036803B11B181846704700BF03685A004CBF43F0004323F0A5
S32D0000D3B00043C018704700BF2DE9F84F0446914641B301F1FF3BDA46002707EB0A0101EBD1756D1004EBC50673
S32D0000D3D83046FFF7E3FF8046681CAB4504EBC0000DD0FFF7DBFF0138C84504D9BD4209D005F1FF3AE5E74845C0
S32D0000D40005D26F1CE1E74FF0FF30F1E700263046BDE8F88F0E463046BDE8F88F30B52B4B83B004468D1E002B22
S32D0000D42849D0284601A9AFF300800346002822D02A4618460199FFF7BBFF054600281DD0FFF7ACFF6B68A06430
S32D0000D450012B10D0281D002B22DBFFF7A3FF0021E06421650368002B0FDBFFF79BFF2061002003B030BD00233E
S32D0000D47823610520F9E720610920F6E720610920F3E7C3F3036058B101280CD002280ED0002020610920E8E72A
S32D0000D4A00122E0642265DDE7094B2361E1E7094A00202261DDE7084900202161D9E7074B0749C81AC2100192B6
S32D0000D4C8B6E700BF00000000E9D90000E5D90000E1D90000D4940100C4960100036810B50446D80706D4990709
S32D0000D4F004F1480009D500F00DFD23685A0709D518070ED5D90613D510BD00F0FBFC23685A07F5D404F1D00038
S32D0000D51800F004FD23681807F0D404F5D87000F005FD2368D906EBD404F50C70BDE8104000F040BD2DE9F04786
S32D0000D5400F1D054691460FCFADF5916D02AC261D0FC60FCF0FC60FCF0FC697E80F00D5F80C80D5F818A0002732
S32D0000D56886E80F00216C27602846FFF753FF0646B94514BF4FF00A094FF00909FEB1A16B49F01009616401209B
S32D0000D5908DE8100449462A462B46C04700282BD1002E2AD1204692A94FF4107209F034F8082F28D1216C28466A
S32D0000D5B8FFF730FF06464FF00909002EDFD1206C21464FF41072686192A809F021F82F69294692AA4846B84708
S32D0000D5E0A09B0746636401208DE8100449462A462B46C0470028D3D00926304622B00DF5806DBDE8F087072F2A
S32D0000D608F6D1201D00F06EFC38B504460D46296C2046FFF7FFFE50B92A6C23696261012021462A469847082829
S32D0000D630F1D0072801D00BF01DF9281D00F056FC11B933B10220704704298CBF0220012070470F2A01D9022045
S32D0000D658704700EB820118464A68009B1A60704710B50A4684B000210B4603AC0094FFF7E3FF039804B010BDB1
S32D0000D68011B933B10220704704298CBF0220012070470F2A01D902207047009900EB8202096818465160704758
S32D0000D6A810B584B004AB0C4643F8042D0021009322460B46FFF7E0FF04B010BD2DE9F04FCD6C8BB00C4655F8C3
S32D0000D6D0041B174600F008021E46039200F003080795002B40F0CF8009020691216D8DF821300323B8F1020F96
S32D0000D6F88DF8203008BFA56B11F0010340F0D380019304F158030293D5F80090B9F1000F00F0CB80022E00F0E6
S32D0000D720AE80B5F80090B5F802A00435A26C0F212AF0010B38469344FFF796FF834518D829F0010CE3440AF0A5
S32D0000D748010A09F00103584543EA4A092CBF00200120B9F1010F12D032D2B8F1000F02D0002840F01D81043509
S32D0000D770CEE70AF0010A09F0010343EA4A090020B9F1010FECD1B8F1000F40F0B680C8B16B68D5F800909A1C40
S32D0000D79819D0029A013309920DD0281DFFF7F8FD4FEAD972014609AB20460AF0C9F8002800F0F280099A002A0B
S32D0000D7C040F0BA800835A3E7B9F1020F03D009200BB0BDE8F08F2B6823F000420092B8F1000F71D1002843D0C5
S32D0000D7E80398002840F0A1800098002800F0A080009BDDF80C90DB0705F1040A40F1B480CDF810800596A846FA
S32D0000D810029E12E000998D4200F0D9800996FFF7BBFD5A46014609AB20460AF08DF8A946B0B90AF1040A05F183
S32D0000D838010950460996FFF7ABFD09AB0146002220460AF07DF80AF1040A834609F101055046BBF1000FD9D027
S32D0000D8604546059EDDF81080009A4A4564D02B68002B7BDB0099481C05EB800548E7D5F804A0083552E70B04FF
S32D0000D888C1F30740216D06930222B8F1020F05EB800508BFA56B8DF8210011F001038DF820203FF42DAF002087
S32D0000D8B00190384606A900F019FC002887D1019A002A43D1082083E70D213846D4F82090FFF7CAFE8145CAD155
S32D0000D8D8A26A9542C7D10098291D00220423A062E26223636163286800286EDB01220192BCE70D213846D4F81E
S32D0000D9002090FFF7B1FE81457FF45CAFA16A8D427FF458AF2846FFF745FD0F2102463846FFF7C2FE384600211B
S32D0000D9282246FFF7BDFE07204EE7009900299BD138460D21FFF794FE099B20626362A562062041E70F2138460C
S32D0000D950FFF78AFE0E2102463846FFF7A5FE38460F211E4AFFF7A0FE072031E7043581E7029950460991FFF752
S32D0000D9780FFD039A014609AB204609F0E1FF00287FF46EAFCDF8108005960AF1040A4FF00109A846029E4CE7E3
S32D0000D9A0CDF824800835B3E62846FFF7FBFC04350646A56320460AF03DF800283FF407AF38460F213246FFF770
S32D0000D9C86FFE072000E74546B2E7009B591C05EB81009CE79D7B010002236FE601236DE600236BE62DE9F047C3
S32D0000D9F00446E8B004290CD8DFE801F0380391930F00150C012B96B200F07881052B00F0C780022068B0BDE82C
S32D0000DA18F087002BF9D1102AF7D82368D90600F1738164A8019200F0CFFA019AA36BD00744BF53F8040B6490F3
S32D0000DA40910744BF53F8041B6591500744BF53F8041B6691110748BF53F8042B64A8A36348BF679200F0AAFAC3
S32D0000DA680020D3E7002BD0D1A36BD00791B244BF53F8042B62608A0744BF53F8042BA260480744BF53F8042BA7
S32D0000DA90E2600A0744BF53F8042B2261C80644BF53F8042B62618A0644BF53F8042BA261480644BF53F8042B2C
S32D0000DAB8E2610A0644BF53F8042B2262C80544BF53F8042B62628A0544BF53F8042BA262480544BF53F8042B04
S32D0000DAE0E2620A0544BF53F8042B2263C80444BF53F8042B626311F400501CBF53F8042BA2634A0444BF53F86A
S32D0000DB08042BE2630A0444BF53F8042B2264002840D1A3637AE7012078E7032B7FF475AF160C95B2AA19102A1F
S32D0000DB303FF66FAF2368180700F10B8144A800F01BFAA76B4FEA450E3B460DB344A90EF1FF3C01EBC60653F853
S32D0000DB58040B62460CF0010146F8040B92B129B153F8041B013A46F8041B0BD01846314650F8045B41F8045B8F
S32D0000DB805D68031D75600E1D023AF3D107EB8E0344A8A36300F0CEF900203BE7002039E777192022BA42FFF423
S32D0000DBA834AF012B00F0A9800F2D40F2A9803746F6B1052B7FF429AF0F2D11D82268D0070ED522F00101052B44
S32D0000DBD02160204600F0DA8022F0030240F8482B019300F093F9019B1FB12268510700F1B880012B00F0BF8052
S32D0000DBF80F2D75D9002F40F0A080D4F83890002EC8462EDD49460DF1080A4FEA46080AEBC50251F8046B08F188
S32D0000DC20FF3000F0010A42F8046BA8F1020CD0B1BAF1000F08D051F8040B0CF1FF3CBCF1FF3F42F8040B0ED0A7
S32D0000DC480E46104656F804AB40F804AB4968ACF1020C5160311D021DBCF1FF3FF0D109EB8808A7B3102D2CBFF4
S32D0000DC702E4610260DF5D079414609EBC60CACF5C8724FEA470951F8046B09F1FF3000F0010A42F8046BA9F1C1
S32D0000DC98020CD0B1BAF1000F08D051F8040B0CF1FF3CBCF1FF3F42F8040B0ED00E46104656F804AB40F804AB0D
S32D0000DCC04968ACF1020C5160311D021DBCF1FF3FF0D108EB8908012B2BD00F2DC4F8388008D9FFB9384695E623
S32D0000DCE802A8019300F016F9019B83E702A800F00DF9F2E77719102250E70F2D3FF685AE102F10D9103F54E703
S32D0000DD1023F01003236004F50C70019200F058F9019A82E624A800F0FDF8002072E6002746E708F1040302A8C9
S32D0000DD38A36300F0E3F8002068E624A80193C5F1100600F0EFF8019B57E723F0080704F5D870276000F00CF9C2
S32D0000DD60ECE6204622F0040140F8D01B019300F0DDF8019B3DE702A8019300F0C7F8019B002F3FF43EAFC5F17C
S32D0000DD8810063AE741F0020140F8481B019300F0C1F8019B24E700BF406C7047F0B50D460F1DC96B2964044632
S32D0000DDB00FCFADF5117D01AE0FC60FCF0FC60FCF0FC697E80F0086E80F004FF0FF33009310992046FFF722FB1C
S32D0000DDD858B9266921466A46B04708280646F3D06846FFF77BFB062E03D009200DF5117DF0BD20462946FFF7DE
S32D0000DE0007FC00BF10B4DC6BC1608261194600221C6410BCFFF792BB38B54269C3680A6404460D4623B101224E
S32D0000DE28FFF788FB0AF022FD0369214602202A469847072803D0082804D00AF017FD281D00F050F82046294690
S32D0000DE50FFF7DEFBC36823B1CA6B0A640022FFF76DBB9FE7704700BF08B5836801460BB10120984708BD00BFC8
S32D0000DE78F0B5D46B171D146405460C460FCFADF5277D01AE0FC60FCF0FC60FCF0FC697E80F0086E80F004FF0F7
S32D0000DEA0FF330093109990A8FFF7B8FA034690AA68460C21BBB9FFF7F7FB21466846A847064690A908206A46EB
S32D0000DEC86EB9949B98470528064601D00928E5D16846FFF703FB30460DF5277DF0BD0926F6E700BF00F134016A
S32D0000DEF091E838009C46A6464CF8045D90E8FF0FE54600BD90EC210B704700BF80EC210B704700BF90EC200B9F
S32D0000DF18704700BF80EC200B704700BFD0EC200B704700BFC0EC200B704700BFF0EC0201F0EC0211F0EC0221E1
S32D0000DF40F0EC0231F0EC0241F0EC0251F0EC0261F0EC0271F0EC0281F0EC0291F0EC02A1F0EC02B1F0EC02C14D
S32D0000DF68F0EC02D1F0EC02E1F0EC02F1704700BFE0EC0201E0EC0211E0EC0221E0EC0231E0EC0241E0EC02510E
S32D0000DF90E0EC0261E0EC0271E0EC0281E0EC0291E0EC02A1E0EC02B1E0EC02C1E0EC02D1E0EC02E1E0EC02F1BD
S32D0000DFB8704700BFB0FC0181B0FC0191B0FC01A1B0FC01B1704700BFA0FC0181A0FC0191A0FC01A1A0FC01B15F
S32D0000DFE0704700BFEC4600B52DE900502DE9FF1F4FF000032DE90C0001A9FFF7D3FEDDF840E012B0704700BF1A
S32D0000E008EC4600B52DE900502DE9FF1F4FF000032DE90C0001A9FFF7FBFEDDF840E012B0704700BFEC4600B558
S32D0000E0302DE900502DE9FF1F4FF000032DE90C0001A9FFF707FFDDF840E012B0704700BFEC4600B52DE90050A4
S32D0000E0582DE9FF1F4FF000032DE90C0001ABFFF7CDFEDDF840E012B0704700BFEC4600B52DE900502DE9FF1FE7
S32D0000E0804FF000032DE90C0001AAFFF7F5FEDDF840E012B0704700BF027A03461AB9427A42B9B020704700680F
S32D0000E0A8013A01021A72000E196070474168501E587251F8040B0322596001021A72000E1960704710B5002178
S32D0000E0D084B00C220DEB02040B460094FFF7B0FA039804B010BD00BFF0E700BF2DE9F043064685B00D464FF070
S32D0000E0F800094FF47F672846FFF7CAFFB028044600F0B08010F0800120D000F0F003802B74D0902B37D0A02B89
S32D0000E12045D0B02B56D0C02B00F0858000F0F800D0280BD104F00702511C41F40022304601210523FFF752FC5A
S32D0000E1480028D8D0092005B0BDE8F0834FEA800203A85FFA82F800900D220B463046FFF76BFA039B600608F1CC
S32D0000E17004084CBFC8EB0303434403AC03930094002130460D220B46FFF77AFAB7E700F00F020D2ADAD00F2A17
S32D0000E198D8D0002103AC009430460B4603ACFFF74BFA0094E8E7C24302F0070C47FA0CF0210700F47F6248BFEE
S32D0000E1C042F48042002130460B46FFF70FFC0028BCD194E7B1285DD0B2286ED0B32800F0958000F0FC02B42A56
S32D0000E1E846D000F00702531C43F40022012130460B46FFF7F7FB0028A4D17CE72846FFF747FF210240EA010465
S32D0000E210B4F5004F9AD0230500211A0C30460B462401FFF7E3FB002890D114F4004F18BF4FF0010963E7C62817
S32D0000E23873D0C72800F0848000F0F802C02A00F09280C82800F0A680C9287FF47BAF2846FFF71EFF00F00F03A5
S32D0000E26000F0F0015A1C42EA013268E7B9F1000F00F0838000206AE700F00301481C022140F480220B46304656
S32D0000E288FFF7B0FB00287FF45DAF34E72846FFF7FFFE024600283FF455AF10F0F0017FF451AF30460B46FFF7DC
S32D0000E2B09DFB00287FF44AAF21E700210D220B4603AC30460094FFF7BBF92846FFF7E4FE022402060DD5039B14
S32D0000E2D800F07F0000FA04FE03EB0E0128460391FFF7D6FE07340306F1D4039B00F07F0103AA03F5017C01FAB0
S32D0000E30004F400920CEB0402039239E72846FFF7C3FE00F00F03591C00F0F00041EA003268E72846FFF7B8FE71
S32D0000E32800F00F03591C00F0F00041EA0032032130460B46FFF756FB00287FF403AFDAE62846FFF7A5FE024685
S32D0000E35000283FF4FBAE10F0F0037FF4F7AE30460421FFF743FB00287FF4F0AEC7E600F00F01481C40F4202201
S32D0000E378DDE703AC49460E224B4630460094FFF75BF9304649460F224B460094FFF774F94846D8E62846FFF7F2
S32D0000E3A07BFE00F0F00200F00F001032431C43EA0232C4E610B5C26C84B0032054688DF80C00D3792402083206
S32D0000E3C8084601A9019402928DF80D30FFF78AFE04B010BD08B5FFF783FE806C08BD00BF08B5FFF77DFEC16C46
S32D0000E3F0C87901EB800303F1080008BD08B50AF039FA00BF08B50AF035FA00BF80B584B000AFC7E902017A609B
S32D0000E4187868FEF74BF902460B46D7E9020107F02FF902460B461046194607F11007BD4680BD00BF80B483B07F
S32D0000E44000AFC7E900013A68796821F000431046194607F10C07BD4680BC704780B483B000AF78600B46FB7017
S32D0000E4687B68FA781A707B68184607F10C07BD4680BC704780B483B000AF78600B46FB707B68FA781A707B68F9
S32D0000E490184607F10C07BD4680BC704780B485B000AFF860B9607A603B60FB68BA681A60FB687A685A60FB68A0
S32D0000E4B83A689A60FB68BA69DA60FB68184607F11407BD4680BC704780B483B000AF78607B681B78184607F156
S32D0000E4E00C07BD4680BC704780B483B000AF786039607B683A681A607B68184607F10C07BD4680BC704700BF7E
S32D0000E50880B485B000AFF860B9607A603B60FB68BA681A60FB687A685A60FB683A689A60FB68184607F1140716
S32D0000E530BD4680BC704700BF80B485B000AFF860B9607A603B60FB68BA681A60FB687A685A60FB683A689A600D
S32D0000E558FB68BA69DA60FB6807F11C021A61FB683A6A5A61FB687A6A9A61FB68BA6ADA61FB68FA6A1A62FB6875
S32D0000E5803A6B5A62FB687A6B9A62FB68184607F11407BD4680BC704780B500AF43F25060C1F6FF70154902F0BF
S32D0000E5A8EBF843F24C60C1F6FF70124902F0E4F84FF4487002F0F4FB43F25460C1F6FF700D4902F0D9F840F6F8
S32D0000E5D0B83002F0E9FB43F25460C1F6FF7002F0B1F843F25060C1F6FF7002F0ABF843F24C60C1F6FF7002F01C
S32D0000E5F8A5F880BD0000D8410000484280B500AF43F25060C1F6FF70154902F0B5F843F24C60C1F6FF7012492A
S32D0000E62002F0AEF84FF4487002F0BEFB43F25460C1F6FF700D4902F0A3F840F6B83002F0B3FB43F25460C1F63E
S32D0000E648FF7002F07BF843F25060C1F6FF7002F075F843F24C60C1F6FF7002F06FF880BD0000D841000048C2A6
S32D0000E67080B500AF43F27870C1F6FF7006F07AFE0346012B14BF00230123DBB2002B22D043F27870C1F6FF706B
S32D0000E69806F080FE0346022B14BF00230123DBB2002B02D0FFF774FF92E043F27870C1F6FF7006F083FE0346E8
S32D0000E6C0022B14BF00230123DBB2002B00F08480FFF798FF80E043F27870C1F6FF7006F05DFE0346012B14BF70
S32D0000E6E800230123DBB2002B32D043F25460C1F6FF70384902F040F84FF0FA0002F050FB43F25460C1F6FF70C4
S32D0000E71002F018F843F27870C1F6FF7006F02AFE0346022B14BF00230123DBB2002B02D0FFF732FF50E043F2D2
S32D0000E7387870C1F6FF7006F041FE0346022B14BF00230123DBB2002B42D0FFF757FF3FE043F27870C1F6FF7068
S32D0000E76006F030FE0346012B14BF00230123DBB2002B31D043F25460C1F6FF70184901F0FFFF4FF0FA0002F095
S32D0000E7880FFB43F25460C1F6FF7001F0D7FF43F27870C1F6FF7006F0FDFD0346022B14BF00230123DBB2002B08
S32D0000E7B002D0FFF7F1FE0FE043F27870C1F6FF7006F0D8FD0346022B14BF00230123DBB2002B01D0FFF716FF63
S32D0000E7D880BD00BF00004842000048C200000000B0B5B4B008AF3B4618464FF0030103F0B9FB43F21C70C1F6C2
S32D0000E800FF704FF0000104F00BFA43F21C70C1F6FF704FF0030104F061FA43F21C70C1F6FF704FF0020104F0AC
S32D0000E82813F94FF0100008F085FF044643F23863C1F6FF730093204643F24C61C1F6FF7143F25062C1F6FF7297
S32D0000E85043F23463C1F6FF73FFF720FEC7F8AC404FF0040008F06AFF0446204643F23C61C1F6FF71FFF738FE6D
S32D0000E878C7F8A8404FF00C0008F05CFF0446204643F25861C1F6FF7143F24062C1F6FF7243F24863C1F6FF7360
S32D0000E8A0FFF732FEC7F8A4404FF02C0008F046FF04463A4643F25863C1F6FF73009343F25463C1F6FF731B88AB
S32D0000E8C8ADF8043043F23463C1F6FF73029343F23863C1F6FF73039343F23C63C1F6FF73049343F24063C1F60D
S32D0000E8F0FF73059343F24463C1F6FF73069343F24863C1F6FF7307932046114643F24C62C1F6FF7243F25063FF
S32D0000E918C1F6FF73FFF70CFEC7F8A04043F21C70C1F6FF7048F63421C0F2010104F0DAFA00BF3B46184603F082
S32D0000E940ADFB034683F00103DBB2002BF5D100BF3B46184603F0A2FB0346002BF8D143F21C70C1F6FF7048F633
S32D0000E9684821C0F2010104F0BDFA43F21C70C1F6FF7048F65C21C0F2010104F0B3FA00BF3B46184603F074FBC2
S32D0000E990034683F00103DBB2002BF5D100BF3B46184603F069FB0346002BF8D143F21C70C1F6FF7048F668213B
S32D0000E9B8C0F2010104F096FA43F27870C1F6FF7005F040FFD7F8A80001F0EEFB07F1040318464FF00001FFF79E
S32D0000E9E04DFDD7F8AC003979DFF80429DFF8043900F0C6FDD7F8AC00DFF8FC1801F086F907F1080318464FF051
S32D0000EA080001FFF737FDD7F8AC00397ADFF8E428DFF8E43800F0B0FDD7F8AC00DFF8D01801F070F9D7F8AC0005
S32D0000EA30DFF8D0184FF0000201F03AF807F10C0318464FF00001FFF709FDD7F8AC00397BDFF8A8284FF0670375
S32D0000EA5800F05AFED7F8A40001F04EFBD7F8AC00DFF89C1801F04EF907F1100318464FF00001FFF7FFFCD7F8F4
S32D0000EA80AC00397CDFF87428DFF8803800F078FDD7F8AC00DFF8701801F038F907F1140318464FF00001FFF701
S32D0000EAA8E9FCD7F8AC00397DDFF85C284FF00A0300F04CFDD7F8A40001F042FB07F1180318464FF00001FFF702
S32D0000EAD0D5FCD7F8AC00397EDFF838284FF0050300F038FD07F11C0318464FF00101FFF7C5FCD7F8AC00397FD2
S32D0000EAF8DFF80028DFF80C3800F03EFD07F1200318464FF00101FFF7A5FCD7F8AC0097F82010DFF8E02700F052
S32D0000EB2087FE07F1240318464FF00101FFF7A6FCD7F8AC0097F82410DFF8C027DFF8D83700F01EFDD7F8AC0084
S32D0000EB48DFF8D0174FF0000200F080FE07F1280318464FF00001FFF77DFCD7F8AC0097F82810DFF890274FF0F3
S32D0000EB70500300F0CDFDD7F8AC00DFF87C1701F0C5F8D7F8AC00DFF8701701F0BFF8D7F8AC00DFF88C174FF022
S32D0000EB98000200F089FF4FF0640002F001F907F12C0318464FF00101FFF764FCD7F8AC0097F82C10DFF8642782
S32D0000EBC000F080FC00BF43F27870C1F6FF7006F059FC03464FF0010214461846DFF84817FEF78CFB0346002B05
S32D0000EBE802D14FF000031C46E3B2002BE7D1D7F8AC0000F099FCD7F8AC00DFF828174FF0000200F051FFD7F82F
S32D0000EC10AC00DFF8E41601F079F84FF0000387F89F3043F27870C1F6FF7006F01BFC03464FF0010214461846D4
S32D0000EC38DFF8B416FEF75EFB0346002B02D14FF000031C46E3B2002B0AD0D7F8AC00DFF8D81601F057F84FF07B
S32D0000EC60010387F89F3034E043F27870C1F6FF7006F0F8FB03464FF0010214461846DFF8B416FEF759FB03467E
S32D0000EC88002B02D14FF000031C46E3B2002B1CD0D7F8AC00DFF8981601F034F84FF0010387F89F3011E007F179
S32D0000ECB0300318464FF00101FFF7E0FBD7F8AC0097F83010DFF834264FF0050300F042FC00E000BF43F27870E7
S32D0000ECD8C1F6FF7006F0C2FB03461846FDF7F8FC02460B46104619464FF000024FF0804303F57A13FDF78CFB15
S32D0000ED0002460B4610461946FFF798FB02460B464FF001010C46104619464FF000024FF07E5303F5C003FDF72D
S32D0000ED28BBFF0346002B02D14FF000031C46E3B2002BB8D1D7F8AC00DFF8B41500F0E2FF07F1340318464FF017
S32D0000ED500101FFF793FBD7F8AC0097F83410DFF89C25DFF8D83500F00BFCD7F8AC00DFF8D0154FF0000200F0E6
S32D0000ED789BFED7F8A40001F089F9D7F8AC00DFF8BC154FF0000200F08FFED7F8A80001F067FA034687F8383014
S32D0000EDA007F138031846FFF793FB0346002B14BF00230123DBB2002B08D043F25860C1F6FF70DFF8841501F09E
S32D0000EDC8DBFC07E043F25860C1F6FF70DFF8181501F0D2FC4FF4FA7001F0E2FF43F24860C1F6FF7002F08CF990
S32D0000EDF00346002BF6D14FF0C80001F0D5FF43F25860C1F6FF7001F09DFC07F13C0318464FF00001FFF732FB59
S32D0000EE18D7F8AC0097F83C10DFF8D824DFF8143500F0AAFBD7F8A40001F008F907F1400318464FF00001FFF7BA
S32D0000EE401DFBD7F8AC0097F84010DFF8B024DFF8FC3400F095FBD7F8A40001F0C1F807F1440318464FF0010105
S32D0000EE68FFF708FBD7F8AC0097F84410DFF88424DFF8C03400F080FBD7F8AC00DFF8C8144FF0000200F010FE03
S32D0000EE9007F1480318464FF00101FFF7DFFAD7F8AC0097F84810DFF8542400F0C1FCD7F8AC00DFF8A01400F04F
S32D0000EEB829FF07F14C0318464FF00001FFF7DAFAD7F8AC0097F84C10DFF82824DFF8803400F052FBD7F8AC0089
S32D0000EEE0DFF878144FF0000200F0B4FC07F1500318464FF00101FFF7B1FAD7F8AC0097F85010FE4A4FF07103D0
S32D0000EF0800F002FCD7F8AC00DFF84C1400F0FAFE07F1540318464FF00101FFF7ABFAD7F8AC0097F85410F34A1F
S32D0000EF30DFF8183400F024FBD7F8A40001F082F807F1580318464FF00101FFF797FAD7F8AC0097F85810E94A85
S32D0000EF58DFF8083400F010FBD7F8A40001F03CF807F15C0318464FF00001FFF783FAD7F8AC0097F85C10DF4ADE
S32D0000EF80E24B00F0FDFA07F1600318464FF00101FFF774FAD7F8AC0097F86010D74AF24B00F0EEFAD7F8A400CE
S32D0000EFA801F04CF807F1640318464FF00101FFF751FAD7F8AC0097F86410CE4A00F034FCD7F8AC00E74900F076
S32D0000EFD09DFE43F27870C1F6FF7006F043FA03461846FDF779FB02460B4610461946BCA3D3E90023FDF710FA69
S32D0000EFF802460B46104619464FF00202FFF702FA04460D4643F27870C1F6FF7006F036FA03461846FDF75CFB70
S32D0000F02002460B4610461946AFA3D3E90023FDF7F3F902460B46104619464FF00202FFF7E5F902460B462046FF
S32D0000F0482946FDF7E7F902460B461046194606F019FB02460B4610461946FDF74FFE0346C7F8983043F21C70DF
S32D0000F070C1F6FF7048F67021C0F2010103F082FE43F21C70C1F6FF70D7F8981003F042FF07F1680318464FF0C4
S32D0000F0980001FFF7EFF9D7F8AC0097F86810954AD7F8983000F068FA07F16C0318464FF00001FFF7CFF9D7F88F
S32D0000F0C0AC0097F86C108D4A00F0B2FBD7F8AC00A34900F01BFE07F1700318464FF00001FFF7CCF9D7F8AC0048
S32D0000F0E897F87010834A974B00F046FAD7F8AC00994900F007FEFFF7B7FA07F1740318464FF00101FFF7B6F960
S32D0000F110D7F8AC0097F87410784A7A4B00F030FA07F1780318464FF00101FFF797F9D7F8AC0097F87810714ABD
S32D0000F1384FF4997300F0E8FAD7F8AC008A4900F0E1FDD7F8AC0089494FF0010200F07EFB07F17C0318464FF060
S32D0000F1600101FFF77BF9D7F8AC0097F87C10634A00F05EFBD7F8AC005F4900F0C7FD07F1800318464FF0000199
S32D0000F188FFF778F9D7F8AC0097F88010564A784B00F0F2F9D7F8AC0076494FF0000200F083FC07F18403184653
S32D0000F1B04FF00101FFF752F9D7F8AC0097F884104E4A00F035FBD7F8AC00624900F09EFD07F1880318464FF088
S32D0000F1D80001FFF74FF9D7F8AC0097F88810454A654B00F0C9F9D7F8AC0044494FF0000200F02CFB07F18C0350
S32D0000F20018464FF00001FFF729F9D7F8AC0097F88C103A4A4FF0660300F07AFAD7F8AC00584900F073FDD7F8A9
S32D0000F228A40000F08DFF07F1900318464FF00001FFF720F9D7F8AC0097F89010504A4E4B00F09AF9D7F8AC0085
S32D0000F25000F06EF907F1940318464FF00101FFF70DF9D7F8AC0097F89410244A444B00F087F9D7F8AC004349ED
S32D0000F27800F048FD43F27870C1F6FF7006F058F80346002B14BF00230123DBB2002BCAD143F21C70C1F6FF70E2
S32D0000F2A048F67C21C0F2010103F020FED7F8A00008F06AFAD7F8AC0008F066FAD7F8A80008F062FAD7F8A400C4
S32D0000F2C808F05EFA4FF00003184607F1B007BD46B0BD00BFAFF30080CDCCCCCCCCCC30400000000000404D4022
S32D0000F2F00000F0410000204100000000000020420000A0400000604100003C4200000041000070420000C84101
S32D0000F318000070410000D0410000B8410000824200000C420000444200808E430000F841000096420000803F53
S32D0000F34000005042000062420000F0C1000000400000544200008743000040410000284100006143000040400A
S32D0000F3680000E040000007430000B442000000420000804100008841000080400000A04300004842AFF30080FC
S32D0000F39080B582B000AF786039607B68012B5CD13A684FF6FF739A4257D143F23060C1F6FF704FF0030102F00F
S32D0000F3B8D9FD43F23460C1F6FF704FF0000101F043FF43F23860C1F6FF704FF0010101F03BFF43F23C60C1F608
S32D0000F3E0FF704FF0080102F013FB43F24060C1F6FF704FF0100101F057FD43F24460C1F6FF704FF0110101F077
S32D0000F4084FFD43F24860C1F6FF704FF0120101F047FD43F24C60C1F6FF704FF0000101F079F943F25060C1F6BA
S32D0000F430FF704FF0010101F071F943F25460C1F6FF704FF0020101F069F943F25860C1F6FF704FF0030101F0B8
S32D0000F45861F907F10807BD4680BD00BF80B500AF4FF001004FF6FF71FFF78EFF80BD00BF80B483B000AF7860E0
S32D0000F4807B681B78184607F10C07BD4680BC704780B483B000AF78607B681B78184607F10C07BD4680BC7047C6
S32D0000F4A880B483B000AF78607B6823F00043184607F10C07BD4680BC704700BF80B584B000AFF86039727A60FC
S32D0000F4D007F108031846FFF7DBFF0346002B02D0012B0DD01FE0FB681B681846796801F047F9FB685B681846B5
S32D0000F4F8796801F041F912E0FB681A687B6883F000431046194601F037F9FB685A687B6883F000431046194621
S32D0000F52001F02EF900BF07F11007BD4680BD00BF80B582B000AF78607B681B68184601F001F97B685B68184637
S32D0000F54801F0FCF807F10807BD4680BD80B586B002AFF86039727A603B603B680093F868397A7A687B6800F0D7
S32D0000F5703FF807F11007BD4680BD00BF0000000080B584B000AFF86039727A603B6043F21C70C1F6FF7048F673
S32D0000F5988421C0F2010103F0F1FB43F21C70C1F6FF70396803F0B2FC3868FDF791F802460B46104619460AA3CC
S32D0000F5C0D3E90023FDF7DCF802460B4610461946FDF770FB0346F868397A7A68FFF7BAFF07F11007BD4680BD8D
S32D0000F5E81F85EB51B8DE4040F0B587B000AFF86039727A603B60F86800F0DCFC07F108031846FFF741FF0346F4
S32D0000F610002B02D0012B0DD01FE0FB681B681846796801F0ADF8FB685B681846396801F0A7F812E0FB681A6880
S32D0000F6387B6883F000431046194601F09DF8FB685A683B6883F000431046194601F094F800BF01F0F7FB034635
S32D0000F6607B6100BFFB689B68184602F0A9F90446FB68DB68184602F0A3F90346E3181846FDF718F802460B466E
S32D0000F688104619464FF000024FF07E5303F5C003FDF772F802460B4614461D46386BFDF705F802460B464FF073
S32D0000F6B001010E4620462946FDF7D4FA0346002B02D14FF000031E46F3B2002B09D001F0BDFB02467B69D31AE7
S32D0000F6D8042B02D84FF0010301E04FF00003002BBCD1FB681B68184601F028F8FB685B68184601F023F84FF0B9
S32D0000F700640001F051FB07F11C07BD46F0BD00BFF0B587B000AFF86039727A603B60F86800F04CFC07F1080312
S32D0000F7281846FFF7A5FE0346002B02D0012B10D01FE0FB681A687B6883F000431046194601F01AF8FB685B680F
S32D0000F7501846796801F014F80FE0FB681B681846796801F00DF8FB685A687B6883F000431046194601F004F8E5
S32D0000F77800BF01F067FB03467B6100BFFB689B68184602F019F90446FB68DB68184602F013F90346E3181846B7
S32D0000F7A0FCF788FF02460B46104619464FF000024FF07E5303F5C003FCF7E2FF02460B4614461D463868FCF7AA
S32D0000F7C875FF02460B464FF001010E4620462946FDF744FA0346002B02D14FF000031E46F3B2002B09D001F0E3
S32D0000F7F02DFB02467B69D31A042B02D84FF0010301E04FF00003002BBCD1FB681B68184600F098FFFB685B6892
S32D0000F818184600F093FF4FF0640001F0C1FA07F11C07BD46F0BD00BF80B584B000AFF86039727A60F868397A01
S32D0000F8407A684FF0CC03FFF763FF07F11007BD4680BD00BF90B587B000AFF860B9601346FB7143F21C70C1F66B
S32D0000F868FF7048F69021C0F2010103F087FA43F27870C1F6FF7005F0F1FD034643F21C70C1F6FF70194603F044
S32D0000F890A7FA43F21C70C1F6FF7048F6A421C0F2010103F06FFA43F21C70C1F6FF70B96803F030FB01F0CAFAD4
S32D0000F8B803467B61BCE043F27870C1F6FF7005F0CDFD03464FF00102144618467249FDF711FD0346002B02D118
S32D0000F8E04FF000031C46E3B2002B1AD043F21C70C1F6FF704FF0020103F0F0F943F21C70C1F6FF7048F6AC21B5
S32D0000F908C0F2010103F0EEFA43F21C70C1F6FF704FF0030103F0DEF98AE043F27870C1F6FF7005F09BFD0346CB
S32D0000F9304FF0010214461846B968FDF7FDFC0346002B02D14FF000031C46E3B2002B2ED0FB79002B0CD0FB681A
S32D0000F9585B681846514900F00FFFFB681B6818464E4900F009FF0BE0FB685B6818464C4900F002FFFB681B681A
S32D0000F9801846494900F0FCFE4FF0640001F00CFAFB685B68184600F0D5FEFB681B68184600F0D0FE4FF06400F9
S32D0000F9A801F0FEF944E043F27870C1F6FF7005F055FD03464FF0010214461846B968FDF799FC0346002B02D167
S32D0000F9D04FF000031C46E3B2002B2DD0FB79002B0CD0FB685B6818462F4900F0C9FEFB681B6818462C4900F0D1
S32D0000F9F8C3FE0BE0FB685B681846284900F0BCFEFB681B681846254900F0B6FE4FF0640001F0C6F9FB685B68C7
S32D0000FA20184600F08FFEFB681B68184600F08AFE4FF0640001F0B8F943F27870C1F6FF7005F010FD0346B8682E
S32D0000FA481946FDF7AFF903461846FFF729FD03464FF00102144618461249FDF769FC0346002B02D14FF0000352
S32D0000FA701C46E3B2002B09D001F0E8F902467B69D31A042B02D84FF0010301E04FF00003002B7FF414AF07F1BA
S32D0000FA981C07BD4690BD00BF000000000000F0C10000F0410000003F90B587B000AFF860B9601346FB7143F257
S32D0000FAC01C70C1F6FF7048F69021C0F2010103F059F943F27870C1F6FF7005F0D3FC034643F21C70C1F6FF7047
S32D0000FAE8194603F079F943F21C70C1F6FF7048F6A421C0F2010103F041F943F21C70C1F6FF70B96803F002FA6A
S32D0000FB1001F09CF903467B61BCE043F27870C1F6FF7005F0AFFC03464FF00102144618467249FDF7E3FB034684
S32D0000FB38002B02D14FF000031C46E3B2002B1AD043F21C70C1F6FF704FF0020103F0C2F843F21C70C1F6FF7096
S32D0000FB6048F6AC21C0F2010103F0C0F943F21C70C1F6FF704FF0030103F0B0F88AE043F27870C1F6FF7005F0A5
S32D0000FB887DFC03464FF0010214461846B968FDF7CFFB0346002B02D14FF000031C46E3B2002B2ED0FB79002B6C
S32D0000FBB00CD0FB685B681846514900F0E1FDFB681B6818464E4900F0DBFD0BE0FB685B6818464C4900F0D4FDF7
S32D0000FBD8FB681B681846494900F0CEFD4FF0640001F0DEF8FB685B68184600F0A7FDFB681B68184600F0A2FD19
S32D0000FC004FF0640001F0D0F844E043F27870C1F6FF7005F037FC03464FF0010214461846B968FDF76BFB0346E4
S32D0000FC28002B02D14FF000031C46E3B2002B2DD0FB79002B0CD0FB685B6818462F4900F09BFDFB681B6818460C
S32D0000FC502C4900F095FD0BE0FB685B681846284900F08EFDFB681B681846254900F088FD4FF0640001F098F8E9
S32D0000FC78FB685B68184600F061FDFB681B68184600F05CFD4FF0640001F08AF843F27870C1F6FF7005F0F2FBC4
S32D0000FCA00346B8681946FDF781F803461846FFF7FBFB03464FF00102144618461249FDF73BFB0346002B02D15F
S32D0000FCC84FF000031C46E3B2002B09D001F0BAF802467B69D31A042B02D84FF0010301E04FF00003002B7FF408
S32D0000FCF014AF07F11C07BD4690BD00BF000000000000F0C10000F0410000003F90B589B000AF7860396043F205
S32D0000FD181C70C1F6FF7048F6BC21C0F2010103F02DF843F27870C1F6FF7005F0B7FB034643F21C70C1F6FF700A
S32D0000FD40194603F04DF843F21C70C1F6FF7048F6A421C0F2010103F015F843F21C70C1F6FF70396803F0D6F817
S32D0000FD6801F070F80346FB61E8E043F27870C1F6FF7005F093FB03464FF00102144618468849FDF7B7FA0346DF
S32D0000FD90002B02D14FF000031C46E3B2002B1AD043F21C70C1F6FF704FF0020102F096FF43F21C70C1F6FF7062
S32D0000FDB848F6AC21C0F2010103F094F843F21C70C1F6FF704FF0030102F084FFB6E043F27870C1F6FF7005F072
S32D0000FDE061FB034618463968FCF7E0FF03461846FFF75AFB03464FF00102144618466C49FDF790FA0346002BA3
S32D0000FE0802D14FF000031C46E3B2002B4BD043F27870C1F6FF7005F041FB03464FF00102144618463968FDF72E
S32D0000FE3083FA0346002B02D14FF000031C46E3B2002B0ED007F10C0318464FF00001FEF705FB7868397B574ACF
S32D0000FE584FF00303FFF758FC70E043F27870C1F6FF7005F01BFB03464FF00102144618463968FDF73FFA0346F5
S32D0000FE80002B02D14FF000031C46E3B2002B59D007F1100318464FF00101FEF7DFFA7868397C444A4FF00303E9
S32D0000FEA8FFF732FC4AE043F27870C1F6FF7005F0F5FA03464FF00102144618463968FDF737FA0346002B02D167
S32D0000FED04FF000031C46E3B2002B0ED007F1140318464FF00101FEF7B9FA7868397D314A4FF00303FFF70CFC18
S32D0000FEF824E043F27870C1F6FF7005F0CFFA03464FF00102144618463968FDF7F3F90346002B02D14FF000038A
S32D0000FF201C46E3B2002B0DD007F1180318464FF00001FEF793FA7868397E1E4A4FF00303FFF7E6FB43F2787049
S32D0000FF48C1F6FF7005F0AAFA034618463968FCF729FF03461846FFF7A3FA03464FF00102144618461249FDF79D
S32D0000FF70E3F90346002B02D14FF000031C46E3B2002B09D000F062FF0246FB69D31A042B02D84FF0010301E0EC
S32D0000FF984FF00003002B7FF4E8AE07F12407BD4690BD00BF00000000000034430000F0410000803F80B582B0C5
S32D0000FFC000AF78607B689B68184601F00DFD7B68DB68184601F008FD07F10807BD4680BD80B582B000AF78609E
S32D0000FFE843F21C70C1F6FF7048F6D021C0F2010102F078FF7B685B68184601F081F80346002B06D0786800F030
S32D0001001019F84FF0640000F0C7FE7B681B681846074900F0ADFB40F6BE2000F0BDFE7B681B68184600F086FBB8
S32D0001003807F10807BD4680BD000020C280B582B000AF786043F21C70C1F6FF7048F6E421C0F2010102F046FF6D
S32D000100607B681B6818460A4900F08AFB00BF7B685B68184601F048F80346002BF7D17B681B68184600F05EFBA8
S32D0001008807F10807BD4680BD0000204280B582B000AF786043F21C70C1F6FF7048F6F421C0F2010102F01EFFB5
S32D000100B07B681B681846114900F062FB00BF7B689B68184601F020F80346002BF7D14FF4FA7000F069FE00BFAB
S32D000100D87B689B68184601F013F80346002BF7D17B681B68184600F029FB07F10807BD4680BD00BF000020423D
S32D0001010080B582B000AF786043F21C70C1F6FF7048F60831C0F2010102F0E8FE7B681B681846084900F02CFBCC
S32D0001012840F2DC5000F03CFE7B681B68184600F005FB07F10807BD4680BD00BF000020C280B582B000AF786096
S32D0001015043F21C70C1F6FF7048F62031C0F2010102F0C4FE7B681B681846084900F008FB40F2DC5000F018FE36
S32D000101787B681B68184600F0E1FA07F10807BD4680BD00BF000020C280B483B000AF78600B46FB707B68FA78E2
S32D000101A01A707B68184607F10C07BD4680BC7047B0B584B000AF786043F21C70C1F6FF7048F63831C0F2010102
S32D000101C802F090FE00F03EFE0346FB6000BF7B681B68184601F028FC03464FF00102144618461E49FDF7A4F8E6
S32D000101F00346002B02D14FF000031C46E3B2002B27D0F868FCF756FA04460D4600F0E6FD02460B4620462946BD
S32D00010218FCF7FEF802460B464FF001010C46104619464FF000024FF0804303F5A013FCF715FD0346002B02D1B3
S32D000102404FF000031C46E3B2002B02D04FF0010301E04FF00003002BBDD107F11007BD46B0BD00BF0000803F3D
S32D0001026890B585B000AF786043F21C70C1F6FF7048F65031C0F2010102F034FE7B681B68184601F0D1FB03461E
S32D000102904FF00102144618461049FDF74DF80346002B02D14FF000031C46E3B2002B08D007F1080318464FF090
S32D000102B80001FFF769FF3B7A07E007F10C0318464FF00101FFF760FF3B7B184607F11407BD4690BD0000003F6B
S32D000102E080B500AF43F6EC72C1F6FF7243F23063C1F6FF73D31A194643F23063C1F6FF731A460B4610464FF0D8
S32D0001030800011A4606F08DF980BD00BF07F0F6F900F0B0F9FFF7E0FF07F0C8F907F064F907F0FCF900F00CF8AD
S32D000103304FF0000043F25C61C1F6FF71FEF754FA0346184606F04CF980B500AF4FF4E043C4F204034FF4E042B5
S32D00010358C4F2040202F5805202F13802126842F4785203F5805303F138031A6000F02EF900F094F843F2686343
S32D00010380C1F6FF734FF058021A6043F26863C1F6FF731B684FF47A7202FB03F243F26463C1F6FF731A6043F271
S32D000103A86463C1F6FF731B681A464FF4E043C4F2040303F5825303F104031B6803F070634FEA136303F1010378
S32D000103D0B2FBF3F31A4643F26C63C1F6FF731A604FF4E043C4F204034FF4E042C4F2040202F5805202F13C0226
S32D000103F8126842F0225203F5805303F13C031A604FF4E043C4F204034FF4E042C4F2040202F5805202F130020C
S32D00010420126842F0006203F5805303F130031A604FF45043C4F203034FF480721A614FF0640000F045FB4FF4DB
S32D000104485043C4F203034FF45042C4F20302526922F010025A614FF45043C4F203034FF000021A604FF45043E9
S32D00010470C4F203034FF010025A6101F00BFC01F0B3FC43F26060C1F6FF7000F0A5FB43F21C70C1F6FF7002F079
S32D0001049845FA41F2883000F083FC80BD80B400AF4FF48043C4F206034FF000025A704FF48043C4F206034FF0A8
S32D000104C098021A704FF48043C4F206039B79DBB203F01003002B0CBF00230123DBB2002BF0D14FF48043C4F20B
S32D000104E806039B79DBB203F00C034FEA9303022B0CBF00230123DBB2002BEED14FF48043C4F206034FF0180296
S32D000105101A714FF48043C4F206034FF000025A714FF4E043C4F2040303F5825303F104034FF00002C0F213125D
S32D000105381A604FF48043C4F206034FF054025A7100BF4FF48043C4F206039B79DBB203F02003002B14BF002399
S32D000105600123DBB2002BF0D100BF4FF48043C4F206039B79DBB203F04003002B14BF00230123DBB2002BF0D1B6
S32D000105884FF48043C4F206034FF48042C4F206021278D2B202F03F02D2B21A704FF48043C4F206039B79DBB207
S32D000105B003F00C034FEA9303032B0CBF00230123DBB2002BEED14FF000031846BD4680BC704700BF80B400AF5C
S32D000105D84FF44043C4F204034FF480725A634FF2C003C4F20F034FF2C002C4F20F02526942F400525A614FF2AA
S32D00010600C003C4F20F034FF2C002C4F20F02126842F400521A604FF44043C4F2040340F20312C0F20A021A63F5
S32D000106284FF46143CEF200034FF46142CEF20002D2F8882142F08062C3F888214FF46143CEF200034FF46142D6
S32D00010650CEF20002926842F080629A60BD4680BC704700BF80B483B000AF7860FEE700BF80B400AF00BEBD46C6
S32D0001067880BC704780B400AF4FF0E0224CF20003C0F20003C2F8083D4FF40053C4F205034CF22052DA814FF4A5
S32D000106A00053C4F205034DF62812DA814FF40053C4F205034FF0D2021A80BD4680BC704780B400AF4FF44043A2
S32D000106C8C4F20403D3F8A03003F48053002B0CBF00230123DBB2002B19D04FF44043C4F204034FF44042C4F205
S32D000106F00402D2F8A02022F48052C3F8A0204FF2C003C4F20F034FF2C002C4F20F02126822F400521A60BD46F3
S32D0001071880BC704780B483B000AF78600B46FB707B68FA781A707B684FF000025A707B68184607F10C07BD46F9
S32D0001074080BC704780B582B000AF78607B685B78002B10D07B684FF000025A707B681B7843F26060C1F6FF7069
S32D0001076819464FF000024FF01E0300F07BFA07F10807BD4680BD00BF90B585B000AF786039604FF001031C46B8
S32D0001079038682F49FCF7B2FD0346002B02D14FF000031C46E3B2002B02D0294B3B6011E04FF001031C463868BE
S32D000107B82649FCF7BDFD0346002B02D14FF000031C46E3B2002B01D0204B3B603868FBF77FFF02460B46104675
S32D000107E019464FF000024FF0804303F5B203FCF7F1F802460B461046194613A3D3E90023FBF7BEFF02460B4694
S32D0001080810461946FCF752FA0346FB737B685B78FA7B9A420FD07B68FA7B5A707B681A78FB7B43F26060C1F677
S32D00010830FF7011461A464FF01E0300F017FA07F11407BD4690BD00BF0000000000C05F400000C8C20000C842FD
S32D0001085890B486B000AFF860B9607A60FA684FF42043C4F206039A4214D14FF4E043C4F204034FF4E042C4F237
S32D00010880040202F5805202F13402126842F4806203F5805303F134031A6083E0FA684FF43043C4F206039A4239
S32D000108A814D14FF4E043C4F204034FF4E042C4F2040202F5805202F13402126842F4006203F5805303F13403FE
S32D000108D01A6067E0FA684FF44043C4F206039A4214D14FF4E043C4F204034FF4E042C4F2040202F5805202F190
S32D000108F83402126842F4805203F5805303F134031A604BE0FA684FF45043C4F206039A4214D14FF4E043C4F2AA
S32D0001092004034FF4E042C4F2040202F5805202F13402126842F4005203F5805303F134031A602FE0FA684FF468
S32D000109482043C4F20E039A4214D14FF4E043C4F204034FF4E042C4F2040202F5805202F12802126842F48062D9
S32D0001097003F5805303F128031A6013E04FF4E043C4F204034FF4E042C4F2040202F5805202F12802126842F427
S32D00010998006203F5805303F128031A60FB68DB78DBB223F00C03DAB2FB68DA70FB684FF000029A70BB684FF4B8
S32D000109C07A7202FB03F27B684FEA031392FBF3F39CB2FB681B78DBB223F01F03FB75234603F4F8534FEA2323E5
S32D000109E8DBB203F01F03DAB2FB7D1343DAB2FB681A70E2B2FB685A70BB684FF4FA4202FB03F27B684FEA0313E4
S32D00010A1092FBF3F39AB2234619464FEAC121CB1A4FEA43139BB2D3189CB2FB689B7ADBB223F01F03FB75E3B2DC
S32D00010A3803F01F03DAB2FB7D1343DAB2FB689A72FB68DB78DBB243F00C03DAB2FB68DA7007F11807BD4690BC01
S32D00010A60704700BF80B483B000AF786000BF7B681B79DBB203F02003002B14BF00230123DBB2002BF3D17B6886
S32D00010A88DB79DBB2184607F10C07BD4680BC704780B483B000AF78600B46FB7000BF7B681B79DBB2DBB26FEAAC
S32D00010AB00303DBB24FEAD313DBB2002BF3D17B68FA78DA7107F10C07BD4680BC704700BF80B483B000AF78609B
S32D00010AD84FF4E043C4F204034FF4E042C4F2040202F5805202F13802126842F0010203F5805303F138031A6092
S32D00010B004FF00003C4F204037A689A604FF00003C4F204034FF005025A604FF00003C4F204034FF00002C4F2F6
S32D00010B280402126842F001021A6000BF4FF00003C4F204031B6803F08003002B14BF00230123DBB2002BF1D1F9
S32D00010B504FF00003C4F204034FF00002C4F20402126822F001021A6007F10C07BD4680BC704700BF80B582B04A
S32D00010B7800AF786039607B68012B0AD13A684FF6FF739A4205D143F26060C1F6FF7000F00FF807F10807BD461D
S32D00010BA080BD00BF80B500AF4FF001004FF6FF71FFF7E0FF80BD00BF80B483B000AF78607B684FF000021A70E4
S32D00010BC87B68184607F10C07BD4680BC704700BF80B582B000AF78607B681B7883F00103DBB2002B36D04FF421
S32D00010BF0E043C4F2040303F5805303F128034FF400621A604FF45043C4F204034FF440721A624FF45043C4F25D
S32D00010C1804034FF440725A6243F26463C1F6FF731B684FEAD372D3184FEA63034FF43040C4F20E0019464FF42C
S32D00010C406142FFF709FE4FF0640000F0ADF87B684FF001021A704FF0010301E04FF00003184607F10807BD4630
S32D00010C6880BD00BF80B582B000AF7860F970BA707B704FF43040C4F20E004FF07F01FFF707FF4FF43040C4F25A
S32D00010C900E004FF00801FFF7FFFEFB784FF43040C4F20E001946FFF7F7FEBB784FF43040C4F20E001946FFF7B9
S32D00010CB8EFFE7B784FF43040C4F20E001946FFF7E7FE4FF43040C4F20E004FF0FF01FFF7DFFE07F10807BD46E9
S32D00010CE080BD00BF80B487B000AFF860B9607A60FA6844F6D353C1F26203A3FB02134FEA9312BB68D3187B612F
S32D00010D08FA6844F6D353C1F26203A3FB02134FEA93134FF47A7101FB03F3D31AFB60FB684FEAC33244F6D353F7
S32D00010D30C1F26203A3FB02134FEA93127B68D3183B613B694FEAD3337A69D3187B613B694FEA43434FEA5343C2
S32D00010D583B614FF45043C4F203031B681A467B699A4211D34FF45043C4F203031B681A467B699A420BD14FF463
S32D00010D805043C4F203035B681A463B699A4202D24FF0010301E04FF00003002BDDD107F11C07BD4680BC70472E
S32D00010DA880B584B000AF78604FF45043C4F203031B68FB604FF45043C4F203035B68BB607B681846F968BA6888
S32D00010DD0FFF788FF07F11007BD4680BD80B584B000AF4FF45043C4F203031B68FB604FF45043C4F203035B684B
S32D00010DF8BB60F868FBF74AFC02460B46C7E90023B868FBF743FC02460B46104619464FF000024FF0804303F5D3
S32D00010E206003FBF7D7FD02460B46D7E90001FBF7F5FA02460B46C7E90023D7E900231046194607F11007BD4629
S32D00010E4880BD00BF80B400AF4FF45043C4F203031B681846BD4680BC704700BF80B483B000AF4FF45043C4F2D2
S32D00010E7003031B684FF47A7202FB03F37B604FF45043C4F203035B684FF47A7202FB03F34FEAD3337A68D3184A
S32D00010E987B607B68184607F10C07BD4680BC704780B582B000AF78600B46FB70FB787868194600F013F87B68D4
S32D00010EC0184607F10807BD4680BD00BF80B483B000AF78607B68184607F10C07BD4680BC704700BF80B483B049
S32D00010EE800AF78600B46FB707B68FA781A707B681B781A4648F6A853C0F201039B5C042B00F2F98001A252F876
S32D00010F1023F000BF290F0100870F0100E50F010043100100A11001004FF41043C4F204037A681278114648F6C1
S32D00010F38EC52C0F2010252F8212040F2031143F822104FF47043C4F20F034FF47042C4F20F02526911467A68EB
S32D00010F601278104648F6EC52C0F2010252F8202002F01F024FF0010000FA02F26FEA02020A405A61BBE04FF446
S32D00010F882043C4F204037A681278114648F6EC52C0F2010252F8212040F2031143F822104FF24003C4F20F039C
S32D00010FB04FF24002C4F20F02526911467A681278104648F6EC52C0F2010252F8202002F01F024FF0010000FAEC
S32D00010FD802F26FEA02020A405A618CE04FF43043C4F204037A681278114648F6EC52C0F2010252F8212040F204
S32D00011000031143F822104FF28003C4F20F034FF28002C4F20F02526911467A681278104648F6EC52C0F2010225
S32D0001102852F8202002F01F024FF0010000FA02F26FEA02020A405A615DE04FF44043C4F204037A6812781146E9
S32D0001105048F6EC52C0F2010252F8212040F2031143F822104FF2C003C4F20F034FF2C002C4F20F02526911465A
S32D000110787A681278104648F6EC52C0F2010252F8202002F01F024FF0010000FA02F26FEA02020A405A612EE01B
S32D000110A04FF45043C4F204037A681278114648F6EC52C0F2010252F8212040F2031143F822104FF47143C4F2AF
S32D000110C80F034FF47142C4F20F02526911467A681278104648F6EC52C0F2010252F8202002F01F024FF0010048
S32D000110F000FA02F26FEA02020A405A6100BF07F10C07BD4680BC704780B485B000AF78604FF00003FB607B6851
S32D000111181B781A4648F6A853C0F201039B5C042B00F2868001A252F823F000BF4911010079110100A911010048
S32D00011140D9110100091201004FF47043C4F20F031B691A467B681B78194648F6EC53C0F2010353F8213003F040
S32D000111681F034FF0010101FA03F31340FB605FE04FF24003C4F20F031B691A467B681B78194648F6EC53C0F2E3
S32D00011190010353F8213003F01F034FF0010101FA03F31340FB6047E04FF28003C4F20F031B691A467B681B788E
S32D000111B8194648F6EC53C0F2010353F8213003F01F034FF0010101FA03F31340FB602FE04FF2C003C4F20F030A
S32D000111E01B691A467B681B78194648F6EC53C0F2010353F8213003F01F034FF0010101FA03F31340FB6017E06C
S32D000112084FF47143C4F20F031B691A467B681B78194648F6EC53C0F2010353F8213003F01F034FF0010101FA1F
S32D0001123003F31340FB6000BFFB68002B0CBF00230123DBB2184607F11407BD4680BC704780B584B000AF7860A8
S32D000112580B46FB704FF00B03FB73FA78FB7B786811461A4600F0ECF87B68184607F11007BD4680BD80B485B0A4
S32D0001128000AF78607B68A3F11003002B01DA03F11F034FEA6313FB60FB68012B48D0022B00F08980002B40F0E0
S32D000112A8C9804FF46142CEF200024FF46143CEF20003D3F8803119467B68A3F110004FF01F03C8F200030340B9
S32D000112D0002B05DA03F1FF3363F01F0303F101034FF0010000FA03F30B43C2F880314FF46142CEF200024FF47E
S32D000112F86143CEF200031B6819467B68A3F110004FF01F03C8F200030340002B05DA03F1FF3363F01F0303F1FD
S32D0001132001034FF0010000FA03F30B43136085E04FF46142CEF200024FF46143CEF20003D3F8843119467B6830
S32D00011348A3F110004FF01F03C8F200030340002B05DA03F1FF3363F01F0303F101034FF0010000FA03F30B4356
S32D00011370C2F884314FF46142CEF200024FF46143CEF200035B6819467B68A3F110004FF01F03C8F20003034083
S32D00011398002B05DA03F1FF3363F01F0303F101034FF0010000FA03F30B43536042E04FF46142CEF200024FF44B
S32D000113C06143CEF20003D3F8883119467B68A3F110004FF01F03C8F200030340002B05DA03F1FF3363F01F0327
S32D000113E803F101034FF0010000FA03F30B43C2F888314FF46142CEF200024FF46143CEF200039B6819467B6856
S32D00011410A3F110004FF01F03C8F200030340002B05DA03F1FF3363F01F0303F101034FF0010000FA03F30B438D
S32D00011438936000BF07F11407BD4680BC704700BF80B584B000AF786013460A46FA70BB707B68FA781A70BB78CB
S32D00011460FB737B681B781A4648F6A853C0F201039B5C042B00F2F68001A252F823F000BF951401000915010014
S32D000114887D15010065160100F11501004FF41043C4F204037A681278114648F6EC52C0F2010252F82110FA7BE8
S32D000114B04FEA024202F4702242F4887242F0030243F821204FF47043C4F20F034FF47042C4F20F025269114699
S32D000114D87A681278104648F6EC52C0F2010252F8202002F01F024FF0010000FA02F26FEA02020A405A614FF086
S32D000115006700FFF7BBFEADE04FF42043C4F204037A681278114648F6EC52C0F2010252F82110FA7B4FEA024255
S32D0001152802F4702242F4887242F0030243F821204FF24003C4F20F034FF24002C4F20F02526911467A68127815
S32D00011550104648F6EC52C0F2010252F8202002F01F024FF0010000FA02F26FEA02020A405A614FF06800FFF71B
S32D0001157881FE73E04FF43043C4F204037A681278114648F6EC52C0F2010252F82110FA7B4FEA024202F4702216
S32D000115A042F4887242F0030243F821204FF28003C4F20F034FF28002C4F20F02526911467A681278104648F611
S32D000115C8EC52C0F2010252F8202002F01F024FF0010000FA02F26FEA02020A405A614FF06900FFF747FE39E0D8
S32D000115F04FF45043C4F204037A681278114648F6EC52C0F2010252F82110FA7B4FEA024202F4702242F4887220
S32D0001161842F0030243F821204FF47143C4F20F034FF47142C4F20F02526911467A681278104648F6EC52C0F272
S32D00011640010252F8202002F01F024FF0010000FA02F26FEA02020A405A614FF06B00FFF70DFE00BF07F11007D2
S32D00011668BD4680BDB0B48BB000AF48F66433C0F2010307F104041D460FCD0FC495E80F0084E80F004FF00003DF
S32D000116907B6248E04FF42043C4F20403D3F8A0301A467B6A4FEA830307F12800C31853F8243C4FF0010101FA42
S32D000116B803F31340002B0CBF00230123DBB2002B29D043F29063C1F6FF737A6A53F8223003F1010143F29063DC
S32D000116E0C1F6FF737A6A43F822104FF42043C4F204034FF42042C4F20402D2F8A02011467A6A4FEA820207F123
S32D000117082800821852F8242C4FF0010000FA02F20A40C3F8A0207B6A03F101037B627B6A072BCCBF00230123C0
S32D00011730DBB2002BAED107F12C07BD46B0BC7047B0B489B000AF48F68433C0F2010307F104041D460FCD0FC4F9
S32D0001175895E8030084E803004FF00003FB6149E04FF43043C4F20403D3F8A0301A46FB694FEA830307F1200003
S32D00011780C31853F81C3C4FF0010101FA03F31340002B0CBF00230123DBB2002B2AD0FB6903F1080243F29063BE
S32D000117A8C1F6FF7353F8223003F1010143F29063C1F6FF7343F822104FF43043C4F204034FF43042C4F20402B4
S32D000117D0D2F8A0201146FA694FEA820207F12000821852F81C2C4FF0010000FA02F20A40C3F8A020FB6903F15A
S32D000117F80103FB61FB69052BCCBF00230123DBB2002BADD107F12407BD46B0BC704700BFB0B48DB000AF48F630
S32D000118209C33C0F201033C461D460FCD0FC40FCD0FC495E8070084E807004FF00003FB6249E04FF41043C4F2C6
S32D000118480403D3F8A0301A46FB6A4FEA830307F13000C31853F8303C4FF0010101FA03F31340002B0CBF0023F3
S32D000118700123DBB2002B2AD0FB6A03F10E0243F29063C1F6FF7353F8223003F1010143F29063C1F6FF7343F89A
S32D0001189822104FF41043C4F204034FF41042C4F20402D2F8A0201146FA6A4FEA820207F13000821852F8302CE1
S32D000118C04FF0010000FA02F20A40C3F8A020FB6A03F10103FB62FB6A092BCCBF00230123DBB2002BADD107F1B3
S32D000118E83407BD46B0BC7047B0B487B000AF48F6C833C0F201033C461D460FCD0FC42B6823604FF000037B616F
S32D0001191049E04FF45043C4F20403D3F8A0301A467B694FEA830307F11800C31853F8183C4FF0010101FA03F392
S32D000119381340002B0CBF00230123DBB2002B2AD07B6903F1180243F29063C1F6FF7353F8223003F1010143F233
S32D000119609063C1F6FF7343F822104FF45043C4F204034FF45042C4F20402D2F8A02011467A694FEA820207F132
S32D000119881800821852F8182C4FF0010000FA02F20A40C3F8A0207B6903F101037B617B69042BCCBF0023012360
S32D000119B0DBB2002BADD107F11C07BD46B0BC704780B483B000AF78607B681B781A4643F29063C1F6FF7353F831
S32D000119D82230184607F10C07BD4680BC704700BF80B483B000AF78607B681B781A4643F29063C1F6FF734FF01C
S32D00011A00000143F8221007F10C07BD4680BC704780B483B000AF78600B46FB707B68FA781A707B68184607F186
S32D00011A280C07BD4680BC704780B586B000AF78607B681B781A4648F66C63C0F2010353F822303B617B681B784C
S32D00011A501A4648F6C853C0F201039B5CFB733B69DBB203F01F03DAB243F27063C1F6FF731A723B69DBB203F0E0
S32D00011A781F03DAB243F27063C1F6FF735A724FF46143CEF200034FF01002C3F88820FB7B002B1ED14FF43040F3
S32D00011AA0C4F2030043F27061C1F6FF7100F0C4FB4FF43043C4F203031B6803F08003002B14BF00230123DBB245
S32D00011AC8002BF1D14FF43043C4F203031B697B611DE04FF43040C4F20B0043F27061C1F6FF7100F0A5FB4FF4BF
S32D00011AF03043C4F20B031B6803F08003002B14BF00230123DBB2002BF1D14FF43043C4F20B031B697B614FF4BB
S32D00011B186143CEF200034FF46142CEF20002D2F8882142F01002C3F888214FF46143CEF200034FF46142CEF224
S32D00011B400002926842F010029A607B694FEA03434FEA13431846FAF79DFD02460B46104619460FA3D3E9002382
S32D00011B68FAF70AFE02460B46104619460CA3D3E90023FAF72BFF02460B4610461946FBF7BDF80346BB60BB68E2
S32D00011B90184607F11807BD4680BD00BFAFF30080A4703D0AD7A30A4000000000E0FFEF4080B586B000AF786071
S32D00011BB87B681B781A4648F66C63C0F2010353F822303B617B681B781A4648F6C853C0F201039B5CFB733B693E
S32D00011BE0DBB203F01F03DAB243F28063C1F6FF731A723B69DBB203F01F03DAB243F28063C1F6FF735A72FB7B86
S32D00011C08002B1ED14FF43040C4F2030043F28061C1F6FF7100F00CFB4FF43043C4F203031B6803F08003002B5D
S32D00011C3014BF00230123DBB2002BF1D14FF43043C4F203031B697B611DE04FF43040C4F20B0043F28061C1F6E1
S32D00011C58FF7100F0EDFA4FF43043C4F20B031B6803F08003002B14BF00230123DBB2002BF1D14FF43043C4F278
S32D00011C800B031B697B617B69184607F11807BD4680BD00BF98B500AF43F27063C1F6FF734FF05C021A7043F2E6
S32D00011CA87063C1F6FF734FF010025A7043F27063C1F6FF7341F234225A8043F27063C1F6FF7345F278629A8006
S32D00011CD043F27063C1F6FF734FF010029A7143F27063C1F6FF734FF00702DA7143F27063C1F6FF734FF4C0223E
S32D00011CF8DA6043F27063C1F6FF734FF01F021A7243F27063C1F6FF734FF01F025A724FF43040C4F2030043F268
S32D00011D207061C1F6FF7100F087FA4FF43040C4F20B0043F27061C1F6FF7100F07DFA4FF43040C4F20B0000F0BF
S32D00011D48D1F94FF43040C4F2030000F0CBF94FF43040C4F20B0043F27061C1F6FF7100F067FA4FF43040C4F227
S32D00011D70030043F27061C1F6FF7100F05DFA43F28062C1F6FF7243F27063C1F6FF7314460FCB84E80F0043F279
S32D00011D988063C1F6FF734FF05C021A7043F28063C1F6FF734FF00402DA7198BD80B500AF43F21473C1F6FF73FA
S32D00011DC01B6803F1010243F21473C1F6FF731A6000F04CF84FF4E043C4F203034FF00102C3F80C2180BD00BF9F
S32D00011DE880B500AF4FF4E043C4F203034FF001021A6048F2A060C0F2010000F023F84FF4E043C4F203034FF0B1
S32D00011E100302C3F808214FF46143CEF200034FF46142CEF20002D2F8882142F01002C3F888214FF46143CEF2A6
S32D00011E3800034FF46142CEF20002926842F010029A6080BD80B483B000AF78604FF4E043C4F203037A68C3F8AE
S32D00011E60002107F10C07BD4680BC704780B584B000AF43F21073C1F6FF731B68FB6029E0FB685B78FB71FB684C
S32D00011E889B68184600F02EF80346BB71BB79002B19D0FB685B68012B15DDFB689B681B69BB6008E0BB685B68E0
S32D00011EB003F10102BB685A60BB681B69BB60BB68002B0CBF00230123DBB2002BEED1FB68DB68FB60FB68002B07
S32D00011ED80CBF00230123DBB2002BCDD107F11007BD4680BD80B584B000AF78607868FFF75BFE0346FB607B687E
S32D00011F009B695B78FB72FB7A002B12D17B68DA68FB689A420DDA7B689B694FF001025A707B685B6803F1010210
S32D00011F287B685A604FF0010317E0FB7A012B12D17B689A68FB689A420DDD7B689B694FF000025A707B685B6889
S32D00011F5003F101027B685A604FF0010301E04FF00003184607F11007BD4680BD80B582B000AF78600B46FB7011
S32D00011F787B681846FEF7A6FF7B6803F101031846FEF7A0FF7B6803F102031846FEF79AFFFB78032B66D801A248
S32D00011FA052F823F0B51F0100E31F0100112001003F2001007B6818464FF00001FEF792FF7B6803F1010318460B
S32D00011FC84FF00101FEF78AFF7B6803F1020318464FF00201FEF782FF44E07B6818464FF00801FEF77BFF7B683A
S32D00011FF003F1010318464FF00901FEF773FF7B6803F1020318464FF00A01FEF76BFF2DE07B6818464FF010013B
S32D00012018FEF764FF7B6803F1010318464FF01101FEF75CFF7B6803F1020318464FF01201FEF754FF16E07B68BA
S32D0001204018464FF01801FEF74DFF7B6803F1010318464FF01901FEF745FF7B6803F1020318464FF01A01FEF726
S32D000120683DFF00BF7B68184607F10807BD4680BD80B582B000AF78607B681846FFF740F8034683F00103DBB21C
S32D00012090184607F10807BD4680BD00BF80B582B000AF78607B6803F101031846FFF72CF8034683F00103DBB22F
S32D000120B8184607F10807BD4680BD00BF80B582B000AF78607B6803F102031846FFF718F8034683F00103DBB21A
S32D000120E0184607F10807BD4680BD00BF80B485B000AF78607B681B6A23F040027B681A627B685B6A23F00B0299
S32D000121087B685A627B685B6A43F007027B685A627B685B6A43F080027B685A627B681B6803F08003002B14BFB0
S32D0001213000230123DBB2002BF4D17B685B6A03F04003002B0CBF00230123DBB2002B02D04FF0010369E04FF04C
S32D000121580003FB817B68DB6CFB817B689B6C9AB2FB89D318FB817B685B6C9AB2FB89D318FB817B681B6C9AB27B
S32D00012180FB89D318FB817B68DB6B9AB2FB89D318FB817B689B6B9AB2FB89D318FB81FB894FEA5303FB81FB89B2
S32D000121A86FEA43436FEA5343FB81FA897B68DA624FF00003FB817B68DB6EFB817B689B6E9AB2FB89D318FB8193
S32D000121D07B685B6E9AB2FB89D318FB817B681B6E9AB2FB89D318FB817B68DB6D9AB2FB89D318FB817B689B6D0D
S32D000121F89AB2FB89D318FB81FB894FEA5303FB81FB896FEA43436FEA5343FB81FA897B681A637B685B6A23F086
S32D0001222080027B685A624FF00003184607F11407BD4680BC704700BF80B483B000AF786039603B681B781A46E9
S32D000122487B689A603B685B781A467B68DA603B685B881A467B689A613B689B881A467B68DA613B689B791A4678
S32D000122707B681A623B68DB791A467B685A623B68DA687B681A653B681B7A1A467B681A603B685B7A1A467B68F3
S32D000122985A6007F10C07BD4680BC704780B483B000AF78607B68184607F10C07BD4680BC704700BF80B582B006
S32D000122C000AF786039607B68012B0AD13A684FF6FF739A4205D143F21870C1F6FF70FFF7E1FF07F10807BD4617
S32D000122E880BD00BF80B500AF4FF001004FF6FF71FFF7E0FF80BD00BF80B582B000AF78604FF43043C4F20403C0
S32D000123104FF48072DA604FF42043C4F204034FF480729A644FF42043C4F204034FF480721A644FF42043C4F227
S32D0001233804034FF480725A644FF42043C4F204034FF48072DA604FF28003C4F20F034FF28002C4F20F025269D9
S32D0001236042F008025A614FF24003C4F20F034FF24002C4F20F02526942F480225A614FF24003C4F20F034FF2E6
S32D000123884002C4F20F02526942F480325A614FF24003C4F20F034FF24002C4F20F02526942F400325A614FF20A
S32D000123B04003C4F20F034FF24002C4F20F02126842F008021A604FF24003C4F20F034FF24002C4F20F02526928
S32D000123D842F008025A614FF28003C4F20F034FF28002C4F20F02126842F008021A604FF42043C4F204034FF4F3
S32D0001240080725A624FF42043C4F204034FF480721A624FF43043C4F204034FF480721A614FF43043C4F2040355
S32D000124284FF480725A614FF43043C4F204034FF480729A614FF43043C4F204034FF48072DA614FF43043C4F2A3
S32D0001245004034FF480721A634FF43043C4F204034FF480725A634FF43043C4F204034FF480729A634FF43043E4
S32D00012478C4F204034FF48072DA634FF43043C4F204034FF480721A644FF43043C4F204034FF480725A644FF437
S32D000124A03043C4F204034FF480729A644FF43043C4F204034FF48072DA644FF44043C4F204034FF480721A6092
S32D000124C84FF44043C4F204034FF480729A604FF44043C4F204034FF48072DA604FF44043C4F204034FF4807289
S32D000124F01A614FF24003C4F20F034FF24002C4F20F02526942F440725A614FF28002C4F20F024FF28003C4F24A
S32D000125180F035B6919464FF2F003C0F20F030B4353614FF2C003C4F20F034FF2C002C4F20F02526942F01D02C3
S32D000125405A6178684FF0E20100F00EFD78684FF01D0100F04DFE78684FF0020100F048FE78684FF0040100F0D0
S32D0001256843FE78684FF0E00100F0FAFC78684FF0010100F039FE4FF06400FEF711FC78684FF0E00100F0ECFC58
S32D0001259078684FF0030100F02BFE78684FF0010100F0E2FC4FF00100FEF7FEFB78684FF0E60100F0D9FC786818
S32D000125B84FF0010100F018FE78684FF0A00100F013FE78684FF0FF0100F00EFE78684FF0B00100F0C5FC786870
S32D000125E04FF01C0100F004FE78684FF00F0100F0FFFD78684FF0010100F0FAFD78684FF03F0100F0F5FD78683A
S32D000126084FF0000100F0F0FD78684FF0EF0100F0EBFD78684FF0000100F0E6FD78684FF0B40100F09DFC78686F
S32D000126304FF0010100F0DCFD78684FF0990100F0D7FD78684FF0000100F0D2FD78684FF0450100F0CDFD786816
S32D000126584FF0020100F0C8FD78684FF0000100F0C3FD78684FF0000100F0BEFD78684FF0000100F0B9FD78681B
S32D000126804FF0B60100F070FC78684FF0010100F0AFFD78684FF0090100F0AAFD78684FF0000100F0A5FD7868CA
S32D000126A84FF00E0100F0A0FD78684FF0020100F09BFD78684FF0000100F096FD78684FF0000100F091FD78685D
S32D000126D04FF0BA0100F048FC78684FF00F0100F087FD4FF06400FEF75FFB78684FF03A0100F03AFC78684FF079
S32D000126F8600100F079FD78684FF02A0100F030FC78684FF0000100F06FFD78684FF0000100F06AFD78684FF074
S32D00012720010100F065FD78684FF03F0100F060FD78684FF02B0100F017FC78684FF0000100F056FD78684FF0BA
S32D00012748000100F051FD78684FF0000100F04CFD78684FF0EF0100F047FD78684FF0360100F0FEFB78684FF029
S32D00012770000100F03DFD78684FF0F00100F0F4FB78684FF0040100F033FD78684FF0B80100F0EAFB78684FF010
S32D000127980F0100F029FD78684FF0010100F024FD4FF24003C4F20F034FF24002C4F20F02126842F008021A60F4
S32D000127C04FF06400FEF7F0FA78684FF0360100F0CBFB78684FF0000100F00AFD78684FF0F00100F0C1FB7868A9
S32D000127E84FF0040100F000FD43F21C70C1F6FF704FF0010100F010FA43F21C70C1F6FF704FF06F014FF01E027A
S32D0001281000F0A4F843F21C70C1F6FF704FF0000100F05CFA43F21C70C1F6FF7048F6DC31C0F201014FF05A021F
S32D000128384FF0AF0300F076FA78684FF0290100F08FFB4FF06400FEF7ABFA78684FF0BE0100F086FB78684FF0B2
S32D000128600E0100F0C5FC78684FF0F00100F0C0FC78684FF0010100F0BBFC78684FF0000100F0B6FC78684FF024
S32D00012888000100F0B1FC78684FF00F0100F0ACFC43F21C70C1F6FF704FF0010100F01AFA43F21C70C1F6FF70A9
S32D000128B04FF0000100F0EAF907F10807BD4680BD80B582B000AF78607B684FF00002DA617B684FF001021A62B1
S32D000128D87B684FF00E025A607B684FF01A029A607B684FF000025A617B684FF000029A617B684FF4A072DA603D
S32D000129007B684FF0F0021A617B684FF000021A70786801F093FA7B68184607F10807BD4680BD00BF80B582B05F
S32D0001292800AF786043F25873C1F6FF731B7883F00103DBB2002B09D043F25873C1F6FF734FF001021A70786860
S32D00012950FFF7D6FC07F10807BD4680BD80B58AB002AFF860B9607A604FF07E030093F868B9687A684FF0620384
S32D0001297800F0C0FE4FF00003FB614FF00003BB6155E04FF000037B6145E040F20043C1F6FF73FA699B181B78C7
S32D000129A0002B09D14FF0FF03FB744FF0FF03BB744FF0FF037B741BE040F20043C1F6FF73FA699B181B78012B45
S32D000129C809D14FF0D403FB744FF00003BB744FF026037B7408E04FF0B503FB744FF0BA03BB744FF0B0037B745F
S32D000129F0F97CBA7C7B7CF86800F0F0F80246FB68DA61F86801F01AFAF86801F0B7F8FB6903F10103FB617B69F7
S32D00012A1803F101037B617B69612BCCBF00230123DBB2002BB1D1BB6903F10103BB61BB697D2BCCBF0023012369
S32D00012A40DBB2002BA1D107F12007BD4680BD00BF80B582B000AF78600B46FB707B68FA781A7078684FF0360140
S32D00012A6800F07EFA7B681B78032B23D801A252F823F000BF8D2A0100992A0100A52A0100B12A010078684FF032
S32D00012A90000100F0ADFB11E078684FF0030100F0A7FB0BE078684FF0A30100F0A1FB05E078684FF0A00100F009
S32D00012AB89BFB00BF7B681B78002B03D07B681B78012B10D17B684FF00E025A607B684FF01A029A607B684FF459
S32D00012AE0A072DA607B684FF0F0021A610FE07B684FF012025A607B684FF013029A607B684FF0F002DA607B68AB
S32D00012B084FF4A0721A61786800F098FC07F10807BD4680BD80B485B000AF78600B46FB70FB78062B2ED801A22A
S32D00012B3052F823F0592B0100512B0100612B0100692B0100712B0100792B0100812B01006FF07F43FB6019E091
