S01A00002E2E2F506572666F726D616E636554657374312E7331390C
S32D0000C0000000002019DE000075E1000075E1000075E1000075E1000075E100000000000000000000000000004D
S32D0000C0280000000075E1000075E100000000000075E1000075E1000075E1000075E1000075E1000075E100003A
S32D0000C05075E1000075E1000075E1000075E1000075E1000075E1000075E1000075E1000075E1000075E1000066
S32D0000C07875E1000075E1000075E1000075E1000075E1000075E1000075E1000075E1000075E1000075E100003E
S32D0000C0A075E1000075E1000075E1000075E1000075E1000075E1000075E1000075E1000075E1000075E1000016
S32D0000C0C875E1000075E1000075E1000075E1000075E1000075E1000075E1000075E1000075E1000075E10000EE
S32D0000C0F075E10000B91D010075E1000075E1000075E1000075E1000075E1000075E1000075E1000075E1000045
S32D0000C11875E1000075E1000075E1000075E1000075E1000075E1000075E1000075E1000075E1000075E100009D
S32D0000C14075E1000075E1000075E1000075E1000045F6000075E1000075E1000075E1000075E1000075E1000090
S32D0000C16875E1000075E1000075E1000075E1000075E1000075E1000075E1000075E1000075E1000075E100004D
S32D0000C19075E1000075E1000075E1000031F200008DF000005DF10000C5E1000005F3000075E1000075E1000047
S32D0000C1B875E1000075E1000075E1000075E1000075E1000075E1000075E1000075E1000075E1000075E10000FD
S32D0000C41081F0004102E000BF83F0004330B54FEA41044FEA430594EA050F08BF90EA020F1FBF54EA000C55EAC6
S32D0000C438020C7FEA645C7FEA655C00F0E2804FEA5454D4EB5555B8BF6D420CDD2C4480EA020281EA030382EA0F
S32D0000C460000083EA010180EA020281EA0303362D88BF30BD11F0004F4FEA01314FF4801C4CEA113102D0404263
S32D0000C48861EB410113F0004F4FEA03334CEA133302D0524263EB430394EA050F00F0A780A4F10104D5F1200E8A
S32D0000C4B00DDB02FA0EFC22FA05F2801841F1000103FA0EF2801843FA05F359410EE0A5F120050EF1200E012A2D
S32D0000C4D803FA0EFC28BF4CF0020C43FA05F3C01851EBE37101F0004507D54FF0000EDCF1000C7EEB00006EEB67
S32D0000C5000101B1F5801F1BD3B1F5001F0CD349085FEA30004FEA3C0C04F101044FEA445212F5800F80F09A8000
S32D0000C528BCF1004F08BF5FEA500C50F1000041EB045141EA050130BD5FEA4C0C404141EB010111F4801FA4F114
S32D0000C5500104E9D191F0000F04BF01460020B1FA81F308BF2033A3F10B03B3F120020CDA0C3208DD02F1140C87
S32D0000C578C2F10C0201FA0CF021FA02F10CE002F11402D8BFC2F1200C01FA02F120FA0CFCDCBF41EA0C019040B1
S32D0000C5A0E41AA2BF01EB0451294330BD6FEA04041F3C1CDA0C340EDC04F11404C4F1200220FA04F001FA02F3B6
S32D0000C5C840EA030021FA04F345EA030130BDC4F10C04C4F1200220FA02F001FA04F340EA0300294630BD21FAA8
S32D0000C5F004F0294630BD94F0000F83F4801306BF81F480110134013D4EE77FEA645C18BF7FEA655C29D094EA1C
S32D0000C618050F08BF90EA020F05D054EA000C04BF1946104630BD91EA030F1EBF0021002030BD5FEA545C05D1A3
S32D0000C6404000494128BF41F0004130BD14F580043CBF01F5801130BD01F0004545F0FE4141F470014FF0000031
S32D0000C66830BD7FEA645C1ABF194610467FEA655C1CBF0B46024650EA013406BF52EA033591EA030F41F40021D7
S32D0000C69030BD00BF90F0000F04BF0021704730B54FF4806404F132044FF000054FF0000150E700BF90F0000F66
S32D0000C6B804BF0021704730B54FF4806404F1320410F0004548BF40424FF000013EE700BF42004FEAE2014FEAF9
S32D0000C6E031014FEA02701FBF12F07F4393F07F4F81F06051704792F0000F14BF93F07F4F704730B54FF460741B
S32D0000C70801F0004521F0004120E700BF50EA010208BF704730B54FF000050AE050EA010208BF704730B511F046
S32D0000C730004502D5404261EB41014FF4806404F132045FEA915C3FF4DCAE4FF003025FEADC0C18BF03325FEAA0
S32D0000C758DC0C18BF033202EBDC02C2F1200300FA03FC20FA02F001FA03FE40EA0E0021FA02F11444C1E600BF19
S32D0000C78070B54FF0FF0C4CF4E06C1CEA11541DBF1CEA135594EA0C0F95EA0C0F00F0DEF82C4481EA030621EAF3
S32D0000C7A84C5123EA4C5350EA013518BF52EA033541F4801143F4801338D0A0FB02CE4FF00005E1FB02E506F05F
S32D0000C7D00042E0FB03E54FF00006E1FB03569CF0000F18BF4EF0010EA4F1FF04B6F5007F64F5407404D25FEA0F
S32D0000C7F84E0E6D4146EB060642EAC62141EA55514FEAC52040EA5E504FEACE2EB4F1FD0C88BFBCF5E06F1ED8D2
S32D0000C820BEF1004F08BF5FEA500E50F1000041EB045170BD06F0004646EA010140EA020081EA0301B4EB5C0487
S32D0000C848C2BFD4EB0C0541EA045170BD41F480114FF0000E013C00F3AB8014F1360FDEBF002001F0004170BDF0
S32D0000C870C4F10004203C35DA0C341BDC04F11404C4F1200500FA05F320FA04F001FA05F240EA020001F0004207
S32D0000C89821F0004110EBD37021FA04F642EB06015EEA430E08BF20EAD37070BDC4F10C04C4F1200500FA04F32F
S32D0000C8C020FA05F001FA04F240EA020001F0004110EBD37041F100015EEA430E08BF20EAD37070BDC4F12005C7
S32D0000C8E800FA05F24EEA020E20FA04F301FA05F243EA020321FA04F001F0004121FA04F220EA020000EBD37028
S32D0000C9105EEA430E08BF20EAD37070BD94F0000F0FD101F00046400041EB010111F4801F08BF013CF7D041EA6D
S32D0000C938060195F0000F18BF704703F00046520043EB030313F4801F08BF013DF7D043EA0603704794EA0C0FF1
S32D0000C9600CEA135518BF95EA0C0F0CD050EA410618BF52EA4306D1D181EA030101F000414FF0000070BD50EA38
S32D0000C988410606BF1046194652EA430619D094EA0C0F02D150EA013613D195EA0C0F05D152EA03361CBF10467B
S32D0000C9B019460AD181EA030101F0004141F0FE4141F470014FF0000070BD41F0FE4141F4780170BD70B54FF04D
S32D0000C9D8FF0C4CF4E06C1CEA11541DBF1CEA135594EA0C0F95EA0C0F00F0A7F8A4EB050481EA030E52EA03359B
S32D0000CA004FEA013100F088804FEA03334FF0805545EA131343EA12634FEA022245EA111545EA10654FEA002676
S32D0000CA280EF000419D4208BF964244F1FD0404F5407402D25B084FEA3202B61A65EB03055B084FEA32024FF461
S32D0000CA5080104FF4002CB6EB020E75EB030E22BFB61A754640EA0C005B084FEA3202B6EB020E75EB030E22BF22
S32D0000CA78B61A754640EA5C005B084FEA3202B6EB020E75EB030E22BFB61A754640EA9C005B084FEA3202B6EBEA
S32D0000CAA0020E75EB030E22BFB61A754640EADC0055EA060E18D04FEA051545EA16754FEA06164FEAC30343EAAC
S32D0000CAC852734FEAC2025FEA1C1CC0D111F4801F0BD141EA00014FF000004FF0004CB6E711F4801F04BF0143AE
S32D0000CAF00020B4F1FD0C88BFBCF5E06F3FF6AFAEB5EB030C04BFB6EB020C5FEA500C50F1000041EB045170BDBC
S32D0000CB180EF0004E4EEA113114EB5C04C2BFD4EB0C0541EA045170BD41F480114FF0000E013C90E645EA060EC3
S32D0000CB408DE60CEA135594EA0C0F08BF95EA0C0F3FF43BAF94EA0C0F0AD150EA01347FF434AF95EA0C0F7FF499
S32D0000CB6825AF104619462CE795EA0C0F06D152EA03353FF4FDAE1046194622E750EA410618BF52EA43067FF432
S32D0000CB90C5AE50EA41047FF40DAF52EA43057FF4EBAE12E74FF0FF3C06E000BF4FF0010C02E000BF4FF0010C75
S32D0000CBB84DF804CD4FEA410C7FEA6C5C4FEA430C18BF7FEA6C5C1BD001B050EA410C0CBF52EA430C91EA030FEC
S32D0000CBE002BF90EA020F0020704710F1000F91EA030F58BF994208BF90422CBFD8176FEAE37040F0010070476E
S32D0000CC084FEA410C7FEA6C5C02D150EA013C07D14FEA430C7FEA6C5CD6D152EA033CD3D05DF8040B704700BFCD
S32D0000CC308446104662468C461946634600E000BF01B5FFF7B7FF002848BF10F1000F01BD4DF808EDFFF7F4FF13
S32D0000CC580CBF012000205DF808FB00BF4DF808EDFFF7EAFF34BF012000205DF808FB00BF4DF808EDFFF7E0FF18
S32D0000CC8094BF012000205DF808FB00BF4DF808EDFFF7CEFF94BF012000205DF808FB00BF4DF808EDFFF7C4FF40
S32D0000CCA834BF012000205DF808FB00BF4FEA410212F5001215D211D56FF47873B3EB625212D94FEAC12343F0D6
S32D0000CCD0004343EA505311F0004F23FA02F018BF404270474FF00000704750EA013005D111F0004008BF6FF016
S32D0000CCF8004070474FF00000704700BF80F0004002E000BF81F0004142001FBF5FEA410392EA030F7FEA226C2D
S32D0000CD207FEA236C6AD04FEA1262D2EB1363C1BFD218414048404140B8BF5B42192B88BF704710F0004F40F406
S32D0000CD48000020F07F4018BF404211F0004F41F4000121F07F4118BF494292EA030F3FD0A2F1010241FA03FC6F
S32D0000CD7010EB0C00C3F1200301FA03F100F0004302D5494260EB4000B0F5000F13D3B0F1807F06D340084FEA14
S32D0000CD98310102F10102FE2A51D2B1F1004F40EBC25008BF20F0010040EA03007047490040EB000010F4000F89
S32D0000CDC0A2F10102EDD1B0FA80FCACF1080CB2EB0C0200FA0CF0AABF00EBC25052421843BCBFD0401843704787
S32D0000CDE892F0000F81F4000106BF80F400000132013BB5E74FEA41037FEA226C18BF7FEA236C21D092EA030F10
S32D0000CE1004D092F0000F08BF0846704790EA010F1CBF0020704712F07F4F04D1400028BF40F00040704712F191
S32D0000CE3800723CBF00F50000704700F0004343F0FE4040F4000070477FEA226216BF08467FEA2363014642029A
S32D0000CE6006BF5FEA412390EA010F40F4800070474FF0000304E000BF10F0004348BF40425FEA000C08BF7047B9
S32D0000CE8843F0964301464FF000001CE050EA010208BF70474FF000030AE000BF50EA010208BF704711F0004349
S32D0000CEB002D5404261EB41015FEA010C02BF84460146002043F0B64308BFA3F18053A3F50003BCFA8CF2083ABA
S32D0000CED8A3EBC25310DB01FA02FC634400FA02FCC2F12002BCF1004F20FA02F243EB020008BF20F00100704768
S32D0000CF0002F1200201FA02FCC2F1200250EA4C0021FA02F243EB020008BF20EADC7070474FF0FF0C1CEAD05215
S32D0000CF281EBF1CEAD15392EA0C0F93EA0C0F6FD01A4480EA010C400218BF5FEA41211ED04FF0006343EA5010B0
S32D0000CF5043EA5111A0FB01310CF00040B1F5000F3EBF490041EAD3715B0040EA010062F17F02FD2A1DD8B3F197
S32D0000CF78004F40EBC25008BF20F00100704790F0000F0CF0004C08BF49024CEA502040EA51207F3AC2BFD2F149
S32D0000CFA0FF0340EAC250704740F400004FF00003013A5DDC12F1190FDCBF00F000407047C2F10002410021FAC6
S32D0000CFC802F1C2F1200200FA02FC5FEA310040F1000053EA4C0308BF20EADC70704792F0000F00F0004C02BFE2
S32D0000CFF0400010F4000F013AF9D040EA0C0093F0000F01F0004C02BF490011F4000F013BF9D041EA0C018FE7E6
S32D0000D0180CEAD15392EA0C0F18BF93EA0C0F0AD030F0004C18BF31F0004CD8D180EA010000F00040704790F0C5
S32D0000D040000F17BF90F0004F084691F0000F91F0004F14D092EA0C0F01D142020FD193EA0C0F03D14B0218BF5F
S32D0000D068084608D180EA010000F0004040F0FE4040F40000704740F0FE4040F4400070474FF0FF0C1CEAD05274
S32D0000D0901EBF1CEAD15392EA0C0F93EA0C0F69D0A2EB030280EA010C49024FEA402037D04FF0805343EA1111AE
S32D0000D0B843EA10130CF000408B4238BF5B0042F17D024FF4000C8B4224BF5B1A40EA0C00B3EB510F24BFA3EBD4
S32D0000D0E0510340EA5C00B3EB910F24BFA3EB910340EA9C00B3EBD10F24BFA3EBD10340EADC001B0118BF5FEA3A
S32D0000D1081C1CE0D1FD2A3FF650AF8B4240EBC25008BF20F0010070470CF0004C4CEA50207F32C2BFD2F1FF0337
S32D0000D13040EAC250704740F400004FF00003013A37E792F0000F00F0004C02BF400010F4000F013AF9D040EA00
S32D0000D1580C0093F0000F01F0004C02BF490011F4000F013BF9D041EA0C0195E70CEAD15392EA0C0F08D1420229
S32D0000D1807FF47DAF93EA0C0F7FF470AF084676E793EA0C0F04D14B023FF44CAF08466EE730F0004C18BF31F01E
S32D0000D1A8004CCAD130F000427FF45CAF31F000437FF43CAF5FE700BF4FF0FF3C06E000BF4FF0010C02E000BFBF
S32D0000D1D04FF0010C4DF804CD4FEA40024FEA41037FEA226C18BF7FEA236C11D001B052EA530C18BF90EA010F83
S32D0000D1F858BFB2EB030088BFC81738BF6FEAE17018BF40F0010070477FEA226C02D15FEA402C05D17FEA236C7F
S32D0000D220E4D15FEA412CE1D05DF8040B704700BF844608466146FFE70FB5FFF7C9FF002848BF10F1000F0FBDB8
S32D0000D2484DF808EDFFF7F4FF0CBF012000205DF808FB00BF4DF808EDFFF7EAFF34BF012000205DF808FB00BF0E
S32D0000D2704DF808EDFFF7E0FF94BF012000205DF808FB00BF4DF808EDFFF7D2FF94BF012000205DF808FB00BF2A
S32D0000D2984DF808EDFFF7C8FF34BF012000205DF808FB00BF4FEA4002B2F1FE4F0FD34FF09E03B3EB12620DD901
S32D0000D2C04FEA002343F0004310F0004F23FA02F018BF404270474FF00000704712F1610F01D1420205D110F0AB
S32D0000D2E8004008BF6FF0004070474FF000007047F0B583B000AF7860396043F22460C1F6FF7002F075F843F25A
S32D0000D3102060C1F6FF7002F06FF87868FFF7ACFD034643F22860C1F6FF70194600F0ACFF7868FFF7A1FD03468E
S32D0000D33843F22C60C1F6FF70194600F0A1FF00BF43F22060C1F6FF7002F03EF8044643F22460C1F6FF7002F014
S32D0000D36037F80346E3181846FFF7A4F902460B46104619464FF000024FF08043FFF72AFB02460B4614461D4639
S32D0000D3883868FFF793F902460B464FF001010E4620462946FFF762FC0346002B02D14FF000031E46F3B2002B41
S32D0000D3B0CAD143F2F060C1F6FF7043F6B061C0F2010103F0B5F843F2F060C1F6FF70396803F08AF943F22860EC
S32D0000D3D8C1F6FF7000F034FF43F22C60C1F6FF7000F02EFF07F10C07BD46F0BDF0B583B000AF7860396043F2F2
S32D0000D4002460C1F6FF7001F0F7FF43F22060C1F6FF7001F0F1FF7868FFF72EFD034643F22860C1F6FF70194625
S32D0000D42800F02EFF7B68C3F100031846FFF720FD034643F22C60C1F6FF70194600F020FF00BF43F22060C1F6E5
S32D0000D450FF7001F0BDFF044643F22460C1F6FF7001F0B6FF0346E3181846FFF723F902460B46104619464FF082
S32D0000D47800024FF00003C3F6E073FFF77DF902460B4614461D463868FFF710F902460B464FF001010E46204641
S32D0000D4A02946FFF7DFFB0346002B02D14FF000031E46F3B2002BC8D143F2F060C1F6FF7043F6B061C0F2010120
S32D0000D4C803F032F843F2F060C1F6FF70396803F007F943F22860C1F6FF7000F0B1FE43F22C60C1F6FF7000F081
S32D0000D4F0ABFE07F10C07BD46F0BD00BF90B583B000AF786043F2F060C1F6FF7043F6C461C0F2010103F00CF838
S32D0000D51843F2F060C1F6FF70796803F0F5F892E043F24C70C1F6FF7005F0E0FA03464FF00102144618467968FD
S32D0000D540FFF7AAFE0346002B02D14FF000031C46E3B2002B32D043F2F060C1F6FF7043F6D861C0F2010103F0AE
S32D0000D568ABF843F22860C1F6FF704FF00001CCF2482100F085FE43F22C60C1F6FF704FF00001CCF2482100F0F7
S32D0000D5907BFE4FF0640001F081F943F22860C1F6FF7000F051FE43F22C60C1F6FF7000F04BFE4FF0640001F010
S32D0000D5B871F948E043F24C70C1F6FF7005F096FA03464FF00102144618467968FFF742FE0346002B02D14FF037
S32D0000D5E000031C46E3B2002B31D043F2F060C1F6FF7043F6E461C0F2010103F061F843F22860C1F6FF704FF0AC
S32D0000D6080001C4F2482100F03BFE43F22C60C1F6FF704FF00001C4F2482100F031FE4FF0640001F037F943F24D
S32D0000D6302860C1F6FF7000F007FE43F22C60C1F6FF7000F001FE4FF0640001F027F943F24C70C1F6FF7005F093
S32D0000D6584DFA044678684FF07E51FFF753FB034620461946FFF7F6FD0346002B13D143F24C70C1F6FF7005F086
S32D0000D68039FA044678684FF07E51FFF741FB034620461946FFF700FE0346002B02D04FF0010301E04FF0000331
S32D0000D6A8002B7FF43DAF07F10C07BD4690BD00BF90B583B000AF786043F2F060C1F6FF7043F6F061C0F20101C8
S32D0000D6D002F02EFF43F2F060C1F6FF70796803F017F892E043F24C70C1F6FF7005F012FA03464FF00102144610
S32D0000D6F818467968FFF7CCFD0346002B02D14FF000031C46E3B2002B32D043F2F060C1F6FF7043F6D861C0F28A
S32D0000D720010102F0CDFF43F22860C1F6FF704FF00001C4F2482100F0A7FD43F22C60C1F6FF704FF00001C4F268
S32D0000D748482100F09DFD4FF0640001F0A3F843F22860C1F6FF7000F073FD43F22C60C1F6FF7000F06DFD4FF0CE
S32D0000D770640001F093F848E043F24C70C1F6FF7005F0C8F903464FF00102144618467968FFF764FD0346002BC7
S32D0000D79802D14FF000031C46E3B2002B31D043F2F060C1F6FF7043F6E461C0F2010102F083FF43F22860C1F666
S32D0000D7C0FF704FF00001CCF2482100F05DFD43F22C60C1F6FF704FF00001CCF2482100F053FD4FF0640001F0F9
S32D0000D7E859F843F22860C1F6FF7000F029FD43F22C60C1F6FF7000F023FD4FF0640001F049F843F24C70C1F655
S32D0000D810FF7005F07FF9044678684FF07E51FFF775FA034620461946FFF718FD0346002B13D143F24C70C1F658
S32D0000D838FF7005F06BF9044678684FF07E51FFF763FA034620461946FFF722FD0346002B02D04FF0010301E0E2
S32D0000D8604FF00003002B7FF43DAF07F10C07BD4690BD00BF90B583B000AF786043F2F060C1F6FF7043F6F06180
S32D0000D888C0F2010102F050FE43F2F060C1F6FF70796802F039FF92E043F24C70C1F6FF7005F034F903464FF095
S32D0000D8B00102144618467968FFF7EEFC0346002B02D14FF000031C46E3B2002B32D043F2F060C1F6FF7043F63D
S32D0000D8D8D861C0F2010102F0EFFE43F22860C1F6FF704FF00001CCF2482100F0C9FC43F22C60C1F6FF704FF031
S32D0000D9000001CCF2482100F0BFFC4FF0640000F0C5FF43F22860C1F6FF7000F095FC43F22C60C1F6FF7000F094
S32D0000D9288FFC4FF0640000F0B5FF48E043F24C70C1F6FF7005F0EAF803464FF00102144618467968FFF786FC4D
S32D0000D9500346002B02D14FF000031C46E3B2002B31D043F2F060C1F6FF7043F6E461C0F2010102F0A5FE43F256
S32D0000D9782860C1F6FF704FF00001C4F2482100F07FFC43F22C60C1F6FF704FF00001C4F2482100F075FC4FF023
S32D0000D9A0640000F07BFF43F22860C1F6FF7000F04BFC43F22C60C1F6FF7000F045FC4FF0640000F06BFF43F227
S32D0000D9C84C70C1F6FF7005F0A1F8044678684FF07E51FFF797F9034620461946FFF73AFC0346002B13D143F23C
S32D0000D9F04C70C1F6FF7005F08DF8044678684FF07E51FFF785F9034620461946FFF744FC0346002B02D04FF038
S32D0000DA18010301E04FF00003002B7FF43DAF07F10C07BD4690BD00BF90B583B000AF786043F2F060C1F6FF706B
S32D0000DA4043F60471C0F2010102F072FD43F2F060C1F6FF70796802F05BFE92E043F24C70C1F6FF7005F066F842
S32D0000DA6803464FF00102144618467968FFF710FC0346002B02D14FF000031C46E3B2002B32D043F2F060C1F681
S32D0000DA90FF7043F61871C0F2010102F011FE43F22860C1F6FF704FF00001CCF2482100F0EBFB43F22C60C1F6EA
S32D0000DAB8FF704FF00001C4F2482100F0E1FB4FF0640000F0E7FE43F22860C1F6FF7000F0B7FB43F22C60C1F631
S32D0000DAE0FF7000F0B1FB4FF0640000F0D7FE48E043F24C70C1F6FF7005F01CF803464FF0010214461846796839
S32D0000DB08FFF7A8FB0346002B02D14FF000031C46E3B2002B31D043F2F060C1F6FF7043F63071C0F2010102F07F
S32D0000DB30C7FD43F22860C1F6FF704FF00001C4F2482100F0A1FB43F22C60C1F6FF704FF00001CCF2482100F0F7
S32D0000DB5897FB4FF0640000F09DFE43F22860C1F6FF7000F06DFB43F22C60C1F6FF7000F067FB4FF0640000F0D8
S32D0000DB808DFE43F24C70C1F6FF7004F0D3FF044678684FF08041FFF7B9F8034620461946FFF75CFB0346002B6F
S32D0000DBA813D143F24C70C1F6FF7004F0BFFF044678684FF08041FFF7A7F8034620461946FFF766FB0346002B0A
S32D0000DBD002D04FF0010301E04FF00003002B7FF43DAF07F10C07BD4690BD00BF80B500AF43F2F060C1F6FF70BC
S32D0000DBF84FF0000102F0E6FB43F2F060C1F6FF704FF0010102F03CFC43F2F060C1F6FF7043F64071C0F201018D
S32D0000DC2002F04EFD00BF43F21C60C1F6FF7001F07DFE034683F00103DBB2002BF3D143F21C60C1F6FF7001F093
S32D0000DC4871FE0346002BF6D143F24C70C1F6FF7004F0ACF900BF43F24C70C1F6FF7004F045FF034618464FF060
S32D0000DC700001CBF68071FFF7E7FA0346002B10D143F24C70C1F6FF7004F044FF034618464FF00001CBF68071C0
S32D0000DC98FFF7D6FA0346002B02D04FF0010301E04FF00003002BD6D14FF032004FF4EC71FFF71EFB4FF4FA704D
S32D0000DCC000F0ECFD43F23330C4F28310FFF7F4FC4FF032004FF06C01FFF78CFB4FF4FA7000F0DCFD4FF0000047
S32D0000DCE8C4F2B420FFF7A0FE4FF0320040F25111FFF7FEFA4FF4FA7000F0CCFD4CF6C120C4F2D810FFF7F6FBEF
S32D0000DD104FF032004FF06C01FFF76CFB4FF4FA7000F0BCFD4FF00000C4F23430FFF780FE4FF032004FF0860111
S32D0000DD38FFF7DEFA4FF4FA7000F0ACFD4CF6C120C4F2A010FFF792FD4FF00000C4F23430FFF76AFE4FF00003A2
S32D0000DD60184680BD80B582B000AF786039607B68012B2CD13A684FF6FF739A4227D143F21C60C1F6FF704FF024
S32D0000DD88030101F037FD43F22060C1F6FF704FF0000100F073FF43F22460C1F6FF704FF0010100F06BFF43F218
S32D0000DDB02860C1F6FF704FF0000100F031FA43F22C60C1F6FF704FF0010100F029FA07F10807BD4680BD00BFFB
S32D0000DDD880B500AF4FF001004FF6FF71FFF7BEFF80BD00BF80B500AF43F28472C1F6FF7243F21C63C1F6FF7381
S32D0000DE00D31A43F21C60C1F6FF704FF000011A4604F0E5FF80BD00BF06F036F800F0B0F9FFF7E4FF06F00CF82C
S32D0000DE2805F0A8FF06F03EF800F00CF84FF0000043F23061C1F6FF71FFF7D4FE0346184604F0A4FF80B500AFFA
S32D0000DE504FF4E043C4F204034FF4E042C4F2040202F5815202F11802126842F4785203F5815303F118031A60BA
S32D0000DE7800F02EF900F094F843F23C63C1F6FF734FF058021A6043F23C63C1F6FF731B684FF47A7202FB03F238
S32D0000DEA043F23863C1F6FF731A6043F23863C1F6FF731B681A464FF4E043C4F2040303F5825303F104031B6897
S32D0000DEC803F070634FEA136303F10103B2FBF3F31A4643F24063C1F6FF731A604FF4E043C4F204034FF4E042C9
S32D0000DEF0C4F2040202F5815202F11C02126842F0225203F5815303F11C031A604FF4E043C4F204034FF4E0426C
S32D0000DF18C4F2040202F5815202F11002126842F0006203F5815303F110031A604FF45043C4F203034FF480722E
S32D0000DF401A614FF0640000F03FFB4FF45043C4F203034FF45042C4F20302526922F010025A614FF45043C4F223
S32D0000DF6803034FF000021A604FF45043C4F203034FF010025A6101F0D1FA01F079FB43F23460C1F6FF7000F02C
S32D0000DF909FFB43F2F060C1F6FF7002F0FFF841F2883000F07BFC80BD80B400AF4FF48043C4F206034FF00002BD
S32D0000DFB85A704FF48043C4F206034FF098021A704FF48043C4F206039B79DBB203F01003002B0CBF00230123A0
S32D0000DFE0DBB2002BF0D14FF48043C4F206039B79DBB203F00C034FEA9303022B0CBF00230123DBB2002BEED1AD
S32D0000E0084FF48043C4F206034FF018021A714FF48043C4F206034FF000025A714FF4E043C4F2040303F5825380
S32D0000E03003F104034FF00002C0F213121A604FF48043C4F206034FF054025A7100BF4FF48043C4F206039B7978
S32D0000E058DBB203F02003002B14BF00230123DBB2002BF0D100BF4FF48043C4F206039B79DBB203F04003002BB3
S32D0000E08014BF00230123DBB2002BF0D14FF48043C4F206034FF48042C4F206021278D2B202F03F02D2B21A7008
S32D0000E0A84FF48043C4F206039B79DBB203F00C034FEA9303032B0CBF00230123DBB2002BEED14FF000031846BC
S32D0000E0D0BD4680BC704700BF80B400AF4FF44043C4F204034FF480725A634FF2C003C4F20F034FF2C002C4F290
S32D0000E0F80F02526942F400525A614FF2C003C4F20F034FF2C002C4F20F02126842F400521A604FF44043C4F25D
S32D0000E120040340F20312C0F20A021A634FF46143CEF200034FF46142CEF20002D2F8882142F08062C3F888210B
S32D0000E1484FF46143CEF200034FF46142CEF20002926842F080629A60BD4680BC704700BF80B483B000AF7860AC
S32D0000E170FEE700BF80B400AF00BEBD4680BC704780B400AF4FF0E0224CF20003C0F20003C2F8083D4FF4005397
S32D0000E198C4F205034CF22052DA814FF40053C4F205034DF62812DA814FF40053C4F205034FF0D2021A80BD4660
S32D0000E1C080BC704780B400AF4FF44043C4F20403D3F8A03003F48053002B0CBF00230123DBB2002B19D04FF452
S32D0000E1E84043C4F204034FF44042C4F20402D2F8A02022F48052C3F8A0204FF2C003C4F20F034FF2C002C4F2D6
S32D0000E2100F02126822F400521A60BD4680BC704780B483B000AF78600B46FB707B68FA781A707B684FF00002D0
S32D0000E2385A707B68184607F10C07BD4680BC704780B582B000AF78607B685B78002B10D07B684FF000025A700F
S32D0000E2607B681B7843F23460C1F6FF7019464FF000024FF01E0300F075FA07F10807BD4680BD00BF00000000C6
S32D0000E28880B584B000AF7860396038684FF00001CCF2C821FEF7DEFF0346002B05D04FF00003CCF2C8233B60B7
S32D0000E2B00EE038684FF00001C4F2C821FEF7ECFF0346002B04D04FF00003C4F2C8233B603868FEF701FA024655
S32D0000E2D80B46104619464FF000024FF00003C4F25903FEF773FB02460B461046194614A3D3E90023FEF740FA07
S32D0000E30002460B4610461946FEF7D4FC0346FB737B685B78FA7B9A420FD07B68FA7B5A707B681A78FB7B43F2FD
S32D0000E3283460C1F6FF7011461A464FF01E0300F015FA07F11007BD4680BD00BFAFF300800000000000C05F4068
S32D0000E35090B486B000AFF860B9607A60FA684FF42043C4F206039A4214D14FF4E043C4F204034FF4E042C4F265
S32D0000E378040202F5815202F11402126842F4806203F5815303F114031A6083E0FA684FF43043C4F206039A42A5
S32D0000E3A014D14FF4E043C4F204034FF4E042C4F2040202F5815202F11402126842F4006203F5815303F114036A
S32D0000E3C81A6067E0FA684FF44043C4F206039A4214D14FF4E043C4F204034FF4E042C4F2040202F5815202F1BD
S32D0000E3F01402126842F4805203F5815303F114031A604BE0FA684FF45043C4F206039A4214D14FF4E043C4F217
S32D0000E41804034FF4E042C4F2040202F5815202F11402126842F4005203F5815303F114031A602FE0FA684FF4D4
S32D0000E4402043C4F20E039A4214D14FF4E043C4F204034FF4E042C4F2040202F5815202F10802126842F4806226
S32D0000E46803F5815303F108031A6013E04FF4E043C4F204034FF4E042C4F2040202F5815202F10802126842F493
S32D0000E490006203F5815303F108031A60FB68DB78DBB223F00C03DAB2FB68DA70FB684FF000029A70BB684FF405
S32D0000E4B87A7202FB03F27B684FEA031392FBF3F39CB2FB681B78DBB223F01F03FB75234603F4F8534FEA232313
S32D0000E4E0DBB203F01F03DAB2FB7D1343DAB2FB681A70E2B2FB685A70BB684FF4FA4202FB03F27B684FEA031312
S32D0000E50892FBF3F39AB2234619464FEAC121CB1A4FEA43139BB2D3189CB2FB689B7ADBB223F01F03FB75E3B20A
S32D0000E53003F01F03DAB2FB7D1343DAB2FB689A72FB68DB78DBB243F00C03DAB2FB68DA7007F11807BD4690BC2F
S32D0000E558704700BF80B483B000AF786000BF7B681B79DBB203F02003002B14BF00230123DBB2002BF3D17B68B4
S32D0000E580DB79DBB2184607F10C07BD4680BC704780B483B000AF78600B46FB7000BF7B681B79DBB2DBB26FEADA
S32D0000E5A80303DBB24FEAD313DBB2002BF3D17B68FA78DA7107F10C07BD4680BC704700BF80B483B000AF7860C9
S32D0000E5D04FF4E043C4F204034FF4E042C4F2040202F5815202F11802126842F0010203F5815303F118031A60FE
S32D0000E5F84FF00003C4F204037A689A604FF00003C4F204034FF005025A604FF00003C4F204034FF00002C4F225
S32D0000E6200402126842F001021A6000BF4FF00003C4F204031B6803F08003002B14BF00230123DBB2002BF1D127
S32D0000E6484FF00003C4F204034FF00002C4F20402126822F001021A6000BF07F10C07BD4680BC704780B582B078
S32D0000E67000AF786039607B68012B0AD13A684FF6FF739A4205D143F23460C1F6FF7000F00FF807F10807BD4677
S32D0000E69880BD00BF80B500AF4FF001004FF6FF71FFF7E0FF80BD00BF80B483B000AF78607B684FF000021A7012
S32D0000E6C07B68184607F10C07BD4680BC704700BF80B582B000AF78607B681B7883F00103DBB2002B36D04FF44F
S32D0000E6E8E043C4F2040303F5815303F108034FF400621A604FF45043C4F204034FF440721A624FF45043C4F2AA
S32D0000E71004034FF440725A6243F23863C1F6FF731B684FEAD372D3184FEA63034FF43040C4F20E0019464FF486
S32D0000E7386142FFF709FE4FF0640000F0ABF87B684FF001021A704FF0010301E04FF00003184607F10807BD4660
S32D0000E76080BD00BF80B582B000AF7860F970BA707B704FF43040C4F20E004FF07F01FFF707FF4FF43040C4F288
S32D0000E7880E004FF00801FFF7FFFEFB784FF43040C4F20E001946FFF7F7FEBB784FF43040C4F20E001946FFF7E7
S32D0000E7B0EFFE7B784FF43040C4F20E001946FFF7E7FE4FF43040C4F20E004FF0FF01FFF7DFFE07F10807BD4617
S32D0000E7D880BD00BF80B487B000AFF860B9607A60FA6844F6D353C1F26203A3FB02134FEA9312BB68D3187B615D
S32D0000E800FA6844F6D353C1F26203A3FB02134FEA93134FF47A7101FB03F3D31AFB60FB684FEAC33244F6D35325
S32D0000E828C1F26203A3FB02134FEA93127B68D3183B613B694FEAD3337A69D3187B613B694FEA43434FEA5343F0
S32D0000E8503B614FF45043C4F203031A687B699A420FD34FF45043C4F203031A687B699A420AD14FF45043C4F20D
S32D0000E87803035A683B699A4202D24FF0010301E04FF00003002BE0D107F11C07BD4680BC704700BF80B584B0DB
S32D0000E8A000AF78604FF45043C4F203031B68FB604FF45043C4F203035B68BB607B681846F968BA68FFF78AFFA0
S32D0000E8C807F11007BD4680BD80B483B000AF4FF45043C4F203031B684FF47A7202FB03F37B604FF45043C4F21F
S32D0000E8F003035B684FF47A7202FB03F34FEAD3337A68D3187B607B68184607F10C07BD4680BC704780B483B07F
S32D0000E91800AF78607B68184607F10C07BD4680BC704700BF80B483B000AF78600B46FB707B68FA781A707B68DD
S32D0000E9401B781A4644F29813C0F201039B5C042B00F2F48001A252F823F000BF71E90000CDE9000029EA0000B1
S32D0000E96885EA0000E1EA00004FF41043C4F204037A681278114644F2DC12C0F2010252F8212040F2031143F84C
S32D0000E99022104FF47043C4F20F034FF47042C4F20F0251697A681278104644F2DC12C0F2010252F8202002F0DC
S32D0000E9B81F024FF0010000FA02F26FEA02020A405A61B7E04FF42043C4F204037A681278114644F2DC12C0F2ED
S32D0000E9E0010252F8212040F2031143F822104FF24003C4F20F034FF24002C4F20F0251697A681278104644F280
S32D0000EA08DC12C0F2010252F8202002F01F024FF0010000FA02F26FEA02020A405A6189E04FF43043C4F2040334
S32D0000EA307A681278114644F2DC12C0F2010252F8212040F2031143F822104FF28003C4F20F034FF28002C4F2D9
S32D0000EA580F0251697A681278104644F2DC12C0F2010252F8202002F01F024FF0010000FA02F26FEA02020A40B8
S32D0000EA805A615BE04FF44043C4F204037A681278114644F2DC12C0F2010252F8212040F2031143F822104FF2D4
S32D0000EAA8C003C4F20F034FF2C002C4F20F0251697A681278104644F2DC12C0F2010252F8202002F01F024FF0BA
S32D0000EAD0010000FA02F26FEA02020A405A612DE04FF45043C4F204037A681278114644F2DC12C0F2010252F841
S32D0000EAF8212040F2031143F822104FF47143C4F20F034FF47142C4F20F0251697A681278104644F2DC12C0F22E
S32D0000EB20010252F8202002F01F024FF0010000FA02F26FEA02020A405A6100BF07F10C07BD4680BC704700BF18
S32D0000EB4880B485B000AF78604FF00003FB607B681B781A4644F29813C0F201039B5C042B7FD801A252F823F028
S32D0000EB7085EB0000B3EB0000E1EB00000FEC00003DEC00004FF47043C4F20F031A697B681B78194644F2DC133E
S32D0000EB98C0F2010353F8213003F01F034FF0010101FA03F31340FB605BE04FF24003C4F20F031A697B681B7888
S32D0000EBC0194644F2DC13C0F2010353F8213003F01F034FF0010101FA03F31340FB6044E04FF28003C4F20F03AC
S32D0000EBE81A697B681B78194644F2DC13C0F2010353F8213003F01F034FF0010101FA03F31340FB602DE04FF2ED
S32D0000EC10C003C4F20F031A697B681B78194644F2DC13C0F2010353F8213003F01F034FF0010101FA03F31340E2
S32D0000EC38FB6016E04FF47143C4F20F031A697B681B78194644F2DC13C0F2010353F8213003F01F034FF0010179
S32D0000EC6001FA03F31340FB6000BFFB68002B0CBF00230123DBB2184607F11407BD4680BC704700BF80B584B06C
S32D0000EC8800AF78600B46FB704FF00B03FB73FA78FB7B786811461A4600F0E6F87B68184607F11007BD4680BD83
S32D0000ECB080B485B000AF78607B68A3F11003002B01DA03F11F034FEA6313FB60FB68012B46D0022B00F08580CF
S32D0000ECD8002B40F0C3804FF46142CEF200024FF46143CEF20003D3F880117B68A3F110004FF01F03C8F200031D
S32D0000ED000340002B05DA03F1FF3363F01F0303F101034FF0010000FA03F30B43C2F880314FF46142CEF2000274
S32D0000ED284FF46143CEF2000319687B68A3F110004FF01F03C8F200030340002B05DA03F1FF3363F01F0303F111
S32D0000ED5001034FF0010000FA03F30B43136081E04FF46142CEF200024FF46143CEF20003D3F884117B68A3F116
S32D0000ED7810004FF01F03C8F200030340002B05DA03F1FF3363F01F0303F101034FF0010000FA03F30B43C2F827
S32D0000EDA084314FF46142CEF200024FF46143CEF2000359687B68A3F110004FF01F03C8F200030340002B05DA8B
S32D0000EDC803F1FF3363F01F0303F101034FF0010000FA03F30B43536040E04FF46142CEF200024FF46143CEF2EA
S32D0000EDF00003D3F888117B68A3F110004FF01F03C8F200030340002B05DA03F1FF3363F01F0303F101034FF0CA
S32D0000EE18010000FA03F30B43C2F888314FF46142CEF200024FF46143CEF2000399687B68A3F110004FF01F03DF
S32D0000EE40C8F200030340002B05DA03F1FF3363F01F0303F101034FF0010000FA03F30B43936000BF07F11407C4
S32D0000EE68BD4680BC704700BF80B584B000AF786013460A46FA70BB707B68FA781A70BB78FB737B681B781A4643
S32D0000EE9044F29813C0F201039B5C042B00F2F28001A252F823F000BFBDEE00002FEF0000A1EF000085F00000A6
S32D0000EEB813F000004FF41043C4F204037A681278114644F2DC12C0F2010252F82110FA7B4FEA024202F4702245
S32D0000EEE042F4897242F0010243F821204FF47043C4F20F034FF47042C4F20F0251697A681278104644F2DC1208
S32D0000EF08C0F2010252F8202002F01F024FF0010000FA02F26FEA02020A405A614FF06700FFF7C2FEAAE04FF4D0
S32D0000EF302043C4F204037A681278114644F2DC12C0F2010252F82110FA7B4FEA024202F4702242F4897242F09F
S32D0000EF58010243F821204FF24003C4F20F034FF24002C4F20F0251697A681278104644F2DC12C0F2010252F8D7
S32D0000EF80202002F01F024FF0010000FA02F26FEA02020A405A614FF06800FFF789FE71E04FF43043C4F2040398
S32D0000EFA87A681278114644F2DC12C0F2010252F82110FA7B4FEA024202F4702242F4897242F0010243F82120C8
S32D0000EFD04FF28003C4F20F034FF28002C4F20F0251697A681278104644F2DC12C0F2010252F8202002F01F020B
S32D0000EFF84FF0010000FA02F26FEA02020A405A614FF06900FFF750FE38E04FF45043C4F204037A681278114601
S32D0000F02044F2DC12C0F2010252F82110FA7B4FEA024202F4702242F4897242F0010243F821204FF47143C4F265
S32D0000F0480F034FF47142C4F20F0251697A681278104644F2DC12C0F2010252F8202002F01F024FF0010000FA9F
S32D0000F07002F26FEA02020A405A614FF06B00FFF717FE00BF07F11007BD4680BDB0B48BB000AF43F65473C0F259
S32D0000F098010307F104041D460FCD0FC495E80F0084E80F004FF000037B6246E04FF42043C4F20403D3F8A020FA
S32D0000F0C07B6A4FEA830307F12800C31853F8243C4FF0010101FA03F31340002B0CBF00230123DBB2002B28D066
S32D0000F0E843F26463C1F6FF737A6A53F8223003F1010143F26463C1F6FF737A6A43F822104FF42043C4F2040385
S32D0000F1104FF42042C4F20402D2F8A0107A6A4FEA820207F12800821852F8242C4FF0010000FA02F20A40C3F8CE
S32D0000F138A0207B6A03F101037B627B6A072BCCBF00230123DBB2002BB0D107F12C07BD46B0BC7047B0B489B01F
S32D0000F16000AF43F67473C0F2010307F104041D460FCD0FC495E8030084E803004FF00003FB6147E04FF4304380
S32D0000F188C4F20403D3F8A020FB694FEA830307F12000C31853F81C3C4FF0010101FA03F31340002B0CBF0023BA
S32D0000F1B00123DBB2002B29D0FB6903F1080243F26463C1F6FF7353F8223003F1010143F26463C1F6FF7343F8E2
S32D0000F1D822104FF43043C4F204034FF43042C4F20402D2F8A010FA694FEA820207F12000821852F81C2C4FF0D6
S32D0000F200010000FA02F20A40C3F8A020FB6903F10103FB61FB69052BCCBF00230123DBB2002BAFD107F12407B3
S32D0000F228BD46B0BC704700BFB0B48DB000AF43F68C73C0F201033C461D460FCD0FC40FCD0FC495E8070084E862
S32D0000F25007004FF00003FB6247E04FF41043C4F20403D3F8A020FB6A4FEA830307F13000C31853F8303C4FF0C8
S32D0000F278010101FA03F31340002B0CBF00230123DBB2002B29D0FB6A03F10E0243F26463C1F6FF7353F8223009
S32D0000F2A003F1010143F26463C1F6FF7343F822104FF41043C4F204034FF41042C4F20402D2F8A010FA6A4FEAFD
S32D0000F2C8820207F13000821852F8302C4FF0010000FA02F20A40C3F8A020FB6A03F10103FB62FB6A092BCCBF5B
S32D0000F2F000230123DBB2002BAFD107F13407BD46B0BC7047B0B487B000AF43F6B873C0F201033C461D460FCDF3
S32D0000F3180FC42B6823604FF000037B6147E04FF45043C4F20403D3F8A0207B694FEA830307F11800C31853F8A2
S32D0000F340183C4FF0010101FA03F31340002B0CBF00230123DBB2002B29D07B6903F1180243F26463C1F6FF73C1
S32D0000F36853F8223003F1010143F26463C1F6FF7343F822104FF45043C4F204034FF45042C4F20402D2F8A010B4
S32D0000F3907A694FEA820207F11800821852F8182C4FF0010000FA02F20A40C3F8A0207B6903F101037B617B69E8
S32D0000F3B8042BCCBF00230123DBB2002BAFD107F11C07BD46B0BC704780B483B000AF78607B681B781A4643F2B4
S32D0000F3E06463C1F6FF7353F82230184607F10C07BD4680BC704700BF80B483B000AF78607B681B781A4643F25B
S32D0000F4086463C1F6FF734FF0000143F8221007F10C07BD4680BC704780B483B000AF78600B46FB707B68FA7839
S32D0000F4301A707B68184607F10C07BD4680BC704780B586B000AF78607B681B781A4644F25C23C0F2010353F864
S32D0000F45822303B617B681B781A4644F2B813C0F201039B5CFB733B69DBB203F01F03DAB243F25463C1F6FF73BF
S32D0000F4801A723B69DBB203F01F03DAB243F25463C1F6FF735A72FB7B002B1ED14FF43040C4F2030043F2546139
S32D0000F4A8C1F6FF7100F002FB4FF43043C4F203031B6803F08003002B14BF00230123DBB2002BF1D14FF4304342
S32D0000F4D0C4F203031B697B611DE04FF43040C4F20B0043F25461C1F6FF7100F0E3FA4FF43043C4F20B031B68A6
S32D0000F4F803F08003002B14BF00230123DBB2002BF1D14FF43043C4F20B031B697B617B69184607F11807BD467B
S32D0000F52080BD00BF98B500AF43F24463C1F6FF734FF05C021A7043F24463C1F6FF734FF010025A7043F244639D
S32D0000F548C1F6FF7341F234225A8043F24463C1F6FF7345F278629A8043F24463C1F6FF734FF010029A7143F243
S32D0000F5704463C1F6FF734FF00702DA7143F24463C1F6FF734FF4C022DA6043F24463C1F6FF734FF01F021A72B5
S32D0000F59843F24463C1F6FF734FF01F025A724FF43040C4F2030043F24461C1F6FF7100F07DFA4FF43040C4F2D7
S32D0000F5C00B0043F24461C1F6FF7100F073FA4FF43040C4F20B0000F0D1F94FF43040C4F2030000F0CBF94FF423
S32D0000F5E83040C4F20B0043F24461C1F6FF7100F05DFA4FF43040C4F2030043F24461C1F6FF7100F053FA43F29D
S32D0000F6105462C1F6FF7243F24463C1F6FF7314460FCB84E80F0043F25463C1F6FF734FF05C021A7043F2546312
S32D0000F638C1F6FF734FF00402DA7198BD80B500AF43F2E863C1F6FF731B6803F1010243F2E863C1F6FF731A606C
S32D0000F66000F04CF84FF4E043C4F203034FF00102C3F80C2100BF80BD80B500AF4FF4E043C4F203034FF00102B8
S32D0000F6881A6048F2A060C0F2010000F023F84FF4E043C4F203034FF00302C3F808214FF46143CEF200034FF4AB
S32D0000F6B06142CEF20002D2F8882142F01002C3F888214FF46143CEF200034FF46142CEF20002926842F010021C
S32D0000F6D89A6080BD80B483B000AF78604FF4E043C4F203037A68C3F8002107F10C07BD4680BC704780B584B095
S32D0000F70000AF43F2E463C1F6FF731B68FB6029E0FB685B78FB71FB689B68184600F02EF80346BB71BB79002B50
S32D0000F72819D0FB685B68012B15DDFB689B681B69BB6008E0BB685B6803F10102BB685A60BB681B69BB60BB68FA
S32D0000F750002B0CBF00230123DBB2002BEED1FB68DB68FB60FB68002B0CBF00230123DBB2002BCDD107F11007D1
S32D0000F778BD4680BD80B584B000AF78607868FFF75BFEF8607B689B695B78FB72FB7A002B12D17B68DA68FB687A
S32D0000F7A09A420DDA7B689B694FF001025A707B685B6803F101027B685A604FF0010317E0FB7A012B12D17B68AA
S32D0000F7C89A68FB689A420DDD7B689B694FF000025A707B685B6803F101027B685A604FF0010301E04FF0000356
S32D0000F7F0184607F11007BD4680BD00BF80B582B000AF78600B46FB707B681846FFF782F87B6803F101031846EB
S32D0000F818FFF77CF87B6803F102031846FFF776F8FB78032B66D801A252F823F045F8000073F80000A1F800009A
S32D0000F840CFF800007B6818464FF00001FFF76EF87B6803F1010318464FF00101FFF766F87B6803F102031846EE
S32D0000F8684FF00201FFF75EF844E07B6818464FF00801FFF757F87B6803F1010318464FF00901FFF74FF87B6850
S32D0000F89003F1020318464FF00A01FFF747F82DE07B6818464FF01001FFF740F87B6803F1010318464FF011011E
S32D0000F8B8FFF738F87B6803F1020318464FF01201FFF730F816E07B6818464FF01801FFF729F87B6803F10103D1
S32D0000F8E018464FF01901FFF721F87B6803F1020318464FF01A01FFF719F800BF7B68184607F10807BD4680BD52
S32D0000F90880B582B000AF78607B681846FFF718F9034683F00103DBB2184607F10807BD4680BD00BF80B582B083
S32D0000F93000AF78607B6803F101031846FFF704F9034683F00103DBB2184607F10807BD4680BD00BF80B582B0DE
S32D0000F95800AF78607B6803F102031846FFF7F0F8034683F00103DBB2184607F10807BD4680BD00BF80B485B0C8
S32D0000F98000AF78607B681B6A23F040027B681A627B685B6A23F00B027B685A627B685B6A43F007027B685A62CC
S32D0000F9A87B685B6A43F080027B685A627B681B6803F08003002B14BF00230123DBB2002BF4D17B685B6A03F0FC
S32D0000F9D04003002B0CBF00230123DBB2002B02D04FF001035FE04FF00003FB817B68DB6CFB817B689B6CFA89AC
S32D0000F9F8D318FB817B685B6CFA89D318FB817B681B6CFA89D318FB817B68DB6BFA89D318FB817B689B6BFA8913
S32D0000FA20D318FB81FB894FEA5303FB81FB896FEA43436FEA5343FB81FA897B68DA624FF00003FB817B68DB6E68
S32D0000FA48FB817B689B6EFA89D318FB817B685B6EFA89D318FB817B681B6EFA89D318FB817B68DB6DFA89D318B9
S32D0000FA70FB817B689B6DFA89D318FB81FB894FEA5303FB81FB896FEA43436FEA5343FB81FA897B681A637B68F4
S32D0000FA985B6A23F080027B685A624FF00003184607F11407BD4680BC704700BF80B483B000AF786039603B68B5
S32D0000FAC01B781A467B689A603B685B781A467B68DA603B685B881A467B689A613B689B881A467B68DA613B68AA
S32D0000FAE89B791A467B681A623B68DB791A467B685A623B68DA687B681A653B681B7A1A467B681A603B685B7A73
S32D0000FB101A467B685A6007F10C07BD4680BC704780B483B000AF78607B68184607F10C07BD4680BC704700BFDA
S32D0000FB3880B582B000AF786039607B68012B0AD13A684FF6FF739A4205D143F2EC60C1F6FF70FFF7E1FF07F1AE
S32D0000FB600807BD4680BD00BF80B500AF4FF001004FF6FF71FFF7E0FF80BD00BF80B582B000AF78604FF430431B
S32D0000FB88C4F204034FF48072DA604FF42043C4F204034FF480729A644FF42043C4F204034FF480721A644FF434
S32D0000FBB02043C4F204034FF480725A644FF42043C4F204034FF48072DA604FF28003C4F20F034FF28002C4F23D
S32D0000FBD80F02526942F008025A614FF24003C4F20F034FF24002C4F20F02526942F480225A614FF24003C4F21E
S32D0000FC000F034FF24002C4F20F02526942F480325A614FF24003C4F20F034FF24002C4F20F02526942F4003263
S32D0000FC285A614FF24003C4F20F034FF24002C4F20F02126842F008021A604FF24003C4F20F034FF24002C4F2A8
S32D0000FC500F02526942F008025A614FF28003C4F20F034FF28002C4F20F02126842F008021A604FF42043C4F221
S32D0000FC7804034FF480725A624FF42043C4F204034FF480721A624FF43043C4F204034FF480721A614FF4304379
S32D0000FCA0C4F204034FF480725A614FF43043C4F204034FF480729A614FF43043C4F204034FF48072DA614FF4C0
S32D0000FCC83043C4F204034FF480721A634FF43043C4F204034FF480725A634FF43043C4F204034FF480729A6322
S32D0000FCF04FF43043C4F204034FF48072DA634FF43043C4F204034FF480721A644FF43043C4F204034FF4807233
S32D0000FD185A644FF43043C4F204034FF480729A644FF43043C4F204034FF48072DA644FF44043C4F204034FF4AD
S32D0000FD4080721A604FF44043C4F204034FF480729A604FF44043C4F204034FF48072DA604FF44043C4F2040302
S32D0000FD684FF480721A614FF24003C4F20F034FF24002C4F20F02526942F440725A614FF28003C4F20F034FF2FC
S32D0000FD908002C4F20F02526942F47F2242F0F0025A614FF2C003C4F20F034FF2C002C4F20F02526942F01D02E9
S32D0000FDB85A6178684FF0E20100F0D0FC78684FF01D0100F001FE78684FF0020100F0FCFD78684FF0040100F059
S32D0000FDE0F7FD78684FF0E00100F0BCFC78684FF0010100F0EDFD4FF06400FEF74FFD78684FF0E00100F0AEFCE0
S32D0000FE0878684FF0030100F0DFFD78684FF0010100F0A4FC4FF00100FEF73CFD78684FF0E60100F09BFC786851
S32D0000FE304FF0010100F0CCFD78684FF0A00100F0C7FD78684FF0FF0100F0C2FD78684FF0B00100F087FC786845
S32D0000FE584FF01C0100F0B8FD78684FF00F0100F0B3FD78684FF0010100F0AEFD78684FF03F0100F0A9FD78681B
S32D0000FE804FF0000100F0A4FD78684FF0EF0100F09FFD78684FF0000100F09AFD78684FF0B40100F05FFC786842
S32D0000FEA84FF0010100F090FD78684FF0990100F08BFD78684FF0000100F086FD78684FF0450100F081FD7868F7
S32D0000FED04FF0020100F07CFD78684FF0000100F077FD78684FF0000100F072FD78684FF0000100F06DFD7868FC
S32D0000FEF84FF0B60100F032FC78684FF0010100F063FD78684FF0090100F05EFD78684FF0000100F059FD78689D
S32D0000FF204FF00E0100F054FD78684FF0020100F04FFD78684FF0000100F04AFD78684FF0000100F045FD78683D
S32D0000FF484FF0BA0100F00AFC78684FF00F0100F03BFD4FF06400FEF79DFC78684FF03A0100F0FCFB78684FF0B3
S32D0000FF70600100F02DFD78684FF02A0100F0F2FB78684FF0000100F023FD78684FF0000100F01EFD78684FF047
S32D0000FF98010100F019FD78684FF03F0100F014FD78684FF02B0100F0D9FB78684FF0000100F00AFD78684FF08E
S32D0000FFC0000100F005FD78684FF0000100F000FD78684FF0EF0100F0FBFC78684FF0360100F0C0FB78684FF0FD
S32D0000FFE8000100F0F1FC78684FF0F00100F0B6FB78684FF0040100F0E7FC78684FF0B80100F0ACFB78684FF0D7
S32D000100100F0100F0DDFC78684FF0010100F0D8FC4FF24003C4F20F034FF24002C4F20F02126842F008021A603D
S32D000100384FF06400FEF72EFC78684FF0360100F08DFB78684FF0000100F0BEFC78684FF0F00100F083FB7868E1
S32D000100604FF0040100F0B4FC43F2F060C1F6FF704FF0010100F0AAF943F2F060C1F6FF704FF06F014FF01E0255
S32D0001008800F0A4F843F2F060C1F6FF704FF0000100F0F6F943F2F060C1F6FF7043F6CC71C0F201014FF05A0283
S32D000100B04FF0AF0300F010FA78684FF0290100F051FB4FF06400FEF7E9FB78684FF0BE0100F048FB78684FF005
S32D000100D80E0100F079FC78684FF0F00100F074FC78684FF0010100F06FFC78684FF0000100F06AFC78684FF004
S32D00010100000100F065FC78684FF00F0100F060FC43F2F060C1F6FF704FF0010100F0B4F943F2F060C1F6FF70CF
S32D000101284FF0000100F084F907F10807BD4680BD80B582B000AF78607B684FF00002DA617B684FF001021A62C6
S32D000101507B684FF00E025A607B684FF01A029A607B684FF000025A617B684FF000029A617B684FF4A072DA60EC
S32D000101787B684FF0F0021A617B684FF000021A70786801F02FFA7B68184607F10807BD4680BD00BF80B582B073
S32D000101A000AF786043F22C73C1F6FF731B7883F00103DBB2002B09D043F22C73C1F6FF734FF001021A70786868
S32D000101C8FFF7D8FC07F10807BD4680BD80B58AB002AFF860B9607A604FF07E030093F868B9687A684FF0620332
S32D000101F000F060FE4FF00003FB614FF00003BB6155E04FF000037B6145E040F20043C1F6FF73FA699B181B78D7
S32D00010218002B09D14FF0FF03FB744FF0FF03BB744FF0FF037B741BE040F20043C1F6FF73FA699B181B78012BF4
S32D0001024009D14FF0D403FB744FF00003BB744FF026037B7408E04FF0B503FB744FF0BA03BB744FF0B0037B740E
S32D00010268F97CBA7C7B7CF86800F08AF80246FB68DA61F86801F0B6F9F86801F05FF8FB6903F10103FB617B69C9
S32D0001029003F101037B617B69612BCCBF00230123DBB2002BB1D1BB6903F10103BB61BB697D2BCCBF0023012319
S32D000102B8DBB2002BA1D107F12007BD4680BD00BF80B485B000AF78600B46FB70FB78062B2ED801A252F823F079
S32D000102E005030100FD0201000D030100150301001D030100250301002D0301006FF07F43FB6019E04FF000038A
S32D00010308FB6015E04FF47F03FB6011E04FF47F43FB600DE04FF0FF03FB6009E04FF41903FB6005E049F6991309
S32D00010330C0F29903FB6000BFFB68184607F11407BD4680BC704700BF80B584B000AF786039603B6803F47F0308
S32D000103584FEA1343FB733B6803F47F434FEA1323BB733B687B73F97BBA7B7B7B786800F007F80346184607F1E2
S32D000103801007BD4680BD00BF80B487B000AF7860F970BA707B70FB784FEAA3037B61BB784FEAA3033B617B78F9
S32D000103A84FEAA303FB607B694FEA03323B694FEA83131A43FB681343184607F11C07BD4680BC704780B582B03B
S32D000103D000AF78600B46FB70FB7878681946FFF773FF03467868194600F004F807F10807BD4680BD80B582B07F
S32D000103F800AF7860396078683968FFF7A1FF02467B681A62786801F0EDF8786800F0F8FB07F10807BD4680BD38
S32D0001042080B582B000AF7860786800F0EDFB07F10807BD4680BD00BF80B582B000AF78600B46FB70FB78786804
S32D000104481946FFF73DFF03467868194600F004F807F10807BD4680BD80B582B000AF7860396078683968FFF73B
S32D000104706BFF02467B681A62786801F0B7F807F10807BD4680BD00BF80B582B000AF78600B46FB70FB787868C9
S32D000104981946FFF715FF03467868194600F004F807F10807BD4680BD80B582B000AF7860396078683968FFF713
S32D000104C043FF02467B68DA61786801F08FF807F10807BD4680BD00BF80B586B000AFF860B9607A603B604FF0C8
S32D000104E800037B6110E07B69BA68D3181B78F86879683A6800F080FD7B6803F10C037B607B6903F101037B61C9
S32D000105107B69BA68D3181B78002B0CBF00230123DBB2002BE3D107F11807BD4680BD00BF80B584B000AF786089
S32D0001053839604FF00003FB60786800F087FC11E07B6859697B689A69FB683868C3181B78786800F031FD786840
S32D0001056000F08EFCFB6803F10103FB60FB683A68D3181B78002B0CBF00230123DBB2002BE2D107F11007BD46FF
S32D0001058880BD00BF80B590B000AF7860396007F10C03184643F6D871C0F201013A6802F0B7FB07F10C037868EB
S32D000105B01946FFF7BDFF07F14007BD4680BD00BF80B592B000AF7860396038684FF00001FCF758FE0346002B99
S32D000105D826D03868FCF766FE03467B64786CFCF747FC034638681946FCF78CFB034618464FF00001C4F27A41AB
S32D00010600FCF78EFC03461846FCF750FE03463B6407F10C03184643F6E871C0F201017A6C3B6C02F079FB29E0D7
S32D000106283B6883F000433B603868FCF73BFE03467B64786CFCF71CFC034638681946FCF761FB034618464FF04F
S32D000106500001C4F27A41FCF763FC03461846FCF725FE03463B6407F10C03184643F6DC71C0F201017A6C3B6CE6
S32D0001067802F04EFB07F10C0378681946FFF754FF07F14807BD4680BD80B582B000AF78600B46FB70786800F088
S32D000106A0D9FB7B6859697B689A69FB78786800F087FC786800F0E4FB07F10807BD4680BD80B582B000AF786022
S32D000106C83960786800F0C2FB78683968FFF72CFF786800F0A3FB07F10807BD4680BD00BF80B582B000AF7860D9
S32D000106F03960786800F0AEFB78683968FFF746FF786800F08FFB07F10807BD4680BD00BF80B582B000AF7860BF
S32D000107183960786800F09AFB78683968FFF74CFF786800F07BFB07F10807BD4680BD00BF80B582B000AF7860B8
S32D000107400B46FB70786800F085FBFB7878681946FFF79EFF786800F065FB07F10807BD4680BD00BF80B483B09C
S32D0001076800AF78600B46FB704FF28003C4F20F034FF28002C4F20F02126822F008021A604FF24003C4F20F03AD
S32D000107904FF24002C4F20F02126822F480221A604FF24003C4F20F034FF24002C4F20F02126842F480321A60D2
S32D000107B84FF24003C4F20F034FF24002C4F20F02126822F440721A604FF28003C4F20F034FF28002C4F20F02AA
S32D000107E0126822F4435222F030021A604FF24003C4F20F034FF24002C4F20F021168FA7802F001024FEA4222F4
S32D000108080A431A604FF24003C4F20F034FF24002C4F20F021168FA7802F00202002A02D04FF4807201E04FF032
S32D0001083000020A431A604FF28003C4F20F034FF28002C4F20F021168FA7802F00402002A02D04FF0100201E0A9
S32D000108584FF000020A431A604FF28003C4F20F034FF28002C4F20F021168FA7802F00802002A02D04FF020020F
S32D0001088001E04FF000020A431A604FF28003C4F20F034FF28002C4F20F021168FA7802F01002002A02D04FF020
S32D000108A8400201E04FF000020A431A604FF28003C4F20F034FF28002C4F20F021168FA7802F02002002A02D0E5
S32D000108D04FF0800201E04FF000020A431A604FF28003C4F20F034FF28002C4F20F021168FA7802F04002002AF0
S32D000108F802D04FF4805201E04FF000020A431A604FF28003C4F20F034FF28002C4F20F021168FA7852B2002AD2
S32D0001092002DA4FF4005201E04FF000020A431A604FF24003C4F20F034FF24002C4F20F02126822F400321A607C
S32D000109484FF24003C4F20F034FF24002C4F20F02126842F400321A604FF28003C4F20F034FF28002C4F20F0278
S32D00010970126842F008021A604FF24003C4F20F034FF24002C4F20F02126842F440721A604FF28003C4F20F032A
S32D000109984FF28002C4F20F02126842F4435242F030021A604FF24003C4F20F034FF24002C4F20F02126842F43D
S32D000109C080221A6007F10C07BD4680BC704700BF80B483B000AF78600B46FB704FF28003C4F20F034FF2800233
S32D000109E8C4F20F02126822F008021A604FF24003C4F20F034FF24002C4F20F02126842F480321A604FF2400313
S32D00010A10C4F20F034FF24002C4F20F02126842F480221A604FF24003C4F20F034FF24002C4F20F02126822F4B3
S32D00010A3840721A604FF28003C4F20F034FF28002C4F20F02126822F4435222F030021A604FF24003C4F20F031E
S32D00010A604FF24002C4F20F021168FA7802F001024FEA42220A431A604FF24003C4F20F034FF24002C4F20F0243
S32D00010A881168FA7802F00202002A02D04FF4807201E04FF000020A431A604FF28003C4F20F034FF28002C4F23F
S32D00010AB00F021168FA7802F00402002A02D04FF0100201E04FF000020A431A604FF28003C4F20F034FF280029E
S32D00010AD8C4F20F021168FA7802F00802002A02D04FF0200201E04FF000020A431A604FF28003C4F20F034FF22E
S32D00010B008002C4F20F021168FA7802F01002002A02D04FF0400201E04FF000020A431A604FF28003C4F20F039C
S32D00010B284FF28002C4F20F021168FA7802F02002002A02D04FF0800201E04FF000020A431A604FF28003C4F2F5
S32D00010B500F034FF28002C4F20F021168FA7802F04002002A02D04FF4805201E04FF000020A431A604FF28003FD
S32D00010B78C4F20F034FF28002C4F20F021168FA7852B2002A02DA4FF4005201E04FF000020A431A604FF2400305
S32D00010BA0C4F20F034FF24002C4F20F02126822F400321A604FF24003C4F20F034FF24002C4F20F02126842F492
S32D00010BC800321A604FF28003C4F20F034FF28002C4F20F02126842F008021A604FF24003C4F20F034FF240023D
S32D00010BF0C4F20F02126822F480221A6007F10C07BD4680BC704700BF80B586B000AF78607B684FF000025A61D2
S32D00010C187B684FF000029A617B681B6AFB60FB68FB72FB684FEA1323BB72FB684FEA1343DBB203F003037B7297
S32D00010C4078684FF02A01FFF78DFD78684FF00001FFF7BEFE78684FF00001FFF7B9FE78684FF00101FFF7B4FE53
S32D00010C6878684FF03F01FFF7AFFE78684FF02B01FFF774FD78684FF00001FFF7A5FE78684FF00001FFF7A0FE3C
S32D00010C9078684FF00001FFF79BFE78684FF0EF01FFF796FE78684FF02C01FFF75BFD4FF24003C4F20F034FF2C6
S32D00010CB84002C4F20F02126822F440721A604FF28003C4F20F034FF28002C4F20F02126822F47F2222F0F002FD
S32D00010CE01A604FF2C003C4F20F034FF2C002C4F20F02126822F01D021A604FF24003C4F20F034FF24002C4F22B
S32D00010D080F0211687A68126B0A431A604FF28003C4F20F034FF28002C4F20F0211687A68526B0A431A604FF2D6
S32D00010D30C003C4F20F034FF2C002C4F20F0211687A68926B0A431A604FF28003C4F20F034FF28002C4F20F020A
S32D00010D58126822F008021A604FF24003C4F20F034FF24002C4F20F02126842F480221A604FF000037B612DE0CF
S32D00010D804FF000033B611BE04FF24003C4F20F034FF24002C4F20F02126822F400321A604FF24003C4F20F034D
S32D00010DA84FF24002C4F20F02126842F400321A603B6903F101033B613A6940F23F139A428CBF00230123DBB21C
S32D00010DD0002BD9D17B6903F101037B617B69EF2B8CBF00230123DBB2002BC9D14FF28003C4F20F034FF2800236
S32D00010DF8C4F20F02126842F008021A604FF24003C4F20F034FF24002C4F20F02126822F480221A6007F118077C
S32D00010E20BD4680BD80B483B000AF78607B689B69002B09DD7B685B6903F101027B685A617B684FF000029A6122
S32D00010E4807F10C07BD4680BC704700BF80B582B000AF78607B685A697B685B689A4206DB7B684FF000025A61E5
S32D00010E707868FFF7C9FE07F10807BD4680BD00BF80B582B000AF78607B689B6903F101027B689A617B689A6920
S32D00010E987B689B689A4205D17868FFF7BFFF7868FFF7D4FF07F10807BD4680BD80B588B000AFF860B9607A60A8
S32D00010EC03B60FB681B78022B03D0FB681B78032B13D17B68FB61BA6AFB69D31803F1FF33BB61FB68DA68BB68AE
S32D00010EE8D31A3B613B683A69D31A03F101037B610FE0BB68FB613A68FB69D31803F1FF33BB617B687B61BA6AC7
S32D00010F107B69D31803F1FF333B61F8684FF02A01FFF720FCFB6903F470634FEA1323DBB2F8681946FFF74CFD1D
S32D00010F38FB69DBB2F8681946FFF746FDBB6903F470634FEA1323DBB2F8681946FFF73CFDBB69DBB2F868194659
S32D00010F60FFF736FDF8684FF02B01FFF7FBFB7B6903F470634FEA1323DBB2F8681946FFF727FD7B69DBB2F8682E
S32D00010F881946FFF721FD3B6903F470634FEA1323DBB2F8681946FFF717FD3B69DBB2F8681946FFF711FDF86840
S32D00010FB04FF02C01FFF7D6FB07F12007BD4680BD80B584B000AFF860B9607A60FB707A6813464FEA43039B1845
S32D00010FD84FEA830303F10201BA6813464FEA03139B1803F10302FB78F86800F005F807F11007BD4680BD00BFF0
S32D0001100080B58EB002AFF860B9607A60FB70FB780A2B06D1F868FFF71DFFF868FFF702FF2DE1FB787D2B02D89C
S32D00011028FB781F2B02D84FF02003FB70FB78A3F12003FB704FF011030093F868B9687A684FF00C03FFF732FFE2
S32D00011050FA7813464FEA83039A1843F23C43C1F6FF739B5C3B75FA7813464FEA83039B1803F1010243F23C43C9
S32D00011078C1F6FF739B5C7B75FA7813464FEA83039B1803F1020243F23C43C1F6FF739B5CBB75FA7813464FEAFC
S32D000110A083039B1803F1030243F23C43C1F6FF739B5CFB75FA7813464FEA83039B1803F1040243F23C43C1F609
S32D000110C8FF739B5C3B764FF00003BB62B0E0F86800F0DEF9F86800F0D3F84FF0000387F82F304FF000037B626F
S32D000110F035E007F114027B6AD3181B7803F00103002B0CBF00230123FB76FB7E002B11D097F82F3083F00103BC
S32D00011118DBB2002B03D0F86800F010F902E0F86800F0AEF8F86800F0ABF80DE097F82F30002B03D0F86800F0D0
S32D00011140ABF902E0F86800F09FF8F86800F09CF8FB7E87F82F307B6A03F101037B627B6A042BCCBF0023012338
S32D00011168DBB2002BC1D197F82F30002B03D0F86800F08EF902E0F86800F082F8F86800F07FF84FF0000387F817
S32D000111902F304FF000033B6242E007F114023B6AD3181B7803F00103002B0CBF00230123BB76BB7E002B11D0F5
S32D000111B897F82F3083F00103DBB2002B03D0F86800F0BCF802E0F86800F05AF8F86800F057F80DE097F82F3016
S32D000111E0002B03D0F86800F057F902E0F86800F04BF8F86800F048F8BB7E87F82F3007F114023B6AD3181B78F5
S32D000112084FEA6303DAB207F114013B6ACB181A703B6A03F101033B623B6A042BCCBF00230123DBB2002BB4D150
S32D00011230BB6A03F10103BB62BB6A062BCCBF00230123DBB2002B7FF446AFF86800F024F94FF0000387F82F3080
S32D000112584FF00103FB6106E0F86800F011F8FB6903F10103FB61FB69232BCCBF00230123DBB2002BF0D107F1DC
S32D000112803007BD4680BD00BF80B483B000AF78604FF24003C4F20F034FF24002C4F20F02126842F480321A60A9
S32D000112A84FF28003C4F20F034FF28002C4F20F02126822F008021A604FF24003C4F20F034FF24002C4F20F025B
S32D000112D0126842F480221A604FF24003C4F20F034FF24002C4F20F02126822F400321A604FF24003C4F20F0305
S32D000112F84FF24002C4F20F02126842F400321A604FF28003C4F20F034FF28002C4F20F02126842F008021A60DB
S32D000113204FF24003C4F20F034FF24002C4F20F02126822F480221A6007F10C07BD4680BC704700BF80B483B035
S32D0001134800AF78604FF24003C4F20F034FF24002C4F20F02126842F480321A604FF28003C4F20F034FF280022E
S32D00011370C4F20F02126822F008021A604FF24003C4F20F034FF24002C4F20F02126842F480221A604FF2400391
S32D00011398C4F20F034FF24002C4F20F02126822F440721A604FF28003C4F20F034FF28002C4F20F02126822F4B2
S32D000113C07F2222F0F0021A604FF2C003C4F20F034FF2C002C4F20F02126822F01D021A604FF24003C4F20F03D8
S32D000113E84FF24002C4F20F0211687A68526A0A431A604FF28003C4F20F034FF28002C4F20F0211687A68926A41
S32D000114100A431A604FF2C003C4F20F034FF2C002C4F20F0211687A68D26A0A431A604FF24003C4F20F034FF265
S32D000114384002C4F20F02126822F400321A604FF24003C4F20F034FF24002C4F20F02126842F400321A604FF20D
S32D000114608003C4F20F034FF28002C4F20F02126842F008021A604FF24003C4F20F034FF24002C4F20F02126848
S32D0001148822F480221A6007F10C07BD4680BC704780B483B000AF78604FF24003C4F20F034FF24002C4F20F027E
S32D000114B0126842F480321A604FF28003C4F20F034FF28002C4F20F02126822F008021A604FF24003C4F20F03BF
S32D000114D84FF24002C4F20F02126842F480221A604FF24003C4F20F034FF24002C4F20F02126822F440721A607D
S32D000115004FF28003C4F20F034FF28002C4F20F02126822F47F2222F0F0021A604FF2C003C4F20F034FF2C00228
S32D00011528C4F20F02126822F01D021A604FF24003C4F20F034FF24002C4F20F0211687A68126B0A431A604FF232
S32D000115508003C4F20F034FF28002C4F20F0211687A68526B0A431A604FF2C003C4F20F034FF2C002C4F20F0222
S32D0001157811687A68926B0A431A604FF24003C4F20F034FF24002C4F20F02126822F400321A604FF24003C4F219
S32D000115A00F034FF24002C4F20F02126842F400321A604FF28003C4F20F034FF28002C4F20F02126842F0080298
S32D000115C81A604FF24003C4F20F034FF24002C4F20F02126822F480221A6007F10C07BD4680BC704780B485B0CE
S32D000115F000AF78607B681B6AFB60FB68FB72FB684FEA1323BB72FB684FEA1343DBB203F003037B727B684FF02C
S32D0001161800025A627B684FF000029A627B684FF00002DA627B684FF000021A637B684FF000025A637B684FF0C1
S32D0001164000029A637B681A6BFB7A03F001034FEA43231A437B681A637B681A6BFB7A03F00203002B02D04FF437
S32D00011668807301E04FF000031A437B681A637B685A6BFB7A03F00403002B02D04FF0100301E04FF000031A439A
S32D000116907B685A637B685A6BFB7A03F00803002B02D04FF0200301E04FF000031A437B685A637B685A6BFB7AD4
S32D000116B803F01003002B02D04FF0400301E04FF000031A437B685A637B685A6BFB7A03F02003002B02D04FF0EF
S32D000116E0800301E04FF000031A437B685A637B685A6BFB7A03F04003002B02D04FF4805301E04FF000031A4352
S32D000117087B685A637B685A6BFB7A5BB2002B02DA4FF4005301E04FF000031A437B685A637B685A6BBB7A03F05B
S32D0001173001034FEA83331A437B685A637B685A6BBB7A03F00203002B02D04FF4004301E04FF000031A437B68DF
S32D000117585A637B685A6BBB7A03F00403002B02D04FF4803301E04FF000031A437B685A637B685A6BBB7A03F0EB
S32D000117800803002B02D04FF4003301E04FF000031A437B685A637B685A6BBB7A03F01003002B02D04FF48023D6
S32D000117A801E04FF000031A437B685A637B685A6BBB7A03F02003002B02D04FF4002301E04FF000031A437B6839
S32D000117D05A637B689A6BBB7A03F04003002B02D04FF0010301E04FF000031A437B689A637B689A6BBB7A5BB210
S32D000117F8002B02DA4FF0040301E04FF000031A437B689A637B689A6B7B7A03F001034FEAC3031A437B689A6305
S32D000118207B689A6B7B7A03F00203002B02D04FF0100301E04FF000031A437B689A637B68DB69FB60FB68FB72C3
S32D00011848FB684FEA1323BB72FB684FEA1343DBB203F003037B727B685A6AFB7A03F001034FEA43231A437B681B
S32D000118705A627B685A6AFB7A03F00203002B02D04FF4807301E04FF000031A437B685A627B689A6AFB7A03F0D8
S32D000118980403002B02D04FF0100301E04FF000031A437B689A627B689A6AFB7A03F00803002B02D04FF02003B3
S32D000118C001E04FF000031A437B689A627B689A6AFB7A03F01003002B02D04FF0400301E04FF000031A437B6856
S32D000118E89A627B689A6AFB7A03F02003002B02D04FF0800301E04FF000031A437B689A627B689A6AFB7A03F0F6
S32D000119104003002B02D04FF4805301E04FF000031A437B689A627B689A6AFB7A5BB2002B02DA4FF4005301E00C
S32D000119384FF000031A437B689A627B689A6ABB7A03F001034FEA83331A437B689A627B689A6ABB7A03F00203B0
S32D00011960002B02D04FF4004301E04FF000031A437B689A627B689A6ABB7A03F00403002B02D04FF4803301E08C
S32D000119884FF000031A437B689A627B689A6ABB7A03F00803002B02D04FF4003301E04FF000031A437B689A62C6
S32D000119B07B689A6ABB7A03F01003002B02D04FF4802301E04FF000031A437B689A627B689A6ABB7A03F0200372
S32D000119D8002B02D04FF4002301E04FF000031A437B689A627B68DA6ABB7A03F04003002B02D04FF0010301E06B
S32D00011A004FF000031A437B68DA627B68DA6ABB7A5BB2002B02DA4FF0040301E04FF000031A437B68DA627B68C1
S32D00011A28DA6A7B7A03F001034FEAC3031A437B68DA627B68DA6A7B7A03F00203002B02D04FF0100301E04FF061
S32D00011A5000031A437B68DA6207F11407BD4680BC704700BF80B582B000AF786039607B68012B0AD13A684FF6C8
S32D00011A78FF739A4205D143F2F060C1F6FF70FEF757FB07F10807BD4680BD00BF80B500AF4FF001004FF6FF714A
S32D00011AA0FFF7E0FF80BD00BF80B582B000AF78600B46FB707A68FB7810461946FDF7B0FC7B68184607F10807AA
S32D00011AC8BD4680BD80B582B000AF786039607B68012B0CD13A684FF6FF739A4207D143F23070C1F6FF704FF0F5
S32D00011AF02001FFF7D9FF07F10807BD4680BD00BF80B500AF4FF001004FF6FF71FFF7DEFF80BD00BF80B483B0C3
S32D00011B1800AF78607B684FF000021A707B68184607F10C07BD4680BC704700BF80B582B000AF78607B681B7804
S32D00011B4083F00103DBB2002B00F091807B684FF001021A704FF4E043C4F204034FF4E042C4F2040202F5815289
S32D00011B6802F11402126842F4806203F5815303F114031A604FF41043C4F204034FF400725A604FF41043C4F254
S32D00011B9004034FF400729A6043F23863C1F6FF731B684FF42040C4F2060019464FF41652FCF7CEFB4FF4204329
S32D00011BB8C4F206034FF42042C4F20602D278D2B222F00C02D2B2DA704FF42043C4F206034FF42042C4F2060258
S32D00011BE0D278D2B242F02002D2B2DA704FF42043C4F206034FF42042C4F20602D27AD2B222F02002D2B2DA724A
S32D00011C084FF46143CEF200034FF46142CEF20002D2F8842142F40052C3F884214FF46143CEF200034FF4614274
S32D00011C30CEF20002526842F400525A604FF42043C4F206034FF42042C4F20602D278D2B242F00C02D2B2DA7023
S32D00011C584FF06400FCF71EFE7B684FF001021A704FF0010301E04FF00003184607F10807BD4680BD80B483B08A
S32D00011C8000AF78607B681B78184607F10C07BD4680BC704780B487B000AFF860B9607A60FB704FF00003FB7458
S32D00011CA84FF000037B6139E000BF43F24A73C1F6FF731B7883F00103DBB2002BF5D1BA687B69D21843F24B7391
S32D00011CD0C1F6FF731B78137043F24A73C1F6FF734FF000021A70BA687B69D3181B780D2B22D0FB7C83F0010324
S32D00011CF8DBB2002B0ED0BA687B69D3181B78FA789A4203D14FF00103FB7403E07B6903F1FF337B617B6903F12E
S32D00011D2001037B617A697B689A422CBF00230123DBB2002BBCD100E000BF7B69184607F11C07BD4680BC7047A9
S32D00011D4880B586B000AFF860B9607A604FF000037B610EE0BA687B69D3181B784FF42040C4F206001946FCF7C6
S32D00011D700FFC7B6903F101037B617A697B689A422CBF00230123DBB2002BE7D17B69184607F11807BD4680BDA4
S32D00011D9880B483B000AF7860396043F23473C1F6FF733A681A6007F10C07BD4680BC704780B582B000AF4FF41A
S32D00011DC02040C4F20600FCF7C9FB0346FB7143F24B73C1F6FF73FA791A7043F24A73C1F6FF734FF001021A706C
S32D00011DE843F24973C1F6FF731B78012B2BD0022B5CD0002B40F09280FB79FF2B40F08B8043F24973C1F6FF733F
S32D00011E104FF001021A7043F24873C1F6FF734FF000021A7043F24873C1F6FF731A78114643F23873C1F6FF73E8
S32D00011E38F879585402F10103DAB243F24873C1F6FF731A7067E043F24873C1F6FF731A78114643F23873C1F658
S32D00011E60FF73F879585402F10103DAB243F24873C1F6FF731A7043F24873C1F6FF731B780B2B4ED143F23473C1
S32D00011E88C1F6FF731A6843F24873C1F6FF731B7843F23870C1F6FF701946904743F24973C1F6FF734FF002023E
S32D00011EB01A7036E0FB79FF2B22D143F24973C1F6FF734FF001021A7043F24873C1F6FF734FF000021A7043F2D3
S32D00011ED84873C1F6FF731A78114643F23873C1F6FF73F879585402F10103DAB243F24873C1F6FF731A7011E0D1
S32D00011F0043F24873C1F6FF734FF000021A7043F24973C1F6FF734FF000021A7002E000BF00E000BF07F10807A2
S32D00011F28BD4680BD80B582B000AF78607B681846FFF7ECFD7B68184642F65531C0F20101FFF726FF7B684FF04C
S32D00011F50FF325A6043F25873C1F6FF734FF000021A6043F25C73C1F6FF734FF000021A6043F26073C1F6FF737A
S32D00011F784FF000021A6043F26473C1F6FF734FF000021A6043F26873C1F6FF734FF000021A7043F26973C1F6C3
S32D00011FA0FF734FF000021A707B68184607F10807BD4680BD80B584B000AF786007F10C0318464FF00301FDF7C1
S32D00011FC819FC4FF04103FB7343F2F060C1F6FF70FEF722FA43F2F060C1F6FF7044F20001C0F20101FEF768FB3A
S32D00011FF043F2F060C1F6FF7044F22401C0F20101FEF75EFB43F2F060C1F6FF7044F23C01C0F20101FEF78CFA6D
S32D00012018FB7B43F2F060C1F6FF701946FEF788FB95E007F10C031846FDF76AFC0346002B42D0FB7B03F1FF334B
S32D00012040FB73FB7B402B02D84FF04C03FB7343F2F060C1F6FF70FEF7E3F943F2F060C1F6FF7044F20001C0F23C
S32D000120680101FEF729FB43F2F060C1F6FF7044F22401C0F20101FEF71FFB43F2F060C1F6FF7044F23C01C0F295
S32D000120900101FEF74DFAFB7B43F2F060C1F6FF701946FEF749FB00BF07F10C031846FDF72BFC0346002BF7D1AF
S32D000120B84FF06400FCF7EEFB07F10C031846FDF745FC0346002B42D0FB7B03F10103FB73FB7B4C2B02D94FF077
S32D000120E04103FB7343F2F060C1F6FF70FEF798F943F2F060C1F6FF7044F20001C0F20101FEF7DEFA43F2F06006
S32D00012108C1F6FF7044F22401C0F20101FEF7D4FA43F2F060C1F6FF7044F23C01C0F20101FEF702FAFB7B43F242
S32D00012130F060C1F6FF701946FEF7FEFA00BF07F10C031846FDF706FC0346002BF7D14FF06400FCF7A3FB07F13C
S32D000121580C031846FDF7E6FB034683F00103DBB2002B7FF45EAFFB7B7868194600F04EFC07F11007BD4680BDE0
S32D0001218080B594B000AF786039607B681846FFF775FD034683F00103DBB2002B03D07B681846FFF7C7FC43F274
S32D000121A85473C1F6FF731B7883F00103DBB2002B00F028847B681846FFF7B8FC43F25473C1F6FF731B7883F0A4
S32D000121D00103DBB2002B00F019843B68002B03DA4FF000033B6005E03B680B2B02DD4FF00B033B607B683A6805
S32D000121F85A6043F2F060C1F6FF70FEF70DF94FF000037B624FF00003FB644FF0000387F84B30A8E043F2F0604F
S32D00012220C1F6FF7044F24801C0F20101FEF780F94FF02B033B764FF02B037B764FF02B03BB767A6807F11803B9
S32D00012248104619464FF00302FFF77AFD78627A6807F10C03104619464FF00A024FF04F03FFF714FDF864FB6CE3
S32D00012270012B02D93B7B4F2B75D043F2F060C1F6FF7044F25C01C0F20101FEF719FA43F2F060C1F6FF7044F2E8
S32D000122986001C0F20101FEF70FFA40F6C410FCF7F9FA7A6807F10C03104619464FF00A024FF03003FFF7EAFCDD
S32D000122C0F864FB6C012B02D93B7B4F2B46D043F2F060C1F6FF7044F27801C0F20101FEF7EFF943F2F060C1F6B8
S32D000122E8FF7044F29001C0F20101FEF71DF94FF000037B640FE007F10C027B6CD3181B7843F2F060C1F6FF70AC
S32D000123101946FEF7BDF97B6C03F101037B647A6CFB6C9A422CBF00230123DBB2002BE6D143F2F060C1F6FF7061
S32D0001233844F25C01C0F20101FEF7BEF943F2F060C1F6FF7044F29C01C0F20101FEF7B4F900BF08E04FF00103C5
S32D0001236087F84B3003E04FF0010387F84B3097F84B3083F00103DBB2002B7FF44FAF43F2F060C1F6FF7044F2A9
S32D00012388AC01C0F20101FEF7CFF84FF000033B640FE007F10C023B6CD3181B7843F2F060C1F6FF701946FEF70F
S32D000123B06FF93B6C03F101033B643A6CFB6C9A422CBF00230123DBB2002BE6D143F2F060C1F6FF7044F25C0190
S32D000123D8C0F20101FEF770F943F2F060C1F6FF7044F2B401C0F20101FEF79EF84FF041033B764FF054037B7634
S32D000124004FF04D03BB764FF05903FB767B685B68002B01DA03F103034FEAA303DBB203F13103DBB23B774FF029
S32D0001242831037B774FF03003BB777B685A684FF00303C8F200031340002B05DA03F1FF3363F0030303F1010340
S32D00012450DBB203F13003DBB2FB774FF00D0387F820307A6807F11803104619464FF00902FFF76AFC78627A6880
S32D0001247807F10C03104619464FF00A024FF04F03FFF704FCF864FB6C012B02D93B7B4F2B0AD043F2F060C1F697
S32D000124A0FF7044F2C801C0F20101FEF709F9ADE24FF00003FB630FE007F10C02FB6BD3181B7843F2F060C1F6B0
S32D000124C8FF701946FEF7E0F8FB6B03F10103FB63FA6BFB6C9A422CBF00230123DBB2002BE6D143F2F060C1F609
S32D000124F0FF7044F25C01C0F20101FEF7E1F843F2F060C1F6FF7044F2E801C0F20101FEF70FF84FF041033B768B
S32D000125184FF054037B764FF04903BB764FF04403FB767B685B68002B01DA03F103034FEAA303DBB203F1310320
S32D00012540DBB23B774FF030037B774FF03003BB774FF03003FB774FF00D0387F820307A6807F118031046194679
S32D000125684FF00902FFF7ECFB78627A6807F10C03104619464FF00A024FF04F03FFF786FBF864FB6C012B02D988
S32D000125903B7B4F2B0AD043F2F060C1F6FF7044F2C801C0F20101FEF78BF82FE24FF00003BB630FE007F10C02D6
S32D000125B8BB6BD3181B7843F2F060C1F6FF701946FEF762F8BB6B03F10103BB63BA6BFB6C9A422CBF0023012321
S32D000125E0DBB2002BE6D143F2F060C1F6FF7044F25C01C0F20101FEF763F843F2F060C1F6FF7044F2FC01C0F28B
S32D000126080101FDF791FF4FF041033B764FF054037B764FF04403BB764FF04C03FB767B685B68002B01DA03F10C
S32D0001263003034FEAA303DBB203F13103DBB23B774FF030037B774FF03003BB777B685A684FF00303C8F20003F3
S32D000126581340002B05DA03F1FF3363F0030303F10103DBB203F13003DBB2FB774FF00D0387F820307A6807F1D4
S32D000126801803104619464FF00902FFF75DFB78627A6807F10C03104619464FF00A024FF04F03FFF7F7FAF8642C
S32D000126A8FB6C012B02D93B7B4F2B0AD043F2F060C1F6FF7044F2C801C0F20101FDF7FCFFA0E14FF000037B639D
S32D000126D00FE007F10C027B6BD3181B7843F2F060C1F6FF701946FDF7D3FF7B6B03F101037B637A6BFB6C9A42CE
S32D000126F82CBF00230123DBB2002BE6D143F2F060C1F6FF7044F25C01C0F20101FDF7D4FF43F2F060C1F6FF70AE
S32D0001272044F21411C0F20101FDF702FF4FF041033B764FF054037B764FF04403BB764FF04803FB764FF03003A7
S32D000127483B774FF030037B774FF03003BB774FF03003FB774FF00D0387F820307A6807F11803104619464FF0BD
S32D000127700902FFF7E9FA78627A6807F10C03104619464FF00A024FF04F03FFF783FAF864FB6C012B02D93B7B0F
S32D000127984F2B0AD043F2F060C1F6FF7044F2C801C0F20101FDF788FF2CE14FF000033B630FE007F10C023B6B5D
S32D000127C0D3181B7843F2F060C1F6FF701946FDF75FFF3B6B03F101033B633A6BFB6C9A422CBF00230123DBB22D
S32D000127E8002BE6D143F2F060C1F6FF7044F25C01C0F20101FDF760FF43F2F060C1F6FF7044F22C11C0F20101C9
S32D00012810FDF78EFE4FF041033B764FF054037B764FF05703BB764FF05203FB764FF00D033B777A6807F1180399
S32D00012838104619464FF00502FFF782FA78627A6807F10C03104619464FF00A024FF04F03FFF71CFAF864FB6CE1
S32D00012860012B02D93B7B4F2B0AD043F2F060C1F6FF7044F2C801C0F20101FDF721FFC5E04FF00003FB620FE093
S32D0001288807F10C02FB6AD3181B7843F2F060C1F6FF701946FDF7F8FEFB6A03F10103FB62FA6AFB6C9A422CBFF8
S32D000128B000230123DBB2002BE6D143F2F060C1F6FF7044F25C01C0F20101FDF7F9FE43F2F060C1F6FF7044F285
S32D000128D84011C0F20101FDF727FE4FF041033B764FF054037B764FF04303BB764FF04E03FB764FF00D033B7740
S32D000129007A6807F11803104619464FF00502FFF71BFA78627A6807F10C03104619464FF00A024FF04F03FFF763
S32D00012928B5F9F864FB6C012B02D93B7B4F2B0AD043F2F060C1F6FF7044F2C801C0F20101FDF7BAFE5EE04FF077
S32D000129500003BB620FE007F10C02BB6AD3181B7843F2F060C1F6FF701946FDF791FEBB6A03F10103BB62BA6AB5
S32D00012978FB6C9A422CBF00230123DBB2002BE6D143F2F060C1F6FF7044F25C01C0F20101FDF792FE43F2F06051
S32D000129A0C1F6FF7044F25811C0F20101FDF7C0FD786800F055F8034643F2F060C1F6FF701946FDF7B9FE43F28E
S32D000129C85473C1F6FF734FF001021A7000BF786800F052F80346002B14BF00230123DBB2002BF4D143F2F060BB
S32D000129F0C1F6FF7044F27C11C0F20101FDF760FE43F2F060C1F6FF70FDF70AFD07F15007BD4680BD80B582B02D
S32D00012A1800AF78600B46FB70FB78402B0AD9FB784C2B07D8FB78A3F1410378681946FFF7A3FB0CE0FB78602BBA
S32D00012A4009D9FB786C2B06D8FB78A3F1610378681946FFF795FB07F10807BD4680BD00BF80B483B000AF786079
S32D00012A687B685B68DBB203F14103DBB2184607F10C07BD4680BC704780B584B000AF7860FBF722FFF86000BFCE
S32D00012A9043F26A73C1F6FF731B7883F00103DBB2002B0BD0FBF714FF0246FB68D21A40F2E7339A4202D84FF062
S32D00012AB8010301E04FF00003002BE5D143F26A73C1F6FF731B78002B09D043F26A73C1F6FF734FF000021A700F
S32D00012AE04FF0FF0301E04FF00003184607F11007BD4680BD80B483B000AF786043F25873C1F6FF731B681846BE
S32D00012B0807F10C07BD4680BC704700BF80B483B000AF786043F25C73C1F6FF731B68184607F10C07BD4680BC98
S32D00012B30704700BF80B483B000AF786043F26073C1F6FF731B68184607F10C07BD4680BC704700BF80B582B0D9
